:020000040000fa
:080000000002040000000000f2
:020000040000fa
:100400006fdd2100007f2400000188000000000053
:100410000c000700a02323000100200011000700aa
:10042000000020000000e000020032000000020096
:1004300000000000e4310200000000000040da008b
:100440000000fe004440a900c00720000000e000ba
:100450000300320000002000a00188004440a800f2
:100460000000060091018800800078000000eb0089
:1004700015003700e280400032a0b4009101ba00bc
:10048000e280400032a0b4009102ba00e280400055
:1004900032a0b4000002eb00472bde00f507b200eb
:1004a000602ce10004003a000059eb008301e900f0
:1004b000fdff3e00040037006128e100010032002a
:1004c0000082eb00040007001101ba000200e00006
:1004d000e8ff3a00000006003159ba008301e90044
:1004e0000c0032002159ba008301e90008003200f3
:1004f0000400e00003003a00e280400032a0b400b3
:10050000f5ff370011d9ba008301e900faff3a007c
:100510008100e800e180400032a0b4000000060045
:1005200060310400000000006e3104000000000093
:10053000d030040000000000ca31040000000000b8
:100540007e23040000000000a80204000000000058
:10055000881f78000204780014000700080040009b
:100560004f047800000006000000fa00881f7800a1
:10057000000478003fb99700ea81570080007800b6
:10058000802a200031000700800078000000e00091
:10059000020035000040eb0000f478000100780014
:1005a0004f0478000080fa00000006008001eb0094
:1005b0000200370061f079008301e800828f51006a
:1005c000fcff3a00000006008001eb00020037004b
:1005d000817178008301e800828f5100fcff3a00ae
:1005e0000000060000037800800178000002eb00a4
:1005f000010037008059780084025100820f5200b8
:100600000900320064c078000402e8000004e00041
:10061000f8ff3a00830078008058eb000580410025
:10062000808f5000fcff3a000600780000000600b2
:1006300080007800010037000000e8001004e000ae
:10064000fdff3a0001005000000006006200fa00c1
:10065000889fbe008a9fbe000004be00020578008d
:100660008300780060f92f000f004000b000070001
:1006700088979f0099979f000000eb00a09f9f0024
:100680009a4578000b80fb000000ea00cf04de00f2
:1006900050c2b30080cf5500020032000904780038
:1006a000010037000904e9000800e0000b003400f5
:1006b0001f909700080178008a0078008f919700ba
:1006c0000300010090979f000000e00093003200bb
:1006d0002f98970000004400a09f9f000905450047
:1006e00050c2b30080cf5500040032000b04e0007c
:1006f000e3ff3a002f989700890037000000eb00d5
:10070000809f9f00f0979f00e0979f00d0979f00e9
:10071000c0979f00b0979f00c09f9f0009003700bf
:1007200020dc2100008050000000400061db21003f
:10073000e10078004f98970001007000c09f9f0073
:100740000a05e8001a4478008800fb0020dc21003c
:100750007c000700800078000000e000f0ff3a0015
:10076000a0c2b300804f54000e003a00bf8897002b
:100770000180e900b08f9f0010007800b09f9f00bb
:100780000000e00005003d000000ea00b09f9f006f
:100790004f9897000020a000c09f9f000a05e80026
:1007a00010003700b19f9f0009003700bf989700e5
:1007b000f0ff2700808f5000040032006a08b90063
:1007c0000000410003004000b09f9f000a05e800c0
:1007d0001a01fb0003fd2f0003004100e90f500048
:1007e000f2ff3600e0c2b3009a4f1000040032005e
:1007f0000080eb00909f9f008a0478001c00370067
:100800008a04e800a0c2b300994f100007003a0024
:10081000bf8897000180e900b08f9f00100078002a
:10082000909f9f008a84e800110037000000eb00d1
:10083000909f9f00090037009f989700f0ff2700c6
:10084000808f5000040032006a08b90000004100a7
:1008500003004000909f9f008904e8001901fb00fd
:1008600003fd2f0003004100e90f5000f2ff3600a6
:10087000194478008800fb0080dc2100310007006b
:100880000000e00002003a00004478000100370058
:100890008904e800a87f9f0080c6b300804f540001
:1008a00004003a00994f14000a003a0066405000d4
:1008b00006003700c0c6b300804f540005003a0060
:1008c000994f140003003a0065404000a07f9f004c
:1008d0008904e8000905e800c8fb2f000f04440064
:1008e00060f92f000f0040008085e8008801780043
:1008f00019417800800078000b0078001a0007008a
:100900000000e00005003a00880078000b00780045
:10091000920107000000e00059ff3d000080eb005d
:100920004f05be004f04be000080fa000000060024
:100930000200fa00f1bf9f00010878000080fa0071
:1009400000000600040037000204e00001003a0045
:10095000000005000000e80010417800814f5100c0
:10096000f9ff3a0000000600889fbe008a1f780049
:1009700000047800010278008244780003057800c2
:1009800070c6b300804f510021003c0000c0e90058
:10099000804f5100de003d0072405000804f5100fa
:1009a0004b0132000d003c006c405000804f510064
:1009b0005e013c0000c0e900804f5100d4003d00c2
:1009c00050c2b300804f5100550132007c404000be
:1009d000804f510055013a00cd00370010c6b300da
:1009e000804f5100ca00320004003c0069405000b2
:1009f000804f51004d013a007200370030c6b300fd
:100a0000804f5100180032000040e8000900370014
:100a100000c7b300804f51001e01320008003c00a7
:100a200000c0e900804f5100e400320065003c0046
:100a30006540500080cf54003c013a000f00370061
:100a400050c7b300804f51005e0032006340400049
:100a5000804f51005b00320065405000804f5100d4
:100a600032013a001a0137009180e900010a78004a
:100a7000780090009171780032013700a8609000f2
:100a8000c0c6b30080cf50000a003a00940078003e
:100a900064805000000a78001000be004f89de001c
:100aa000cf91de000002be000203780082037800ce
:100ab0001300370010c7b30080cf5000030032008e
:100ac000a0c6b30080cf500006003a009400780022
:100ad00068805000000a78003002be002003be008b
:100ae000070037001480e900000a78001000780041
:100af00000027800cfa2de000503780086037800ac
:100b0000049cbe000694be00a860900080c6b3009e
:100b100080cf50000e00320020c6b30080cf5000be
:100b200005003a000400fb00cf80de0001017800e0
:100b3000820178000a00370040c7b30080cf500020
:100b4000030032006640400080cf500006003a00ab
:100b500004007800cf80de00010178008201780077
:100b6000009cbe000294be003800be002801be00fa
:100b7000e00f5000e08f5800e00f5900e08f59005f
:100b800003003d0078009000d1c2b3000a00370096
:100b9000081090000018a3000300320078009000b5
:100ba000b1c2b300040037000008a30053003200b4
:100bb0007800900001c2b300017578000000e800e1
:100bc0004d003700a8609000c0c6b30080cf500031
:100bd00006003a009400780064805000000a780013
:100be0001002be006033b8001300370010c7b30016
:100bf00080cf500003003200a0c6b30080cf500069
:100c000006003a009400780068805000000a7800de
:100c10003002be002003be00070037001480e90048
:100c2000000a78001000780000027800050020001b
:100c30000600200007002000049cbe000694be00b1
:100c4000a860900080c6b30080cf50000e00320034
:100c500020c6b30080cf500005003a000480fb009e
:100c60000100200002002000030020000a003700dd
:100c700040c7b30080cf5000030032006640400000
:100c800080cf500006003a000400780001002000e8
:100c90000200200003002000009cbe000294be0061
:100ca000081090000038a300140032003800be0085
:100cb0002801be00e00f5000e08f5800e00f5900ff
:100cc000e08f59000d00320080c7b30080cf540080
:100cd0000300320080c5b30080cf540007003a0003
:100ce0007800900001c3b300017578008000e8002f
:100cf00009f578000080e800700498007800900002
:100d00000000450060049800894078006d003700bd
:100d1000a8609000c0c4b30080cf500006003a0025
:100d20009400780068805000000a78005001be00ee
:100d30004000be0005003700940078006480500039
:100d4000000a78001000be0061070700009cbe008a
:100d50000294be00380090000000e00003003d0057
:100d600078009000d1c2b3000a003700081090004c
:100d70000018a3000300320078009000b1c2b30055
:100d8000040037000008a30005003200780090003e
:100d900001c2b300017578000000e80070049800fb
:100da00078009000000045006004980089407800b9
:100db000080078003301070064003700a860900045
:100dc000c0c6b30080cf5000250032000a003c00ae
:100dd0006440500080cf50002800320000c0e8007e
:100de00080cf5000140032006840500080cf500087
:100df00022003a000a00370040c7b30080cf5000fd
:100e00001e0032006640400080cf50001b003200c0
:100e10006940500080cf500018003a0006003700ab
:100e20001480e900000a780010007800485c900007
:100e300008487800450037001480e900000a78006f
:100e40001002780068089000cf80de000101780071
:100e500082017800009abe000292be003b0037007b
:100e60001480e900000a78001001780068089000fa
:100e7000cf80de000089be00340037001480e90016
:100e8000000a780010007800680c900008087800cc
:100e90002e0037001180e9008008780010007800eb
:100ea000cf80de000101780082017800009cbe0046
:100eb0000294be0078009000000045006004980095
:100ec00081c7b30008007800170307001f00370030
:100ed0001480e900000a780010007800600498008f
:100ee000580990000200e00002003d00d0fd07001c
:100ef000090037008000eb009804070080007800ac
:100f00000000e00003003200680090000080500004
:100f10000100370058089000100c98000b003700b3
:100f20007800900002757800060037007800900085
:100f3000800045000904e00001003a0059c2b300f6
:100f4000894878000000e800700498000000eb0079
:100f50004f0578004f04be00000006000400fa00b0
:100f6000889fbe008a9fbe008c1f78000004780016
:100f70000106780070089000f80090000100500011
:100f8000880890000100500098089000010050006f
:100f9000a808900001005000b8089000010050001f
:100fa000c8089000810550000002220090bf9f00f9
:100fb00000032300a0bf9f00081090000028a3009a
:100fc00018003a000b00e000160034008b04780093
:100fd00009057800e28f5400020036002a00200044
:100fe000020037000900e0000b00340058009000b8
:100ff000c80190000a017800ee805700030001004c
:10100000500498000000e00096003200680890004c
:1010100000004500600c98008a8454004240a900fa
:10102000ebff3c00780190000200e0000b00340070
:1010300058009000c80190008c0078000300010067
:10104000500498000000e00086003200680890001c
:10105000f800900001004000600c9800880c90009f
:101060000900e0001500340009057800e28f540003
:10107000020036002a002000020037000900e000cc
:101080000b00340058009000c80190000a0178005d
:10109000ec80570003000100500498000000e000bd
:1010a000700032006808900000004500600c980055
:1010b0008a8454004240a900ebff3c0018099000cc
:1010c0000200e0000b003400e8009000580090009f
:1010d000c801900003000100500498000000e000e7
:1010e00060003200680890009808900001004000fd
:1010f000600c9800a80c90000900e0001500340076
:1011000009057800e28f5400020036002a00200012
:10111000020037000900e0000b0034005800900086
:10112000c80190000a017800ec805700030001001c
:10113000500498000000e0004a0032006808900067
:1011400000004500600c98008a8454004240a900c9
:10115000ebff3c00380990000200e0000d00340075
:10116000e80090001808900080804000580090002f
:10117000c801900003000100500498000000e00046
:101180003800320068089000b80890000100400064
:10119000600c9800c80c90000900e00015003400b5
:1011a00009057800e28f5400020036002a00200072
:1011b000020037000900e0000b00340058009000e6
:1011c000c80190000a017800ec805700030001007c
:1011d000500498000000e0002200320068089000ef
:1011e00000004500600c98008a8454004240a90029
:1011f000ebff3c00081090000028a3001b00320009
:101200000b00e000190034008b0478000905780019
:10121000e28f5400020036002a002000020037004e
:101220000900e0000b00340058009000c801900055
:101230000a017800ee805700030001005004980076
:101240000000e00007003200680890000000450040
:10125000600c98008a8454004240a90003003400c6
:10126000eaff37000080eb00010037000000eb00d0
:101270004f0678004f05be004f04be000080fa0004
:10128000000006008f04b000889fbe008a9fbe0049
:101290008c9fbe008e1f7800f0b79f0081f79f00e3
:1012a0005001be004000be00f0979f00819f9f004c
:1012b000929f9f00a39f9f0010c6b3000ff197005d
:1012c000804f51001600320010c4b300804f51000f
:1012d00013003200ffb19700530890000000e000b7
:1012e00003003d0060002000d00998000c0037008a
:1012f0000000e0000a003a0070c6b3000ff2970049
:10130000804f52000300320070c4b300804f52007f
:1013100003003a0010002000ffb29700d00a9800a6
:10132000ffb09700c0fa2f000f00400095030700a0
:1013300080017800e20f500015003a0030002000d4
:10134000ffb097009008980010c6b3000ff1970007
:10135000804f51000a00320064404000804f51002d
:10136000070032000040e800804f510004003200c6
:1013700021d621000040e800804f510001003a00d2
:1013800061d62100ffb1970063009000160037007e
:101390000000e00018003400300020007fb2970009
:1013a000100a980010c6b3008ff2970080cf520049
:1013b0000a0032006440400080cf52000700320033
:1013c0000040e80080cf520004003200a1d6210086
:1013d0000040e80080cf520001003a00e1d6210031
:1013e0007fb1970062009000315878003158780042
:1013f00011487800c601370014c6b3008ff2970079
:1014000084cf52000300320010c4b30080cf5200da
:1014100013003a007fb097006001900082007800ce
:1014200000c3b30080587800ffb29700e102980033
:1014300080c7b3008ff2970084cf520001003200c2
:1014400080c5b300804878000280e800ffb09700b4
:10145000e0009800710090000080e800f000980023
:101460000300e00005003a00e3979f0064fb2f00b3
:101470000f01420003077800a001370025d72100a3
:10148000e5b79f0010c6b3008ff0970080cf5000e3
:101490000500320010c4b30080cf5000a7003a000e
:1014a00032d82100e2b79f00ffb1970053089000a7
:1014b0001e0220000000e000010035000007e800e7
:1014c0000e02e800d4b79f006022b8006033b80075
:1014d0007f9097008f9897001f999700af9997007a
:1014e0009a050700ffb097003102be002103be003d
:1014f0000000e00004003d000400be000601be0044
:1015000003f0a200020037000400be000601be0086
:10151000f0979f00819f9f00929f9f00a39f9f0035
:101520006f91970064015100e2979f00c3fa2f006a
:101530008f8141006a8041000048eb006b824100ce
:10154000c4b79f0031003700c20120000300200013
:10155000e5fa2f000f804200360307007f949700c2
:101560008f9c97001f9d9700af9d97000800be00bd
:101570000a01be007a0507000006be005fb19700b1
:1015800067015100d2b79f004240a9000a00340011
:101590009f0507000002be000203be000800be0057
:1015a0000a01be009d050700f0979f00819f9f00e4
:1015b000929f9f00a39f9f00cfb19700678041003b
:1015c00071002000050037006f6066004c6add0086
:1015d0004466de000c067200c4eede00e00f56002a
:1015e000e08f5e00050034008100e900e18f4000db
:1015f000f5ff3a00010037000060eb008100e900d0
:10160000fdff3b0067004000c0b79f00dfb29700be
:101610000500e000090034006022b8006033b80023
:101620007f9097008f9897001f999700af99970028
:101630007c0507000000e000c3ff3c0060fb2f00ba
:101640008f0040004fb19700010051000000e900f9
:101650008e0f500001003d00000778000e00e000f2
:1016600003003d0073fb2f000f8141002c00370069
:10167000800f570005003d000e8040001040900094
:10168000f3c0b300e74f500001003c008041eb0085
:10169000c4fa2f000f0242000e0042006a00400010
:1016a0008e007800010037000000e9008100e900a9
:1016b00010417800834f5100fbff32000107e80022
:1016c000efcf510001003a000248e8000100e000bd
:1016d0000300350075fb2f000f8142000600370024
:1016e0000e07e8006f90970064004000e0979f00ad
:1016f00061fb2f000f8140008e0041008e017800b9
:10170000030037001100fb006fb29700e448780037
:101710008301e9008100e9000300e000f9ff3d00da
:10172000ffb29700550890000000e000f3003d0074
:101730000e00e900d00a9800f00037007f9497006f
:101740008f9c97001f9d9700af9d97006022b80067
:101750006033b8000800be000a01be00fb040700a9
:101760000000e00005003d000bf0a200f8979f008c
:10177000899f9f009a9f9f00ab9f9f006f9097004b
:10178000725927000280b900026a28001300200065
:1017900029050700e4005000e1979f0015003b0079
:1017a000e3801000c0ff2f00008460000800ea0002
:1017b000e0979f007f9097008f9897001f99970060
:1017c000af999700a9d12100070037000808a300ae
:1017d000030032003902be002903be0025050700c0
:1017e0000884d100e88444000800e000f7ff3c00d2
:1017f0001b0037000100e0001d003400c0ff2f0077
:1018000000806000e0979f00000478006000b8004e
:101810000200200003ff2300a9d1210007003700a8
:101820000808a300030032003902be002903be00ed
:10183000100507000884d100e88444000800e00097
:10184000f7ff3c000002be000203be007f9097003d
:101850008f9897001f999700af9997007a05070016
:10186000f0979f00819f9f00929f9f00a39f9f00e2
:10187000ffb097005109900060c6b3008ff1970048
:1018800080cf5100040032006100200060c4b3002a
:1018900080cf510002003a006f929700ea004200a8
:1018a00001074100f30f5700010034003e01200002
:1018b00000c3b300e0779f0075fb2f008f824200ca
:1018c000b5b79f00330037000800be000a01be0014
:1018d000a30407000006be00680757004240a900a5
:1018e0000e003400ca0407000002be000203be005e
:1018f0000800be000a01be00c80407006022b8004c
:1019000046782d0077192400da040700f0979f002d
:10191000819f9f00929f9f00a39f9f003fb09700d1
:1019200068044000890020000d003700a40020005a
:10193000050020000c01be00e0fd2f000f0040005c
:10194000b50207007fa897008fb097001fb19700de
:10195000afb1970004c3b300046441000006be00a9
:10196000e00f5600e08f5e00060034008904e900b5
:10197000e18f4400edff3a000200370000c3b300de
:10198000006478008904e900fcff3b00680444001f
:10199000b8b79f000e00e0000b0034007f94970062
:1019a0008f9c97001f9d9700af9d97006022b80005
:1019b0006033b8000800be000a01be0099040700a9
:1019c0000000e000c0ff3c00c5fa2f008f824200fb
:1019d0006a804200bfb09700008050008001e9009b
:1019e0006f919700e70041006b81420001003700d2
:1019f0000201e80000c3b300924f1000fcff320068
:101a000074fb2f000f004200808040008280500055
:101a10000080410002025000e1979f00ffb2970052
:101a2000d509900060c6b3008ff2970080cf5200b6
:101a30000300320060c4b30080cf520002003a00bd
:101a40008100e8000a00370050c6b3008ff097000d
:101a500080cf5000050032008000eb0050c4b3007e
:101a60008ff2970080cf520001003a001100200051
:101a7000018741008e0f520001003d0004077800ed
:101a80000e00e0001d003500840f570005003d00ea
:101a9000e2407f0095c3b30040c3b30080cf500045
:101aa00001003c0005c3b3000e0041008000e900c6
:101ab0008e017800010037008100e9008301e90010
:101ac00011427800854f5200fbff32000307e80007
:101ad00090c3b30080cf520001003a008448e80070
:101ae0000300e00005003d000201e9000e07e800e8
:101af0006f9097000000e800e0979f006f929700ba
:101b00008e0178008ff097007fb097005f0207008a
:101b10004f0778004f06be004f05be004f04be00c1
:101b20008f04b100000006002f03b000889fbe00a4
:101b30008a9fbe008c9fbe008e1f78000007780031
:101b400050da2100c0b79f0080c5b30080cf50009d
:101b50000800320042d92100c2b79f007740400000
:101b600080cf500003003a0083002000b3b79f00ed
:101b70000a00370080c7b30080cf50000500320054
:101b8000a4002000b4b79f0080c5b30080cf5000f0
:101b900002003a0005012000b5b79f003e04be00d8
:101ba0002e05be0040c6b30080cf500003003200b7
:101bb0006540400080cf50000b003a00e00f540019
:101bc000e08f5c00e00f5d00e08f5d0006003d00ef
:101bd0006000b8006011b800080450008984580003
:101be0000a0559008b8559003fb19700e80f510055
:101bf00003003200f00f510045003a0002003700a8
:101c00003c002000010037004c002000e00f540091
:101c1000e08f5c00e00f5d00e08f5d0005003a00a2
:101c20005e08900083012000a3b79f000000e00041
:101c3000080032003fb297000400e900080060008d
:101c4000cfb297006540780090df9f0070012000c0
:101c5000a0b79f008c0078008100e90005003300e8
:101c60008b05d1000a85d3008984d3000884d30072
:101c7000f9ff3700089fbe000a97be002fb19700fa
:101c80000200e90023fc2f008f8141000084410005
:101c9000140037002fb097000000e900a0b79f00a4
:101ca0003fb197000200e90004006000cfb1970047
:101cb000635478003e00be002e01be000c02780086
:101cc0000402e900050033008381d1000281d300c2
:101cd0008180d3000080d300f9ff3700009fbe0051
:101ce0000297be003e02be002e03be00e00f52006f
:101cf000e08f5a00e00f5b00e08f5b00da003400f9
:101d00002fb097000000e000e2ff3c00d600370053
:101d1000ae60900080c6b30080cf50000b00320050
:101d200006003c000104e00008003200664050005c
:101d300080cf500073003a0004003700c0c6b300e3
:101d400080cf50006f003a00310037000801780062
:101d50000800e00005003a005e08900081012000c4
:101d6000a1b79f000000e00009003200bfb197005a
:101d7000110009000381d8008000fd004fb29700d8
:101d80006440780090df9f0075012000a5b79f0098
:101d90003fb29700110009000481d800800178004b
:101da000afb297000500e90021fc2f008f804000b2
:101db000008240000c003700bfb2970011000900fc
:101dc0008501d800000178002fb097000000e900dd
:101dd000a0b79f000590b90000805100cfb09700d8
:101de00061527800820178000300e00003003400b3
:101df0002fb197000200e000efff3c0003007800e5
:101e0000cf80de0001017800820178003a003700bf
:101e10000806be00e00f5400e08f5c0005003a00a9
:101e20005e08900083012000a3b79f000000e0003f
:101e3000090032003fb297006121b9000c00be00da
:101e40005b040700cfb297006540780090df9f00e9
:101e500070012000a0b79f003fb297006121b90038
:101e60000c00be00550407000006be00afb297008c
:101e70000500e90021fc2f008f8040008080400099
:101e800091b79f00110037003fb197006114b9006e
:101e90000801be000c00be00670307000005be007d
:101ea000afb197008301e900a3b79f000801be000e
:101eb00001030700000056001fb29700cfb2970041
:101ec0006552780094b79f000a06be00e00f5600e6
:101ed000e08f5e00030034002fb097000000e000a8
:101ee000e9ff3c004feade00cfa2de000c00be009e
:101ef0000401780084017800009fbe000297be00b4
:101f000059003700e00f5400e08f5c00e00f5d00e7
:101f1000e08f5d0005003a005e089000810120001e
:101f2000a1b79f000000e0000d0032003fb1970014
:101f300002027800cfa2de00050378008603780055
:101f40000800be000a01be00ad0407004fb29700b2
:101f50006440780090df9f0075012000a5b79f00c6
:101f60003fb1970002027800cfa2de00050378009f
:101f7000860378000800be000a01be00990407002d
:101f8000009fbe000297be00afb197000300e900ba
:101f900024fc2f000f0242000006420024003700fc
:101fa000bfb2970005047800cfc4de0009057800b1
:101fb0008a0578000802be000a03be005fa89700e9
:101fc000efa897007fa997008fb1970090040700b2
:101fd000d0b79f00e1b79f00f2b79f0083bf9f007b
:101fe0002fb097000000e900a0b79f000802be00d4
:101ff0000a03be005fb09700efb097007fb1970073
:102000008fb99700080507005faa970000005200eb
:10201000cfb29700655678005fb09700efb0970099
:102020007fb197008fb99700009fbe000297be0056
:102030003e00be002e01be00d0af9f00e1af9f006a
:10204000f2af9f0083b79f00e00f5000e08f580071
:10205000e00f5900e08f590003003400afb0970043
:102060000100e000ceff3c003fb19700e80f5100b7
:1020700013003a000e1090000038a3001000320048
:10208000afb19700f78f510006003e0024fc2f00ef
:102090000f0242008300420000c3b300914f1000c2
:1020a00007003200afb297008502e900a5b79f0094
:1020b00000c3b30021fc2f008f80400080f07a0025
:1020c000afb1970078811100120f98006e00900058
:1020d00024fc2f000f0242008300420033f9070066
:1020e0001e0990005e089000800f510006003d0020
:1020f00002005000000f98000e1090000040a10058
:10210000001798000f0037000000e0000d003d00b0
:102110000e10900074006000f00f500009003a00ab
:102120007e089000fe009000010050008e08900094
:1021300001005000020050004240a900010034009c
:10214000000f98004f0778004f06be004f05be00f5
:102150004f04be002f03b100000006008001eb0019
:10216000040037008301e80090cf10000400320023
:102170000000e800828f5100faff3a000000eb00f7
:1021800000000600889fbe0080047800668440003e
:1021900000ff2700180060004401de00f07f2000ef
:1021a000800f51000e003a00800ceb0018047800fc
:1021b0006f0064001c003a00210090000000e00065
:1021c00019003a00110090000000e00016003a00eb
:1021d000100020001100e00014003200120037004f
:1021e0000200e00005003c0001007800db01070070
:1021f000000178000000e00008003c00f00028002a
:102200001800600001fe2300010c700020c02f00a8
:10221000800c41000080eb0004003700800ceb00d4
:102220000000eb0001003700200020004f04be003a
:1022300000000600889fbe008a1f78008c9fbe00a9
:10224000000478000206be00e60440001901780090
:102250000200d0004505de008a007800f07f2000f3
:10226000800f55000c003a006f00610065003a00d5
:10227000280090000000e00062003a001800900082
:102280000000e0005f003a00100020001800e000ad
:102290005d0032005b0037000a00e00007003a00f2
:1022a00008007800ad010700800078000000e00021
:1022b000020034000a007800530037006108b900ba
:1022c0000c0140008d814800e07f2000800f51000c
:1022d000e08f59000d0034001900e00004003d00bb
:1022e0006000b8000200200003ff2f000300370049
:1022f0006000b8000200200003ff2700009cbe0021
:102300000294be00100020003f003700e00f510093
:10231000e08f590005003400f0002800190060002b
:10232000c410dd00810c7000340037001900780003
:1023300001002800010360006f0060000040a00061
:10234000800c780061015100e0815900c0fc2f0031
:10235000f1ff2f00800f5100818f59000d003d00cb
:10236000860c78000000eb00200498001004980010
:10237000000c7800240037008880e800110c7800f9
:10238000640044009008780019087800800ceb0085
:1023900070014100f00f4100f7ff34008202ea00b3
:1023a000150032008881e8007082120098007800e1
:1023b0008508de00130078000400dd00008c70004a
:1023c00064014400930078008508de001200780064
:1023d0000400dd0080897000920078008508de002e
:1023e000190078000400dd000089700019007800f1
:1023f0000500de00800c7800990c73000080eb0073
:1024000001003700200020004f06be004f05780075
:102410004f04be00000006000400fa00889fbe00c2
:102420008a9fbe008c1f78000006780092bf9f0034
:10243000a3bf9f000404be000401be001fb89700a4
:10244000afb89700fc0107000005be000001be0008
:102450000800be00980107001fb99700afb99700a8
:102460000000510081805900200698003106980034
:102470000a8ebe000c0078004f0678004f05be00a3
:102480004f04be000080fa00000006000e00fa00b3
:10249000889fbe008a9fbe008c9fbe00000478000b
:1024a00001457800020678008304780084067800ed
:1024b0000300e00002003c00190020002cdd210098
:1024c00060c6b300804f55000e00320060c4b300f8
:1024d000804f55000b00320070c6b300804f55008e
:1024e0000300320070c4b300804f55009c003a00d6
:1024f000e48f46008000350058089000808f560019
:102500007d003d008d05e80060c6b300804f55009a
:102510001000320060c4b300804f55000d0032003f
:10252000081090000038a30004003a0058089000fa
:10253000808f540001003d00590c9800580890000d
:102540000b005000500c980002003b000000eb0014
:10255000500c98000b00e00027003c001809900088
:102560006800900001c3b300017079008201e800a7
:10257000130c9800580890000000e00003003c0095
:10258000081090000038a300050032006800900099
:10259000e1c2b30001f079000280e800100c98005d
:1025a000d80890000b00ea00808f500001003d0029
:1025b0008105ea000b00ea00200c9800018045002c
:1025c000500c9800890f500001003d0080047800f5
:1025d000390c9800680090009808900001004000b5
:1025e000090178008c007800f0f707005808900087
:1025f000090050001a003700980890006800900009
:102600008b8f540018003d00010040000901780044
:102610008c007800e5f7070018089000008144005e
:10262000120c980009805500200c98005808900062
:102630000000e00003003c00081090000038a300f8
:1026400006003200e8009000e0c2b300807079001c
:10265000380890000000e800300c980058089000fe
:10266000400c9800a6003700010040000b017800e4
:102670008c007800cdf70700180890000081450015
:10268000120c98008b845400580890000000e00061
:1026900003003c00081090000038a3000500320041
:1026a00068009000e1c2b300017079000200e80008
:1026b000100c980058089000890f500001003d0050
:1026c00080047800680090009808900001004000a5
:1026d0008b00460009017800b4f707001808900045
:1026e00000804400100c9800580890000900500029
:1026f000200c98008200370070c6b300804f550050
:102700000300320070c4b300804f550014003a003b
:1027100058089000808f540004003d00081090007d
:102720000038a30001003a00590c980058089000a6
:102730000000e900500c980002003b000000eb0094
:10274000500c980070c6b300804f550002003a004c
:102750005ac6b3000b0037005ac4b3000900370053
:1027600010c6b300804f550002003a000ac7b300fc
:102770000400370010c4b300804f550001003a0038
:102780000ac5b30018099000680090003c707900f9
:102790008201e800130c98000c02780058089000a1
:1027a0000000e00003003c00081090000038a30087
:1027b00017003200e8009000e0c2b30080f079001a
:1027c0008280e800110c9800580890000000e0009a
:1027d0000f0034008904e900890f500001003d001a
:1027e00080047800680090000080400009017800b3
:1027f000840078006df707001808900000804400fe
:10280000100c98005808900009005000200c980007
:102810006800900098089000010040000086e800e1
:102820000a587800800078000d00e00004003500b0
:10283000b0c2b300804878008c04780004003700f0
:10284000d0c2b300804878008c0478008d06ea007e
:102850008005eb000a003700a20020008d00780000
:1028600070805700890007000fb897009fb8970045
:102870007a81550001f17f008b05e8008006780021
:102880000d00e000f4ff3c00e18f550009003c0022
:1028900050c6b300804f55000300320050c4b3004f
:1028a000804f550003003a0000c3b300005e78007b
:1028b0008c0478000b00e000040032000b00e900fb
:1028c000fa805700008040000600370000c3b300c4
:1028d000805c7800050037008b05e90002c3b30077
:1028e000a05c41000b00e000fbff3c006800900092
:1028f000980890000100400000805400300c9800bf
:102900000810900074006000f00f50000e003a00b4
:10291000780090009808900001004000a8089000fe
:1029200001004000b808900001004000c808900075
:102930008100400078089000808f500002003d0028
:1029400001005000000c98004f06be004f05be006d
:102950004f04be000080fa0000000600000278006c
:10296000e6024000150078000100280081036000a5
:102970006f006000800a780012003a002400900086
:102980000000e0000f003a00140090000000e0009a
:102990000c003a00160020001400e000380032005d
:1029a00008003700e4004200910a78000480e80043
:1029b0009008780014087800000aeb0070035300b8
:1029c00001003700160020001500e000f5ff32007e
:1029d00013003700640142008000400012007800bc
:1029e0004f00de00808a70008481e8009200780049
:1029f00081804000130078004f00de0000897000e5
:102a00009300780081804000140078004f00de00c1
:102a10008089700014007800000a40000603e90075
:102a200015007800ef0f5000eaff36001000370065
:102a30000481e8009400d100120078004f00dd000e
:102a4000008a7000e40042009201d1001100780079
:102a50004f00dd00008971001101d10015007800e0
:102a60004f00dd0080087100950ad1000603e800e0
:102a700015007800ff0f5000edff3e00ef0a6000e8
:102a8000958a7300060078000000060002027800b4
:102a9000809fbe00110009008200d800000178006c
:102aa0004f00be0002a2b9008480500011009800bf
:102ab0000208780000000600020ab900001bb900f5
:102ac0000200b800810042008100430000000600bf
:102ad00081037800820207000001be006000b80098
:102ae0000478a30013003a006220e10015003e00c4
:102af0000d0039008301d1000281d3008180d30011
:102b00008301d1000281d3008180d3008301d100f1
:102b10000281d3008180d3000538b000c42add00d3
:102b2000f300b2008381720007f0a70003f0a00059
:102b300000000600f3ff2700f2ff2f006110b9002c
:102b4000fbff370003ff2700f7ff37008f1fd1007f
:102b5000780207008f87e9000000e000000006000f
:102b60001400fa00889fbe008a9fbe008c9fbe00a2
:102b70000004be000205be00680047000a90be00c7
:102b80000890be00940207000070a7000bf0a1009f
:102b9000304320009e02900080825200b0fe2f0041
:102ba0000028e10011003d00b0fc2f000028e100ea
:102bb000150034001e0990008e0890007e009000e1
:102bc0000501b0000201d1008180d3000080d30054
:102bd0008502e800fbff3a000b00e000b9023b0071
:102be00060001000e0801800b6023700f0ff2f00f0
:102bf000f1ff27000b00e000b2023b0001002800bb
:102c000000002000af0237006000b800ad023700be
:102c10004f89de0082017800af02370007f0a20082
:102c2000e4023700809feb00420207008f87e90033
:102c30000000e00000000600839f68000100e00043
:102c400002003d0060001000e08018000300e0007a
:102c500002003d0060011100e0811900d70007006b
:102c60004f00e00002003b0060001000e080180010
:102c7000000006002800fa00889fbe008a9fbe0060
:102c80008c9fbe0003866b007a0207000028a30019
:102c900064003a000128a30067003a000008a3007e
:102ca00062003a000108a30065003a001e0090008f
:102cb000be08900081064000ed3fb100f48057004f
:102cc000ee019000111ab8008e099000311bb80077
:102cd0009e099000311cb800511db800f4855700c2
:102ce00046000700fe0190003a0007008b85e800cf
:102cf0003e0007008e09900040000700ee019000a2
:102d0000340007008b85e800380007008e0990002a
:102d1000400007009e0990001b18b800890440007d
:102d20000a854800fe019000340007008b85e8000a
:102d300038000700ee019000300007008e09900077
:102d40001b18b800890440000a8548000a98a300af
:102d500008003a000402420085824a0006034b0044
:102d600087834b0008044c0089844c000a054d0001
:102d70008d06e90084827200850273004c3add0002
:102d8000850272000100320015002000443ade0086
:102d90001400b2004538de00cb45dd000b007000aa
:102da000c540de00cb4ddd008b8070004549de0064
:102db000cb55dd000b017100c551de000d0378001d
:102dc000f902070003f0a1000cf0a70003f0a00037
:102dd0003c0237001b18b8008502400006834800fb
:102de000e0834b0060044c00070037001b18b8005c
:102df0000603400087834800faff37001b18b8001d
:102e00008703400008844800e0844c0060054d00c2
:102e1000000006001b18b800080440008984480020
:102e2000faff37000108a30023023a005800be0051
:102e30005801be00e3ff37000008a3001e023a005d
:102e400009047800f9ff37002800fa00889fbe00c7
:102e50008a9fbe008c9fbe0003866b0005020700a0
:102e60006400e100440032006408e1004a003200de
:102e70006100e100460032006108e10049003200d3
:102e8000ec0647006000b8003d02be003d03be00f6
:102e9000f48657006011b8003d04be003d05be0039
:102ea0007d0320000b0037000000a0008d06e90024
:102eb000130032000402420085824a0006034b00e0
:102ec00087834b00000040008180480002014900d8
:102ed000838149000802520089825a000a035b007c
:102ee0008b835b00f0ff3b000802420089824a00ae
:102ef0000a034b008b834b008d06e900edff3a007f
:102f00008482720086827200f707b20087827200a4
:102f100001003200150020001e0490003e0b9000be
:102f200006035400e63fb0000368a3000700320028
:102f30000000a7000500a0008301d1000281d3009a
:102f40008180d3000080d3000603e8008301d10014
:102f50000281d3008180d3000080d3000002eb0007
:102f60000482d2009002070003f0a1000cf0a70039
:102f700003f0a000d3013700640247006408e100b9
:102f8000cd0132003400be003401be00f6ff370030
:102f90006108e100c80132006011b8006000b800ab
:102fa000f1ff370003ff270002002000fbff37007e
:102fb000020007000400be00000006006022b80006
:102fc000060220000000d0008180d2000482d200de
:102fd0008582d2000000a0000202520083825a00c3
:102fe000030031000202420083824a000000a10077
:102ff0000603e900f3ff3a0000000600881f78008e
:10300000000478005001be004000be0004004000f3
:10301000858048000601490087814900009cbe0068
:103020000294be000400e1000588e1000690e10082
:103030000798e10002003100680044001008e80031
:103040004f04780000000600f4874700889fbe0008
:103050008a9fbe008c9fbe008e1f78000205be00b6
:103060000004be00d4b79f00e5b79f00f6b79f00ed
:1030700087bf9f000000eb00c0b79f00b0b79f0064
:10308000a0b79f0090b79f0080b79f000d0420005d
:10309000bfb097004fb09700000140000000e00073
:1030a0000f003d004f08de0000007100c0b79f0018
:1030b0009e00070001003d0012002000a100070053
:1030c00001003d0012002000a6000700b10007002b
:1030d000b60007000f004000c8ff070022003700bd
:1030e0004f08de0000067100ccb79f008f0007007c
:1030f00001003d00120020009200070001003d0089
:103100001200200097000700a20007000fb29700ee
:103110009fb297002fb39700bfb39700a900070095
:103120000000520081805a0002015b0083815b0035
:1031300080b79f0091b79f00a2b79f00b3b79f00d1
:103140000007eb009f0007000020e10001a8e1005c
:1031500002b0e10003b8e100010031001e002000d0
:103160000e005600c0b79f004fb297000400e00069
:103170000700350010002000010020006011b80099
:1031800008047000898470000a0571008b85710045
:103190008d06e900beff3a000400e00003003d0098
:1031a000820007000f00400094ff07004fa897001f
:1031b0000000e00004003a000fb497009fb49700ad
:1031c0002fb59700bfb59700940007004f07780010
:1031d0004f06be004f05be004f04be004f01b100b8
:1031e00000000600881f780018002000881f780063
:1031f00095ff07008f87e9004f0478000000060064
:10320000801feb0090ff07008f87e9000000060099
:10321000889fbe008a9fbe008c1f78006e0007004a
:1032200007003d0073000700e00f5b00e08f5b00cc
:1032300007003d00320007000006eb0004003700e5
:103240003400070002003d002a0007001c00200097
:1032500072000700e3ff07000203be000002be0089
:103260000c00e00001003200220007000400be0054
:103270000601be004f0678004f05be004f04be0099
:1032800000000600889fbe008a9fbe008c1f780049
:103290005100070005003d0056000700e00f5b00ed
:1032a000e08f5b0006003d000400370019000700b6
:1032b00003003d006000b8006011b8001000070076
:1032c00056000700ceff07000203be000002be004a
:1032d0000c00e00001003200060007000400be0000
:1032e0000601be004f0678004f05be004f04be0029
:1032f000000006006000b8006011b8000000370050
:103300000402500085825800060359008783590043
:10331000000006000006eb00e00f5200e08f5a00ac
:10332000e00f5b00e08f5b000000060001804000c2
:1033300090b79f000001eb008fb097000100e00004
:10334000000006000200700090b79f00018040005e
:1033500080b79f000001eb00ffa897000100e0008c
:10336000000006000200700080b79f00018040004e
:103370006faa9700cf20de0001007000f0af9f0021
:1033800004024200250007004f18de000002720010
:1033900000000600e4af9f000804440089844c004c
:1033a0000a054d008b854d00000006003fb29700d6
:1033b000cfb297005fb39700efb3970000fe2f00e6
:1033c000000006003fb09700cfb097005fb19700b4
:1033d000efb19700000006000205be000004be0029
:1033e000e00f5000e08f5800e00f5900e08f5900c7
:1033f000000006006000b8006011b800080450002a
:10340000898458000a0559008b8559001c0020004a
:10341000e00f5200e08f5a00000006000800be00d6
:103420000a01be0000000600889fbe008a9fbe0001
:103430008c1f78000205be000004be000006eb00f1
:10344000e00f5000e08f5800e00f5900e08f590066
:1034500007003d006000b8006011b800080450008b
:10346000898458000a0559008b8559001c002000ea
:10347000e00f5200e08f5a00e00f5b00e08f5b002e
:1034800002003d000f0007000c00a2000800be0073
:103490000a01be00700107000203be000002be0068
:1034a0000c00e00001003200060007000400be002e
:1034b0000601be004f0678004f05be004f04be0057
:1034c000000006006000b8006011b800040250005f
:1034d00085825800060359008783590000000600c2
:1034e000c70ade00f107b200f50fb2000800320093
:1034f000e1cf4200020032000170a000240005006c
:10350000810f70000100320004080500440005002e
:10351000810f700002003a00140005008502e900e6
:103520000000400081c04800fcff3b000170a0008b
:1035300024000500889fbe008a9fbe008c9fbe00ad
:103540000404be000605be00809fbe00829fbe0030
:1035500063010700040678000800be000a01be00ef
:103560005f010700840678004f03be004f02be00d3
:103570008d4f76007fb0970013003300f0ff2f00cf
:103580008b8f6b0006003b000d0666000c00a70049
:103590000a00370007f0a600100020000a003700dc
:1035a000880f5200898f5a008a0f5b008b8f5b0057
:1035b000030039001000200001003e000000200040
:1035c00007f0a7000000ea004f06be004f05be004e
:1035d0004f04be0000000600800078005002be00cc
:1035e0005003be004439de00f700b200f37f200034
:1035f00003016100090032000218e10016003a00e0
:10360000850172008301730083817300000820002c
:1036100015003a00400020001300370085017200b9
:10362000830173008381730005003a0004a8be0083
:1036300006a8be00100020000b0037000201e900c0
:103640000402420085824a0006034b0087834b0038
:103650000748a300f9ff32000740a00004a8be00fd
:1036600006a8be002000200080009800920098006c
:1036700000000600680447000294be000094be00eb
:10368000fc0447008694be008494be0009007800c4
:10369000d1ff070008007800cfff070099007800ed
:1036a000814f70000b003b000800be001e010700a8
:1036b0004f00b10003003700f3ff2700f2ff2f0097
:1036c0006110b9004f06be004f05be004f04be009a
:1036d0000080fa0000000600889fbe008304780086
:1036e0000300e0002c00350003003c000082700065
:1036f000040271002600320036432000c50020007d
:103700008383cf000a0039000541b1008283cf00d6
:10371000070039000541b1008183cf000400390062
:103720000541b1008083cf00010039000541b1009f
:1037300085c353006022b800120032000a003b002b
:1037400084827200610260008301d1000281d30093
:103750008180d3000080d3000603e8008743e8009f
:10376000f7ff3a0007003700000040008180480062
:1037700002014900838149000603e9008743e9000b
:10378000f9ff3a008800070009f0a70003f0a00045
:103790004f04be000000060060001000e08018002a
:1037a00060011900e0811900d3ff3b00033e2c00ab
:1037b000f7ff37002800fa00889fbe008a9fbe00ee
:1037c0008c9fbe0007067800878669000c003b00ce
:1037d000030478008704780008f0a10009f0a10034
:1037e000840f5000858f5800860f5900890f5c00a8
:1037f000030033000cf0a20001003a000cf0a1001d
:103800009cff07006400e1005f0032007801470080
:103810006408e100610032006c01470074855700c4
:103820003200be001201be003a04be001a05be00fe
:103830001e039000be0a90008503530006003d0061
:103840000004fd008104fd000205fd008305fd006c
:103850008703ea00050378000df8a3000400320096
:1038600060041400e0841c0060051d00e0851d005c
:103870006022b8007d0320000d38e1008006eb00d7
:103880000b0039004433dd00f300b2008301730004
:1038900039003700848272000d027800e10664006e
:1038a0008b85d1000a85d3008984d3000884d30096
:1038b0008703e900f7ff3b000800400089804800cb
:1038c0000a0149008b81490004003b0060001000a0
:1038d000e080180060011900e08119000358a3007e
:1038e000090032008d8272008482720061026000e1
:1038f0008301d1000281d3008180d3000080d300f6
:103900000603e8001b0037000348a30017003a0035
:103910000600e000170034000603e9000d00a300d4
:10392000000048008180480002014900838149006d
:103930000348a3000f003a000600e000090034002d
:103940000603e900000040008180480002014900b0
:103950008381490001003a000003eb000348a30003
:10396000f5ff32006022b800020037008482720046
:10397000618266000c00070003f0a1000cf0a700b4
:1039800003f0a0004fff3700640147006408e10026
:1039900002003a000df8a30047ff3a003200be00d3
:1039a0001201be0047ff370018002000570020001a
:1039b000080453000d003d000600200097fc2f0076
:1039c0000740e1001e003400848272006102600042
:1039d0008301d1000281d3008180d3000080d30015
:1039e0000804e800f8ff3a00470020006104600086
:1039f00005047400040464000d00320061004000fe
:103a0000e080480060014900e081490003b8a5005a
:103a1000070032000603e8006538e10004003a00c0
:103a20008301d1000281d3008180d3000080d300c4
:103a3000f87f20000830e10003003500080378001b
:103a40006000b8006011b8004433dd00f300b2003c
:103a50008301730000000600889fbe008a9fbe009d
:103a60008c9fbe000404b8000506b8008904460017
:103a700060854e000606b8000a054600e0854e0047
:103a80000706b8008b054600040eb80089044600fe
:103a90000a854e00e0854d00050eb8000a05460077
:103aa0008b854e00060eb8008b0546000416b80044
:103ab0000a0546008b854e000516b8008b054600aa
:103ac000041eb8008b0546000800be000a01be00b7
:103ad0004f06be004f05be004f04be0000000600aa
:103ae00005ff270005826100070032000428e1007d
:103af00001003200240005000600070001003a0022
:103b0000440005000408050002000700f9ff3a0020
:103b1000140005006f82610081027000850271004f
:103b20008502720000000600e48240001078a300c5
:103b300007003200640240001178a3003400be0088
:103b40001401be00040032000330a700000006008c
:103b50003500be001501be000330a00000000600c5
:020000040000fa
:0200000401f009
:04000c00f8ff0000f9
:020000040000fa
:0200000401f009
:040010007fff00006e
:020000040000fa
:0200000401f009
:040014007fff00006a
:020000040000fa
:100008003836000038360000383600003836000030
:100018003836000038360000383600003836000020
:10002800c83500003836000038360000ca330000f2
:100038003836000038360000383600003836000000
:1000480038360000383600003836000038360000f0
:1000580038360000383600003836000038360000e0
:1000680038360000383600003836000038360000d0
:1000780038360000383600003836000038360000c0
:1000880038360000383600003836000038360000b0
:1000980038360000383600003836000038360000a0
:1000a8003836000038360000383600003836000090
:1000b8003836000038360000383600003836000080
:1000c8003836000038360000383600003836000070
:1000d8003836000038360000383600003836000060
:1000e8003836000038360000383600003836000050
:1000f8003836000038360000383600003836000040
:10010800383600003836000038360000383600002f
:10011800383600003836000038360000383600001f
:10012800383600003836000038360000383600000f
:1001380038360000383600003836000038360000ff
:1001480038360000383600003836000038360000ef
:1001580038360000383600003836000038360000df
:1001680038360000383600003836000038360000cf
:1001780038360000383600003836000038360000bf
:1001880038360000383600003836000038360000af
:10019800383600003836000038360000383600009f
:1001a800383600003836000038360000383600008f
:1001b800383600003836000038360000383600007f
:1001c800383600003836000038360000383600006f
:1001d800383600003836000038360000383600005f
:1001e800383600003836000038360000383600004f
:0801f800383600003836000023
:020000040000fa
:10020800383600003836000038360000383600002e
:10021800383600003836000038360000383600001e
:10022800c83500003836000038360000ca330000f0
:1002380038360000383600003836000038360000fe
:1002480038360000383600003836000038360000ee
:1002580038360000383600003836000038360000de
:1002680038360000383600003836000038360000ce
:1002780038360000383600003836000038360000be
:1002880038360000383600003836000038360000ae
:10029800383600003836000038360000383600009e
:1002a800383600003836000038360000383600008e
:1002b800383600003836000038360000383600007e
:1002c800383600003836000038360000383600006e
:1002d800383600003836000038360000383600005e
:1002e800383600003836000038360000383600004e
:1002f800383600003836000038360000383600003e
:10030800383600003836000038360000383600002d
:10031800383600003836000038360000383600001d
:10032800383600003836000038360000383600000d
:1003380038360000383600003836000038360000fd
:1003480038360000383600003836000038360000ed
:1003580038360000383600003836000038360000dd
:1003680038360000383600003836000038360000cd
:1003780038360000383600003836000038360000bd
:1003880038360000383600003836000038360000ad
:10039800383600003836000038360000383600009d
:1003a800383600003836000038360000383600008d
:1003b800383600003836000038360000383600007d
:1003c800383600003836000038360000383600006d
:1003d800383600003836000038360000383600005d
:1003e800383600003836000038360000383600004d
:0803f800383600003836000021
:020000040000fa
:103b6000546500006d700000526500006164000043
:103b70000044000069730000706c0000617900006f
:103b8000496e0000666f0000004d00006f64000089
:103b9000203a00002000000041550000544f000072
:103ba0004d410000540000004d4100004e55000002
:103bb000414c000000540000656d000070200000c2
:103bc0003a2000000025000064000000537400004b
:103bd0006172000074530000746f000070000000f8
:103be0001111000022220000333300004444000081
:103bf0005555000066660000777700008888000051
:103c000099990000aaaa0000bbbb0000cccc000020
:103c1000dddd0000eeee0000cecd0000acab00001c
:103c20000202000003030000040400000505000078
:103c30000606000007070000080800000a09000047
:103c40001010000010110000121200004944000082
:083c50004c45000000000000db
:020000040000fa
:103c5800889fbe008a1f780000057800c30a070005
:103c680080e880008a0f50001f0032000a00e00040
:103c78001e0032000a0478008884e80009007800f1
:103c88000e0b0700280890000000e0000200320038
:103c98006c004400090b07008900780020c7210048
:103ca800d80a0700623cec00643cec00b20a07004a
:103cb800601ce200020032000a00e000030032004b
:103cc8004f0578004f04be00000006008a34020049
:103cd80000000000000000004f0578004f04be00ff
:103ce80000000600f9ff37000005eb0088e88000b7
:103cf800e1ff37005a3cec0000000600889fbe0038
:103d08008a9fbe000005780081047800e38f500088
:103d18000100360039002000940a070080e880007e
:103d28008a0f5000290032000a00e0002800320003
:103d38000a047800b8089000818f540012003200fd
:103d480015003e000a00e000150032000005eb00f7
:103d5800390c980064801400600498006a08b9005f
:103d6800e9c921000080440058019000800f5100eb
:103d780019003200e10f550003003a008a340200ae
:103d880000000000000000007b0a07004f05be008d
:103d98004f04be00000006000a00e000ebff3200fe
:103da8001a002000390c9800648014006004980000
:103db8006a08b900e9c92100008044005801900050
:103dc800800f5100ebff3a00030037000005eb00bd
:103dd80088e88000d7ff37008885e8000b00780066
:103de800b60a0700b8089000c0e28000808f500033
:103df80005003e006a08b900008044008b00780086
:103e0800800a0700dbff3700c1e288006a08b900b2
:103e1800008044008b0078007a0a0700d5ff37003d
:103e2800889fbe008a1f7800800478004f0a070028
:103e380080e88000890f50001b0032000900e00074
:103e48001a003200090478000885e8000a007800a2
:103e58009a0a0700280890000000e00002003200db
:103e68006c004400950a07008a00780080c621008b
:103e7800640a0700400a07000900e0000300320056
:103e88004f0578004f04be00000006008a34020087
:103e980000000000000000004f0578004f04be003d
:103ea80000000600f9ff37008004eb0088e8800076
:103eb800e5ff370000017800d000900080c621009f
:103ec800808f5000020032000000eb000000060066
:103ed800a2089000c0c72100808f5000faff32006e
:103ee800100020000100e000f8ff32000000eb00a5
:103ef800f6ff3700889fbe00000478000000e0004d
:103f08000900320080e88000800f5400060032006b
:103f1800160a070008007800e6ff0700e10f5000c6
:103f280003003200140a07004f04be000000060018
:103f38008884e80009007800600a0700b808900043
:103f4800c0e28000808f500001003600c1e2880086
:103f58006a09b900e0c92100020040008900780020
:103f6800280a070080e88000b80890003008900010
:103f7800808f5000ebff39008a34020000000000f7
:103f880000000000fc090700e7ff3700889fbe001b
:103f98008a1f780000047800c6ff07000001780037
:103fa8000005eb00e10f5000040032000a00780021
:103fb8004f0578004f04be0000000600d1e28000e3
:103fc8000100e00017003a0080e880000105780051
:103fd800b808900030089000808f50002000310011
:103fe8008884e80009007800340a0700b8089000bf
:103ff800c0e28000808f500012003e006a09b900bc
:10400800e0c921000200400089007800fd0907008e
:104018000a0078004f0578004f04be000000060033
:10402800e6ff3700ec004400c0c72100f50907008f
:10403800000020004f0578004f04be000000060075
:10404800deff3700c1e288006a09b900e0c9210033
:104058000200400089007800ea090700ecff3700f9
:10406800020578008884e80009007800130a070030
:10407800b8089000c0e28000808f5000dfff360053
:10408800f0ff370042a0a800603cef00b6093700f7
:10409800889fbe008a1f78005a1ce20013003a006d
:1040a800543cec00541ce2001500320040e480004f
:1040b8001000e0000a00320040e480003000900068
:1040c80030009000000478000000e0000400320096
:1040d800a1e2800010009000810f5000110036000e
:1040e8004f0578004f04be00000006005c3cec0061
:1040f8004f0578004f04be0000000600fbff3700a4
:1041080040e4800031e4800041e4880030e4880025
:10411800563cec0040e480001000e000e6ff3a0066
:10412800efff3700eac921008884e8000900780019
:10413800e2090700280890000000e00002003200b1
:104148006c004400dd090700b8089000c0e2800058
:10415800808f500001003600c1e288006a08b9006b
:104168000000450089007800a609070040e48000a7
:104178001000e000daff320040e4800030009000d8
:10418800300490000800e000d5ff3200a1e2800072
:1041980018009000810f5000e3ff36004f057800ab
:1041a8004f04be0000000600d0ff3700889fbe0005
:1041b8008a1f78006d0907005a3ced00d0e28000a4
:1041c8000000e00033003a005e1ce20031003200db
:1041d800000578007c1ce2001b00320010e480001f
:1041e800300490000800e000170032006c00440022
:1041f800b20907008884e80009007800af090700c1
:10420800b8089000c0e28000808f5000010036009e
:10421800c1e288006a09b900e0c921000200400033
:10422800890078007709070080e88000b8089000c6
:1042380030089000808f5000e6ff39001a002000f7
:104248007c1ce200e5ff3a005c1ce2000c00320036
:104258005c1ce20016003a00523cef008a3402006f
:1042680000000000000000001800200042090700bc
:10427800080078004f0578004f04be0000000600d3
:10428800e10f5500f4ff320090e28000e10f50008a
:10429800f1ff32000004eb0037090700080078003e
:1042a8004f0578004f04be0000000600f4ff3700f9
:1042b80077ff07005c3ced005c1ce200e6ff320083
:1042c80073ff07005c3ced005c1ce200f8ff3a005d
:1042d800e1ff3700889fbe00800478000000e000fe
:1042e80005003a008a3402000000000000000000c7
:1042f8004f04be00000006007efe0700a8e2800012
:1043080008844400109dec006c09070080e88000d8
:1043180018009800a0e28000800f54000b003900bc
:1043280081e8800040e480008180e80040090700bf
:104338009eff07000000e000edff3a008a3402000b
:104348000000000000000000e9ff370081e880005d
:1043580030e480008180e8003509070093ff0700fa
:104368000000e000f5ff3200e1ff3700889fbe0043
:1043780080047800010478005efe07009900780048
:1043880008844000a0e28000808f50000e003600b4
:10439800888f50000e003e000000eb00880c78006b
:1043a8000000e00011003a0080ff07000000e00074
:1043b80003003a008a3402000000000000000000f8
:1043c8004f04be0000000600888f500003003e0026
:1043d800a0e28000800f5400efff3600100020009c
:1043e800880c78000000e000efff3200109dec0020
:1043f8003209070080e8800018009800a0e28000d9
:10440800800f54000500390081e8800040e48000f6
:104418008180e80006090700e3ff370081e8800093
:1044280030e480008180e80001090700deff3700e2
:10443800881f7800cd080700a8e28000ce08070092
:10444800080078004f04780000000600f0e28000c1
:10445800000006005a1ce200030032001000200091
:1044680090e2880000000600c0e280006a00b900ff
:10447800e2c92100620078000000e00006003a006e
:10448800583ced00c0e280006a00b9006200780084
:104498000000e000faff3200c0e280006a00b900c4
:1044a80000014100920090009100900011019800d5
:1044b80064004100808f500003003200b10090007a
:1044c80081e8880000000600910090001101980022
:1044d800b100900081e8880000000600881f78007d
:1044e8000104780081e88000ec804000d0080700d3
:1044f800109dec00f1080700e10f440014003200a1
:10450800a0e280000000440081e88000900098004c
:10451800a1e28000810f50000600390081e8800088
:1045280040e480008180e800c10807004f0478005b
:104538000000060081e8800030e480008180e80007
:10454800bb0807004f04780000000600f9ff370099
:1045580081e880008180e80080c62100a908070062
:104568004f04780000000600f2ff3700889fbe0065
:10457800900078000100e00020003a0081047800f3
:104588006c84440008007800cc0807005a1ce2003c
:1045980016003a000984e80008007800c7080700f8
:1045a800b9089000c0e28000808f500016003e00dd
:1045b8006a09b900e0c921000200400088007800bb
:1045c8009008070080e880000001eb00b90890001f
:1045d80030089000808f5000010039001200200040
:1045e800020078004f04be00000006008800780032
:1045f800c0c7210083080700f2ff37003000900091
:10460800b0049000deff3700c1e288006a09b900f3
:10461800e0c92100020040008800780079080700fe
:10462800e8ff3700b1e2800001087800a1e28000cd
:104638001100980000000600889fbe008a1f7800bd
:104648000004780001057800480807001a0178007e
:104658008004eb00e10f41000c003200b0e2800062
:10466800980f10001a003200a0e280009800900015
:10467800808f50000400360001007800541cb500fb
:10468800800f510006003e00190020003a0807007c
:10469800090078004f0578004f04be0000000600ae
:1046a80001007800541cb500000d51000800780086
:1046b800dcff07008004eb002f08070009007800e2
:1046c8004f0578004f04be0000000600f4ff3700d5
:1046d8009800900001007800541cb500800f51002c
:1046e800e9ff3600eeff37001000200090e2880056
:1046f80000000600881f7800621ce20008003a00eb
:10470800f0e48000e10f5000fbff36008a3402001d
:104718000000000000000000621ce200f8ff320008
:1047280074fd070098e38000a0fe07000800e00081
:10473800f3ff32000d08070090e380000000e0005e
:104748000b003a00000478000880e8005b080700c6
:104758005e3ced00623ced00070807004808900049
:10476800fa08070008007800f8080700e4ff370097
:10477800c0e38000300490000880e8004f0807007c
:104788005e3ced00623ced00fb0707004808900026
:10479800ee08070008007800ec080700d8ff37008b
:1047a800e6874700889fbe008a9fbe008c9fbe0098
:1047b8008e1f7800f0b79f0081057800020478000a
:1047c800830678000406780085bf9f008604780079
:1047d80000022000c2080700000578000080eb00f6
:1047e8000a00e0004f0032000900e0008c003200af
:1047f800490d980090003200080444000801780030
:10480800510a2000090078006def0700ca0c9000db
:10481800088444000884e900780d98007a0045006f
:10482800420020008b0078006cef07000040eb008e
:10483800505d9800300020001b002000800f5600bb
:104848003e003600300d98000a87e8000e00780018
:10485800e90707006c04450008007800e607070030
:104868004a0598000b0c78001a0d98000d01780085
:10487800ffb09700090078007a070700000d78005c
:10488800ba0707005e3cec00f0e28000e10f500040
:1048980049003200ebc92100601ce20004003a0024
:1048a80080e8800030089000800f56005a003100e0
:1048b800ba08900030e38000808f50000100360075
:1048c80031e38800643cec00c0e28000808f500037
:1048d80001003600c1e288006a08b900008045007e
:1048e8008e007800c7070700a30707000fb89700d6
:1048f8000000e000010032000a087800601ce200b5
:104908002500320080e88000300890008c0f5000ad
:10491800210031008a34020000000000000000007d
:10492800100020004f0778004f06be004f05be005c
:104938004f04be006f00b10000000600e405160039
:104948000c007800300d98000a87e8000e00780007
:10495800a90707006c04450008007800a6070700af
:104968004a0598000b0c78001a0d98000d01780084
:10497800ffb09700090078003a070700000d78009b
:104988007a0707005e3cec00f0e28000e10f50007f
:10499800c0ff3a0008003700100020004f077800d9
:1049a8004f06be004f05be004f04be006f00b100a9
:1049b80000000600e1ff37008ae88800ebc9210003
:1049c8000b04780069cc21000800780083070700f1
:1049d8006a044400888f5400fbff3a0040c9210054
:1049e8007e070700a0c821007c070700c0c7210078
:1049f8007a07070020c721007807070080c6210032
:104a08007607070040c9210040e48800a0c82100bb
:104a180030e48800a6ff37008ae88800a4ff370042
:104a2800080044002e08070080047800490d98000b
:104a38000900e00070ff3a000a0078004308070008
:104a48000080eb004f0778004f06be004f05be0000
:104a58004f04be006f00b10000000600b7ff37002a
:104a68008003eb000003eb00860278000602780062
:104a7800860178009206200061e22900e0372200d2
:104a880047ff0700e10f5000010032000000060058
:104a980042a0a80000e38800543cef000507370057
:104aa800889fbe008a9fbe008c1f78008004780013
:104ab800010578000000e00005003a000000200031
:104ac8004f0678004f05be004f04be0000000600e8
:104ad8006002200002080700000478000000e000df
:104ae800f6ff32000ac8b900000678000000e800a6
:104af800fb07070080057800000c78000000e00044
:104b0800180032000c004000100498000000eb0070
:104b1800600c98002b0498000900e90000d0b90047
:104b28000080450030049800790c98000a14980019
:104b38000080eb00101498002014980068004400ce
:104b480026070700720044002407070008007800c1
:104b58004f0678004f05be004f04be000000060057
:104b6800dbff370008007800f80707000b00780023
:104b78004f0678004f05be004f04be000000060037
:104b8800d3ff3700889fbe0000047800f7060700af
:104b9800e80890008004eb0078089000808f5000af
:104ba80004003200f4060700090078004f04be0034
:104bb8000000060019002000ef0607000900780031
:104bc8004f04be0000000600faff3700881f780077
:104bd80000047800e5060700680c9000e606070068
:104be800080078004f047800000006006008900074
:104bf80000000600881f7800000478001000780084
:104c0800d207070008007800d00707004f04780093
:104c180000000600881f7800000478000200780071
:104c2800081190000200e0000d0032000000e000d2
:104c380010003200380090005aee0700380090004b
:104c4800881090000100500030049800980f500020
:104c58000300310018009000010050003004980053
:104c6800680890000000e800600c98004f04780085
:104c780000000600280090004aee07002800900077
:104c880088109000010040002004980098009000cf
:104c9800810f5000f2ff39001800780020049800b6
:104ca800680890000000e800600c98004f04780045
:104cb80000000600efff3700889fbe000004780060
:104cc800010278008204780003017800e00890006f
:104cd800700890008001eb00808f500003003900bd
:104ce800030078004f04be0000000600840078002e
:104cf80008007800c7ff070028109000e10f400067
:104d0800060032000000e80020149800100020007f
:104d18004f04be0000000600f4ff3700180890009a
:104d28000000e00004003a00100020004f04be001c
:104d380000000600edff3700720044000bfe07007c
:104d48000000e000f8ff320010002000800c78001e
:104d5800000078004f04be0000000600e3ff3700a3
:104d680080017800010278001000e0000b0032009a
:104d7800300090000311900002004000b00198003c
:104d880093009000810f500005003100e68141003a
:104d9800930078000400780002ee07000000060087
:104da80013007800b0019800e68141009300780074
:104db80004007800fbed0700f8ff3700889fbe006d
:104dc8000004780082047800600890000000e00089
:104dd80002003a004f04be000000060008007800f8
:104de800dfff0700680890000000e900600c9800e9
:104df80018109000e10f4000060032000000e800a3
:104e080010149800100020004f04be000000060097
:104e1800f2ff3700480090000000e00004003a006c
:104e2800100020004f04be0000000600ebff370012
:104e380068004400cdfd07000000e000f8ff3200e4
:104e480010002000800c78004f04be00000006000f
:104e5800e2ff3700889fbe00000478004306070081
:104e6800281090000000e0000300340018089000ab
:104e78000000e00021003a000080eb0020149800b8
:104e88003d06070039060700181090000000e000f2
:104e980003003400480090000000e00005003a00dc
:104ea8000080eb0010149800330607004f04be0082
:104eb80000000600e804440009007800abfd070084
:104ec8000000e0000b003a00181090000000e90014
:104ed800101498004240a900f1ff34001900e000c6
:104ee800efff320009007800a0fd07000000e00095
:104ef800f5ff3200fcfd0700f3ff3700f204440021
:104f08000900780099fd07000000e0000b003a0056
:104f1800281090000000e900201498004240a900e1
:104f2800d5ff34001900e000d3ff320009007800f3
:104f38008efd07000000e000f5ff3200eafd0700e3
:104f4800f3ff37000600fa00889fbe008a9fbe0064
:104f58008c1f78008004780081057800a2bf9f002c
:104f6800030678000005eb0000060700690c9000b6
:104f78000800e00028003a002fb897000000e00081
:104f88005a0032000a00e00034003200fa05070037
:104f980058fb0700f505070019109000e10f4000c5
:104fa8004900320029109000e10f4000350032001e
:104fb800f1050700ec805700708057009efd070040
:104fc8000000e00036003a00e8050700690c900090
:104fd800e90507000800e00040003a00afb8970074
:104fe800728044003dfd07000900780099ff070022
:104ff8006efc07000000e000dbff3a008a34020084
:105008000000000000000000d8050700690c9000af
:105018000800e000d8ff3200390490008b007800c7
:10502800090078004eff07000c00e000370032004e
:10503800b8049800190890000000e00043003a0006
:10504800cd050700100020004f0678004f05be0070
:105058004f04be000080fa00000006007080570070
:1050680070fd07001a002000c305070021fb070098
:10507800be05070019109000e10f4000c9ff3a0073
:1050880011003700a8149800bb050700ec805700f2
:105098007080570068fd07000000e000caff32007a
:1050a800090078006bff070040fc07000000eb00d8
:1050b8004f0678004f05be004f04be000080fa007e
:1050c80000000600e5ff37009814980029109000aa
:1050d800e10f4000b6ff3a00eaff37000900780008
:1050e8005cff070031fc07009fff3700a20507009f
:1050f800080078004f0678004f05be004f04be0038
:105108000080fa0000000600d4ff3700690890000c
:105118000000e900e00c9800490090000000e00061
:10512800c7ff32006880440010fd0700e10f5000ff
:10513800c3ff3a008a3402000000000000000000ab
:105148008d05070010002000bfff37007280440063
:1051580006fd07000000e000f6ff3a00860507009c
:1051680010002000b8ff37000600fa00889fbe0034
:105178008a9fbe008c1f78008004780001067800a2
:10518800a2bf9f00830578000005eb0077050700a4
:10519800e908900079089000808f500028003900b5
:1051a8002fbc97000800e000590032000a00e00018
:1051b8003100320070050700cefa07006b050700c2
:1051c80019109000e10f40004700320029109000ac
:1051d800e10f40003200320067050700ec805700fd
:1051e8007080570014fd07000000e00034003a000a
:1051f8000900780063fe07000000e000400032006c
:10520800afb8970068804400b4fc07000900780034
:1052180010ff0700e5fb07000000e000dbff3a0095
:105228008a34020000000000000000004f0507005b
:10523800e908900079089000808f5000d8ff31006d
:105248000b0178008c0078000900780071fe0700d7
:10525800190890000000e00035003a0046050700f4
:10526800100020004f0678004f05be004f04be0016
:105278000080fa000000060070805700e9fc070073
:105288001a0020003c0507009afa070037050700b6
:1052980019109000e10f4000ccff3a0012003700cf
:1052a8000000eb00a014980033050700ec805700bd
:1052b80070805700e0fc07000000e000ccff3200df
:1052c80009007800e3fe0700b8fb07000000eb00c8
:1052d8004f0678004f05be004f04be000080fa005c
:1052e80000000600e4ff37000000eb00901498006f
:1052f80029109000e10f4000b7ff3a00e8ff37009f
:1053080009007800d3fe0700a8fb07009fff3700bd
:1053180019050700080078004f0678004f05be0001
:105328004f04be000080fa0000000600d2ff3700dc
:10533800728044008dfc0700e10f5000c7ff3a005f
:105348008a34020000000000000000000a0507007f
:1053580010002000c3ff3700e00890000100ea00b9
:10536800010070004f00de00610010000000060020
:10537800e00890000001eb0070089000808f50005a
:105388000200320002007800000006001000200031
:1053980000000600fdff3700889fbe008a1f7800c6
:1053a80000047800010578008204780042a0a80073
:1053b800f4fd0700000178000000e000070032005b
:1053c8000900e00025003a0042a0a9000900780081
:1053d8004f0578004f04be000000060042a0a90057
:1053e8000000000042a0a800e8089000780890009b
:1053f800808f5000070039008200780042a0a90081
:10540800010078004f0578004f04be000000060038
:10541800f2ff37008a00780008007800fdfd0700d9
:10542800180890000000e00004003a001100200075
:1054380042a0a90001007800f2ff37007200440082
:105448003d030700b1ff2f000000e000f7ff320026
:1054580042a0a90001007800eaff3700e8004400f4
:10546800090078002b02070042a0a900c0ff2f0006
:105478004f0578004f04be0000000600d7ff370034
:10548800881f7800000478008101780042a0a800f5
:10549800600890000000e00006003a000200e0000a
:1054a80039003a0042a0a900020078004f047800b1
:1054b8000000060042a0a9000000000042a0a800c9
:1054c800680890000000e0001700320038009000e3
:1054d80008119000020040003004980098009000e5
:1054e800810f500014003100680890000000e900a6
:1054f800600c980066004400900078000300780073
:1055080028ec0700480090000000e00016003a0070
:105518001100200042a0a900010078004f04780083
:1055280000000600e3ff37008000780042a0a900d1
:1055380001007800f9ff370018007800300498005f
:10554800680890000000e900600c980066004400bc
:10555800900078000300780012ec070048009000e3
:105568000000e000eaff320068004400f202070091
:10557800b1ff2f000000e000e5ff320042a0a900c3
:1055880001007800e5ff3700f200440002007800cf
:10559800e001070042a0a900c0ff2f004f047800d7
:1055a80000000600c3ff3700889fbe000004780093
:1055b8008101780082047800e0089000700890006b
:1055c800808f500003003900090078004f04be00a6
:1055d800000006000001eb00830078000800780056
:1055e8008cfd07000900e000f7ff3a00180890005a
:1055f8000000e00004003a00000020004f04be0054
:1056080000000600f3ff370072004400ca020700da
:10561800110020000000e000f7ff320001007800d0
:105628004f04be0000000600eaff3700889fbe0056
:1056380000047800810178008204780060089000f6
:105648000000e000190032003800900008119000b6
:10565800020040003004980098009000810f50002c
:1056680018003100680890000000e900600c9800fc
:10567800660044009000780003007800c9eb07003a
:105688001900e0000b003a00480090000000e0001c
:105698000800320068004400a70207000000e0008c
:1056a8000400320010002000800c78004f04be0077
:1056b80000000600100020004f04be000000060095
:1056c800fcff370018007800300498006808900044
:1056d8000000e900600c9800660044009000780023
:1056e80003007800afeb07001900e000e6ff320086
:1056f800f0ff37000000e000270034008000eb00d6
:105708000000000000000000000000000000000091
:105718000000000000000000000000000000000081
:105728000000000000000000000000000000000071
:105738000000000000000000000000000000000061
:105748000000000000000000000000000000000051
:105758000000000000000000000000000000000041
:105768000000000000000000000000000000000031
:105778000000000000000000000000000000000021
:105788000000000000000000000000008100e800a8
:10579800810f5000daff3a0000000600889fbe0023
:1057a800800478000000e00002003c004f04be00c6
:1057b800000006000004eb00803e2000cdff07003b
:1057c8000804e800888f5400f8ff3200803e20006b
:1057d800c8ff07000804e800888f5400f6ff3a0065
:1057e800f2ff37004c00dd00ca22b70000000600b7
:1057f8004c00dd00f1ff200001007000ca22b60055
:10580800000006000000eb00f6ff0700cb22a8000e
:1058180080022000b7ff0700cb22a9000080eb0020
:10582800f3ff070010002000eeff0700cb22a800be
:1058380020002000d9ff0700cb22a900e0ff2f009d
:10584800ebff3700889fbe008004fb0044ccde00dd
:1058580008007800e3ff0700cb62a80010002000d2
:10586800a4ff0700cb22a80080022000a1ff0700a8
:10587800cb22a900080078000080ea008180ea00b5
:10588800dbff07006f84640008007800d5ff07007d
:105898001000200097ff0700cb22a80080022000fc
:1058a80094ff0700cb22a900cb62a900080078006a
:1058b8000080ea008180ea00cdff07008002200016
:1058c8008cff07004f04be0000000600889fbe0042
:1058d800c1cfb30009fc2f00e20f50000b003200cb
:1058e8002200340091cfb30049f92f00e30f500094
:1058f80006003200d1cfb30049fd2f00e40f50005d
:10590800020032008040eb008004eb000104fb0041
:1059180008007800b3ff0700cb22a8004001200050
:1059280074ff0700cb22a900080078000080ea0075
:105938008180ea00aeff07006f84640008007800e9
:10594800a8ff0700cb22a8004001200069ff07003c
:10595800cb22a900080078000080ea008180ea00d4
:10596800a3ff07004f04be0000000600e10f50002f
:10597800e4ff3a0081cfb30009f82f000104fb00cf
:105988000800780097ff0700cb22a80040012000fc
:1059980058ff0700cb22a900080078000080ea0021
:1059a8008180ea0092ff07006f8464000800780095
:1059b8008cff0700cb22a800400120004dff070004
:1059c800cb22a900080078000080ea008180ea0064
:1059d80087ff07004f04be0000000600e3ff370002
:1059e800800220006dff0700200020007dff0700d7
:1059f800cb22a800800220003eff0700cb22a9008e
:105a0800d0ff2f007aff07002000200075ff070055
:105a1800cb22a8008002200036ff0700cb22a90075
:105a2800d0ff2f0072ff0700800020006dff0700e5
:105a3800cb22a800800220002eff0700cb22a9005d
:105a480070ff2f006aff07000000eb0065ff0700ea
:105a5800cb22a8008002200026ff0700cb22a90045
:105a68000080eb0062ff0700e00020005dff0700f8
:105a7800cb22a800800220001eff0700cb22a9002d
