:020000040000fa
:080000000002040000000000f2
:020000040000fa
:100400000fd02100007f24000001880000000000c0
:100410000c00070080572100010020001100070098
:10042000000020000000e000020032000000020096
:1004300000000000a6120200000000000040da00e8
:100440000000fe004440a900c00420000000e000bd
:100450000300320000002000a00188004440a800f2
:100460000000060091018800800078000000eb0089
:1004700015003700e280400032a0b4009101ba00bc
:10048000e280400032a0b4009102ba00e280400055
:1004900032a0b4000002eb00472bde00f507b200eb
:1004a000602ce10004003a000059eb008301e900f0
:1004b000fdff3e00040037006128e100010032002a
:1004c0000082eb00040007001101ba000200e00006
:1004d000e8ff3a00000006003159ba008301e90044
:1004e0000c0032002159ba008301e90008003200f3
:1004f0000400e00003003a00e280400032a0b400b3
:10050000f5ff370011d9ba008301e900faff3a007c
:100510008100e800e180400032a0b4000000060045
:1005200028120400000000003a120400000000003d
:100530004c120400000000005e12040000000000e5
:1005400032080400000000008001eb0002003700c8
:1005500061f079008301e800828f5100fcff3a00ce
:10056000000006008001eb00020037008171780076
:100570008301e800828f5100fcff3a000000060072
:1005800000037800800178000002eb0001003700d2
:100590008059780084025100820f52000900320015
:1005a00064c078000402e8000004e000f8ff3a00ac
:1005b000830078008058eb0005804100808f500058
:0c05c000fcff3a00060078000000060076
:020000040000fa
:0200000401f009
:04000c00f8ff0000f9
:020000040000fa
:0200000401f009
:040010007fff00006e
:020000040000fa
:0200000401f009
:040014007fff00006a
:020000040000fa
:10000800aa150000aa150000aa150000aa150000ec
:10001800aa150000aa150000aa150000aa150000dc
:10002800aa150000aa150000aa1500008a130000ee
:10003800aa150000aa150000aa150000aa150000bc
:10004800aa150000aa150000aa150000aa150000ac
:10005800aa150000aa150000aa150000aa1500009c
:10006800aa150000aa150000aa150000aa1500008c
:10007800aa150000aa150000aa150000aa1500007c
:10008800aa150000aa150000aa150000aa1500006c
:10009800aa150000aa150000aa150000aa1500005c
:1000a800aa150000aa150000aa150000aa1500004c
:1000b800aa150000aa150000aa150000aa1500003c
:1000c800aa150000aa150000aa150000aa1500002c
:1000d800aa150000aa150000aa150000aa1500001c
:1000e800aa150000aa150000aa150000aa1500000c
:1000f800aa150000aa150000aa150000aa150000fc
:10010800aa150000aa150000aa150000aa150000eb
:10011800aa150000aa150000aa150000aa150000db
:10012800aa150000aa150000aa150000aa150000cb
:10013800aa150000aa150000aa150000aa150000bb
:10014800aa150000aa150000aa150000aa150000ab
:10015800aa150000aa150000aa150000aa1500009b
:10016800aa150000aa150000aa150000aa1500008b
:10017800aa150000aa150000aa150000aa1500007b
:10018800aa150000aa150000aa150000aa1500006b
:10019800aa150000aa150000aa150000aa1500005b
:1001a800aa150000aa150000aa150000aa1500004b
:1001b800aa150000aa150000aa150000aa1500003b
:1001c800aa150000aa150000aa150000aa1500002b
:1001d800aa150000aa150000aa150000aa1500001b
:1001e800aa150000aa150000aa150000aa1500000b
:0801f800aa150000aa15000081
:020000040000fa
:10020800aa150000aa150000aa150000aa150000ea
:10021800aa150000aa150000aa150000aa150000da
:10022800aa150000aa150000aa1500008a130000ec
:10023800aa150000aa150000aa150000aa150000ba
:10024800aa150000aa150000aa150000aa150000aa
:10025800aa150000aa150000aa150000aa1500009a
:10026800aa150000aa150000aa150000aa1500008a
:10027800aa150000aa150000aa150000aa1500007a
:10028800aa150000aa150000aa150000aa1500006a
:10029800aa150000aa150000aa150000aa1500005a
:1002a800aa150000aa150000aa150000aa1500004a
:1002b800aa150000aa150000aa150000aa1500003a
:1002c800aa150000aa150000aa150000aa1500002a
:1002d800aa150000aa150000aa150000aa1500001a
:1002e800aa150000aa150000aa150000aa1500000a
:1002f800aa150000aa150000aa150000aa150000fa
:10030800aa150000aa150000aa150000aa150000e9
:10031800aa150000aa150000aa150000aa150000d9
:10032800aa150000aa150000aa150000aa150000c9
:10033800aa150000aa150000aa150000aa150000b9
:10034800aa150000aa150000aa150000aa150000a9
:10035800aa150000aa150000aa150000aa15000099
:10036800aa150000aa150000aa150000aa15000089
:10037800aa150000aa150000aa150000aa15000079
:10038800aa150000aa150000aa150000aa15000069
:10039800aa150000aa150000aa150000aa15000059
:1003a800aa150000aa150000aa150000aa15000049
:1003b800aa150000aa150000aa150000aa15000039
:1003c800aa150000aa150000aa150000aa15000029
:1003d800aa150000aa150000aa150000aa15000019
:1003e800aa150000aa150000aa150000aa15000009
:0803f800aa150000aa1500007f
:020000040000fa
:1005cc0011110000222200003333000044440000cb
:1005dc00555500006666000077770000888800009b
:1005ec0099990000aaaa0000bbbb0000cccc00006b
:1005fc00dddd0000eeee0000cecd0000acab000067
:10060c0002020000030300000404000005050000c2
:10061c000606000007070000080800000a09000091
:10062c001010000010110000121200005473000092
:10063c0031000000547300003200000054730000bd
:10064c0033000000547300003400000049440000e3
:08065c004c4500000000000005
:020000040000fa
:100664005a3cec0000000600889fbe008a9fbe0032
:100674000005780081047800e38f50000100360003
:10068400390020001a080700c0e780008a0f5000d4
:10069400290032000a00e000280032000a04780031
:1006a400b8089000818f54001200320015003e00fb
:1006b4000a00e000150032000005eb00390c980038
:1006c40064801400600498006a08b90029c92100f4
:1006d4000080440058019000800f5100190032003e
:1006e400e10f550003003a004a1402000000000024
:1006f40000000000010807004f05be004f04be00c3
:10070400000006000a00e000ebff32001a0020009f
:10071400390c980064801400600498006a08b900d9
:1007240029c921000080440058019000800f510025
:10073400ebff3a00030037000005eb00c8e7800038
:10074400d7ff37008885e8000b0078003c080700d5
:10075400b8089000c0e28000808f500005003e0081
:100764006a08b900008044008b007800060807007e
:10077400dbff3700c1e288006a08b900008044004a
:100784008b00780000080700d5ff3700889fbe0063
:100794008a1f780080047800d5070700c0e780002e
:1007a400890f50001b0032000900e0001a003200db
:1007b400090478000885e8000a007800200807008a
:1007c400280890000000e000020032006c004400a1
:1007d4001b0807008a00780060c62100ea070700aa
:1007e400c60707000900e000030032004f05780047
:1007f4004f04be00000006004a140200000000007e
:10080400000000004f0578004f04be000000060001
:10081400f9ff37008004eb00c8e78000e5ff3700ec
:1008240000017800d000900060c62100808f500045
:10083400020032000000eb0000000600a208900055
:1008440000c72100808f5000faff32001000200002
:100854000100e000f8ff32000000eb00f6ff370073
:10086400889fbe00000478000000e0000900320008
:10087400c0e78000800f5400060032009c07070088
:1008840008007800e6ff0700e10f50000300320083
:100894009a0707004f04be00000006008884e800a1
:1008a40009007800e6070700b8089000c0e280005d
:1008b400808f500001003600c1e288006a09b90047
:1008c40020c921000200400089007800ae0707001b
:1008d400c0e78000b808900030089000808f500076
:1008e400ebff39004a140200000000000000000081
:1008f40082070700e7ff3700889fbe008a1f780041
:1009040000047800c6ff0700000178000005eb0032
:10091400e10f5000040032000a0078004f0578000f
:100924004f04be0000000600d1e280000100e00098
:1009340017003a00c0e7800001057800b80890006d
:1009440030089000808f5000200031008884e80037
:1009540009007800ba070700b8089000c0e28000d8
:10096400808f500012003e006a09b90020c921009e
:100974000200400089007800830707000a0078001d
:100984004f0578004f04be0000000600e6ff370064
:10099400ec00440000c721007b0707000000200092
:1009a4004f0578004f04be0000000600deff37004c
:1009b400c1e288006a09b90020c921000200400090
:1009c4008900780070070700ecff37000205780003
:1009d4008884e8000900780099070700b8089000a7
:1009e400c0e28000808f5000dfff3600f0ff370048
:1009f40042a0a800603cef003c073700889fbe007f
:100a04008a1f78005a1ce20013003a00543cec00a0
:100a1400541ce20015003200e0e380001000e00006
:100a24000a003200e0e380003000900030009000c3
:100a3400000478000000e00004003200a1e280001d
:100a440010009000810f5000110036004f0578000f
:100a54004f04be00000006005c3cec004f0578002b
:100a64004f04be0000000600fbff3700e0e38000f7
:100a7400d1e38000e1e38800d0e38800563cec0039
:100a8400e0e380001000e000e6ff3a00efff3700eb
:100a94002ac921008884e800090078006807070053
:100aa400280890000000e000020032006c004400be
:100ab40063070700b8089000c0e28000808f5000f0
:100ac40001003600c1e288006a08b9000000450050
:100ad400890078002c070700e0e380001000e000a4
:100ae400daff3200e0e38000300090003004900030
:100af4000800e000d5ff3200a1e280001800900059
:100b0400810f5000e3ff36004f0578004f04be000c
:100b140000000600d0ff3700889fbe008a1f7800bf
:100b2400f30607005a3ced00d0e280000000e0002c
:100b340033003a005e1ce200310032000005780008
:100b4400701ce2001b003200b0e38000300490000f
:100b54000800e000170032006c004400380707006a
:100b64008884e8000900780035070700b808900079
:100b7400c0e28000808f500001003600c1e288008e
:100b84006a09b90020c921000200400089007800e8
:100b9400fd060700c0e78000b80890003008900008
:100ba400808f5000e6ff39001a002000701ce2001c
:100bb400e5ff3a005c1ce2000c0032005c1ce20021
:100bc40016003a00523cef004a14020000000000f4
:100bd4000000000018002000c80607000800780084
:100be4004f0578004f04be0000000600e10f5500d9
:100bf400f4ff320090e28000e10f5000f1ff320078
:100c04000004eb00bd060700080078004f057800db
:100c14004f04be0000000600f4ff370077ff070012
:100c24005c3ced005c1ce200e6ff320073ff070051
:100c34005c3ced005c1ce200f8ff3a00e1ff370089
:100c4400889fbe00800478000000e00005003a00a0
:100c54004a14020000000000000000004f04be001f
:100c6400000006007efe0700a8e28000088444001d
:100c7400f89cec00f2060700c0e78000180098001a
:100c8400a0e28000800f54000b003900c1e780000f
:100c9400e0e380008180e800c60607009eff0700ad
:100ca4000000e000edff3a004a14020000000000da
:100cb40000000000e9ff3700c1e78000d0e38000b6
:100cc4008180e800bb06070093ff07000000e000f6
:100cd400f5ff3200e1ff3700889fbe0080047800f2
:100ce400010478005efe0700990078000884400043
:100cf400a0e28000808f50000e003600888f5000e4
:100d04000e003e000000eb00880c78000000e000bc
:100d140011003a0080ff07000000e00003003a00e1
:100d24004a14020000000000000000004f04be004e
:100d340000000600888f500003003e00a0e28000ff
:100d4400800f5400efff360010002000880c78005c
:100d54000000e000efff3200f89cec00b80607004a
:100d6400c0e7800018009800a0e28000800f5400c3
:100d740005003900c1e78000e0e380008180e800dd
:100d84008c060700e3ff3700c1e78000d0e3800052
:100d94008180e80087060700deff3700881f78009f
:100da40053060700a8e280005406070008007800f4
:100db4004f04780000000600f0e280000000060006
:100dc4005a1ce200030032001000200090e2880068
:100dd40000000600c0e280006a00b90022c92100b8
:100de400620078000000e00006003a00583ced0084
:100df400c0e280006a00b900620078000000e000f0
:100e0400faff3200c0e280006a00b900000141002c
:100e1400920090009100900011019800640041003c
:100e2400808f500003003200b1009000c1e78800b9
:100e3400000006009100900011019800b10090009c
:100e4400c1e7880000000600881f780001047800cc
:100e5400c1e78000ec80400056060700f89cec00d7
:100e640077060700e10f440014003200a0e280007e
:100e740000004400c1e7800090009800a1e28000d7
:100e8400810f500006003900c1e78000e0e38000d4
:100e94008180e800470607004f0478000000060040
:100ea400c1e78000d0e380008180e80041060700ac
:100eb4004f04780000000600f9ff3700c1e7800006
:100ec4008180e80060c621002f0607004f047800e7
:100ed40000000600f2ff3700889fbe0090007800f3
:100ee4000100e00020003a00810478006c84440092
:100ef40008007800520607005a1ce20016003a0067
:100f04000984e800080078004d060700b90890003d
:100f1400c0e28000808f500016003e006a09b900cc
:100f240020c921000200400088007800160607004e
:100f3400c0e780000001eb00b90890003008900081
:100f4400808f500001003900120020000200780058
:100f54004f04be00000006008800780000c721008e
:100f640009060700f2ff370030009000b00490003b
:100f7400deff3700c1e288006a09b90020c92100f8
:100f84000200400088007800ff050700e8ff3700f2
:100f9400b1e2800001087800a1e28000110098000d
:100fa40000000600889fbe008a1f780000047800b5
:100fb40001057800ce0507001a0178008004eb00d3
:100fc400e10f41000c003200b0e28000980f1000e5
:100fd4001a003200a0e2800098009000808f500038
:100fe4000400360001007800541cb500800f510045
:100ff40006003e0019002000c00507000900780023
:101004004f0578004f04be00000006000100780080
:10101400541cb500000d510008007800dcff0700e7
:101024008004eb00b5050700090078004f0578003f
:101034004f04be0000000600f4ff37009800900043
:1010440001007800541cb500800f5100e9ff360000
:10105400eeff37001000200090e288000000060038
:1010640090e48000e10f5000fdff36004a140200b6
:101074000000000000000000f9ff3700e687470089
:10108400889fbe008a9fbe008c9fbe008e1f780082
:10109400f0b79f0081057800020478008306780089
:1010a4000406780085bf9f008604780000022000b3
:1010b4006c060700000578000080eb000a00e000e1
:1010c4004f0032000900e0008a003200490d980008
:1010d4008e0032000804440008017800510a200000
:1010e400090078001efd0700ca0c90000884440023
:1010f4000884e900780d98007a0045004200200039
:101104008b0078001dfd07000040eb00505d980047
:10111400300020001b002000800f56003e003600e7
:10112400300d98000a87e8000e0078009305070048
:101134006c04450008007800900507004a059800f3
:101144000b0c78001a0d98000d017800ffb0970081
:101154000900780024050700000d780064050700e5
:101164005e3cec00f0e28000e10f500049003200e8
:101174002bc92100601ce20004003a00c0e7800093
:1011840030089000800f560058003100ba089000d3
:1011940020e38000808f50000100360021e38800a6
:1011a400623cec00c0e28000808f500001003600f9
:1011b400c1e288006a08b900008045008e0078000a
:1011c400710507004d0507000fb897000000e00007
:1011d400010032000a087800601ce2002500320099
:1011e400c0e78000300890008c0f500021003100cf
:1011f4004a1402000000000000000000100020005b
:101204004f0778004f06be004f05be004f04be00d6
:101214006f00b10000000600e40516000c00780021
:10122400300d98000a87e8000e0078005305070087
:101234006c04450008007800500507004a05980032
:101244000b0c78001a0d98000d017800ffb0970080
:1012540009007800e4040700000d78002405070065
:101264005e3cec00f0e28000e10f5000c0ff3a0069
:1012740008003700100020004f0778004f06be001a
:101284004f05be004f04be006f00b1000000060011
:10129400e1ff3700cae788002bc921000b0478005e
:1012a400a9cb2100080078002d0507006a0444003a
:1012b400888f5400fbff3a0080c8210028050700ee
:1012c400e0c721002605070000c721002405070008
:1012d40060c621002205070080c82100e0e38800e1
:1012e400e0c72100d0e38800a8ff3700cae78800e0
:1012f400a6ff370008004400da05070080047800e0
:10130400490d98000900e00072ff3a000a007800d5
:10131400ef0507000080eb004f0778004f06be0082
:101324004f05be004f04be006f00b1000000060070
:10133400b9ff37008003eb000003eb00860278005e
:10134400060278008601780092062000c132280047
:101354002083200049ff0700e10f50000100320004
:101364000000060042a0a80000e38800543cef00ff
:10137400b1043700889fbe008a9fbe008c1f78008e
:1013840080047800010578000000e00005003a00c0
:10139400000020004f0678004f05be004f04be0039
:1013a4000000060060022000ae050700000478007b
:1013b4000000e000f6ff32000ac8b9000006780019
:1013c4000000e800a705070080057800000c7800fd
:1013d4000000e000180032000c00400010049800e7
:1013e4000000eb00600c98002b0498000900e90051
:1013f40000d0b9000080450030049800790c9800b2
:101404000a1498000080eb0010149800201498002f
:1014140068004400d204070072004400d0040700ae
:10142400080078004f0678004f05be004f04be0048
:1014340000000600dbff370008007800a405070061
:101444000b0078004f0678004f05be004f04be0025
:1014540000000600d3ff3700889fbe000004780018
:10146400a3040700e80890008004eb0078089000cb
:10147400808f500004003200a004070009007800a7
:101484004f04be0000000600190020009b04070062
:10149400090078004f04be0000000600faff370080
:1014a400881f78000004780091040700680c9000fd
:1014b40092040700080078004f047800000006003a
:1014c4006008900000000600881f7800000478007f
:1014d400100078007e050700080078007c050700ee
:1014e4004f04780000000600881f7800000478008c
:1014f40002007800081190000200e0000d003200a4
:101504000000e00010003200380090000dfc0700dd
:1015140038009000881090000100500030049800ba
:10152400980f500003003100180090000100500093
:1015340030049800680890000000e800600c9800ef
:101544004f0478000000060028009000fdfb07000f
:1015540028009000881090000100400020049800aa
:1015640098009000810f5000f2ff390018007800b5
:1015740020049800680890000000e800600c9800bf
:101584004f04780000000600efff3700889fbe007c
:1015940000047800010278008204780003017800d6
:1015a400e0089000700890008001eb00808f5000ec
:1015b40003003900030078004f04be000000060059
:1015c4008400780008007800c7ff07002810900006
:1015d400e10f4000060032000000e80020149800eb
:1015e400100020004f04be0000000600f4ff370086
:1015f400180890000000e00004003a0010002000e9
:101604004f04be0000000600edff370072004400e6
:1016140031fe07000000e000f8ff32001000200057
:10162400800c7800000078004f04be000000060023
:10163400e3ff370080017800010278001000e00029
:101644000b003200300090000311900002004000b3
:10165400b001980093009000810f50000500310004
:10166400e68141009300780004007800b5fb070090
:101674000000060013007800b0019800e6814100e4
:101684009300780004007800aefb0700f8ff3700f1
:10169400889fbe00000478008204780060089000ef
:1016a4000000e00002003a004f04be000000060003
:1016b40008007800dfff0700680890000000e900d8
:1016c400600c980018109000e10f400006003200f2
:1016d4000000e80010149800100020004f04be0021
:1016e40000000600f2ff3700480090000000e00010
:1016f40004003a00100020004f04be000000060061
:10170400ebff370068004400f3fd07000000e00031
:10171400f8ff320010002000800c78004f04be0057
:1017240000000600e2ff3700889fbe000004780036
:10173400ef030700281090000000e00003003400cd
:10174400180890000000e00021003a000080eb003f
:1017540020149800e9030700e5030700181090001f
:101764000000e00003003400480090000000e000a6
:1017740005003a000080eb0010149800df03070016
:101784004f04be0000000600e8044400090078008d
:10179400d1fd07000000e0000b003a001810900093
:1017a4000000e900101498004240a900f1ff340041
:1017b4001900e000efff320009007800c6fd0700c1
:1017c4000000e000f5ff320022fe0700f3ff3700bf
:1017d400f204440009007800bffd07000000e000a7
:1017e4000b003a00281090000000e9002014980033
:1017f4004240a900d5ff34001900e000d3ff3200b5
:1018040009007800b4fd07000000e000f5ff320095
:1018140010fe0700f3ff37000600fa00889fbe00a1
:101824008a9fbe008c1f78008004780081057800b0
:10183400a2bf9f00030678000005eb00ac0307007d
:10184400690c90000800e00028003a002fb89700c7
:101854000000e0005a0032000a00e00034003200c8
:10186400a60307007efb0700a103070019109000e0
:10187400e10f40004900320029109000e10f4000c0
:10188400350032009d030700ec805700708057003c
:10189400c4fd07000000e00036003a00940307008e
:1018a400690c9000950307000800e00040003a002e
:1018b400afb897007280440063fd07000900780008
:1018c40099ff070094fc07000000e000dbff3a00ea
:1018d4004a14020000000000000000008403070016
:1018e400690c90000800e000d8ff32003904900031
:1018f4008b007800090078004eff07000c00e00020
:1019040037003200b8049800190890000000e00085
:1019140043003a0079030700100020004f067800c6
:101924004f05be004f04be000080fa000000060010
:101934007080570096fd07001a0020006f0307000f
:1019440047fb07006a03070019109000e10f4000ed
:10195400c9ff3a0011003700a81498006703070074
:10196400ec805700708057008efd07000000e000f7
:10197400caff3200090078006bff070066fc07000d
:101984000000eb004f0678004f05be004f04be0078
:101994000080fa0000000600e5ff37009814980064
:1019a40029109000e10f4000b6ff3a00eaff37002b
:1019b400090078005cff070057fc07009fff370011
:1019c4004e030700080078004f0678004f05be005c
:1019d4004f04be000080fa0000000600d4ff370068
:1019e400690890000000e900e00c980049009000ac
:1019f4000000e000c7ff32006880440036fd0700a5
:101a0400e10f5000c3ff3a004a1402000000000036
:101a1400000000003903070010002000bfff37005a
:101a2400728044002cfd07000000e000f6ff3a003d
:101a34003203070010002000b8ff37000600fa0048
:101a4400889fbe008a9fbe008c1f780080047800a7
:101a540001067800a2bf9f00830578000005eb0013
:101a640023030700e908900079089000808f500054
:101a7400280039002fbc97000800e000590032000c
:101a84000a00e000310032001c030700f4fa0700ea
:101a94001703070019109000e10f400047003200bf
:101aa40029109000e10f40003200320013030700b8
:101ab400ec805700708057003afd07000000e000fa
:101ac40034003a000900780063fe07000000e000db
:101ad40040003200afb8970068804400dafc070089
:101ae4000900780010ff07000bfc07000000e0006d
:101af400dbff3a004a14020000000000000000006e
:101b0400fb020700e908900079089000808f5000dc
:101b1400d8ff31000b0178008c00780009007800b0
:101b240071fe0700190890000000e00035003a003b
:101b3400f2020700100020004f0678004f05be0097
:101b44004f04be000080fa000000060070805700b9
:101b54000ffd07001a002000e8020700c0fa070082
:101b6400e302070019109000e10f4000ccff3a0097
:101b7400120037000000eb00a0149800df020700f9
:101b8400ec8057007080570006fd07000000e0005d
:101b9400ccff320009007800e3fe0700defb0700fb
:101ba4000000eb004f0678004f05be004f04be0056
:101bb4000080fa0000000600e4ff37000000eb009c
:101bc4009014980029109000e10f4000b7ff3a00ec
:101bd400e8ff370009007800d3fe0700cefb0700ba
:101be4009fff3700c5020700080078004f06780001
:101bf4004f05be004f04be000080fa00000006003e
:101c0400d2ff370072804400b3fc0700e10f50009c
:101c1400c7ff3a004a140200000000000000000060
:101c2400b602070010002000c3ff3700e008900050
:101c34000100ea00010070004f00de0061001000a6
:101c440000000600e00890000001eb00700890001e
:101c5400808f50000200320002007800000006006d
:101c64001000200000000600fdff3700889fbe0022
:101c74008a1f780000047800010578008204780047
:101c840042a0a800f4fd0700000178000000e00075
:101c9400070032000900e00025003a0042a0a90034
:101ca400090078004f0578004f04be0000000600cc
:101cb40042a0a9000000000042a0a800e80890008b
:101cc40078089000808f5000070039008200780067
:101cd40042a0a900010078004f0578004f04be001f
:101ce40000000600f2ff37008a0078000800780040
:101cf400fdfd0700180890000000e00004003a0011
:101d04001100200042a0a90001007800f2ff370072
:101d140072004400b5010700b1ff2f000000e0008d
:101d2400f7ff320042a0a90001007800eaff370063
:101d3400e800440009007800a300070042a0a900bd
:101d4400c0ff2f004f0578004f04be0000000600be
:101d5400d7ff3700881f78000004780081017800dd
:101d640042a0a800600890000000e00006003a00cd
:101d74000200e00039003a0042a0a9000200780005
:101d84004f0478000000060042a0a90000000000f3
:101d940042a0a800680890000000e000170032008c
:101da40038009000081190000200400030049800b0
:101db40098009000810f50001400310068089000d2
:101dc4000000e900600c9800660044009000780070
:101dd40003007800dbf90700480090000000e000f1
:101de40016003a001100200042a0a900010078006a
:101df4004f04780000000600e3ff370080007800fd
:101e040042a0a90001007800f9ff3700180078000b
:101e140030049800680890000000e900600c980005
:101e2400660044009000780003007800c5f90700bc
:101e3400480090000000e000eaff3200680044001f
:101e44006a010700b1ff2f000000e000e5ff320047
:101e540042a0a90001007800e5ff3700f200440029
:101e6400020078005800070042a0a900c0ff2f001c
:101e74004f04780000000600c3ff3700889fbe00af
:101e8400000478008101780082047800e008900062
:101e940070089000808f500003003900090078001a
:101ea4004f04be00000006000001eb008300780030
:101eb400080078008cfd07000900e000f7ff3a00f5
:101ec400180890000000e00004003a000000200020
:101ed4004f04be0000000600f3ff37007200440008
:101ee40042010700110020000000e000f7ff32006b
:101ef400010078004f04be0000000600eaff37002e
:101f0400889fbe0000047800810178008204780074
:101f1400600890000000e0001900320038009000d2
:101f240008119000020040003004980098009000ce
:101f3400810f500018003100680890000000e9008b
:101f4400600c98006600440090007800030078005c
:101f54007cf907001900e0000b003a0048009000eb
:101f64000000e00008003200680044001f01070080
:101f74000000e0000400320010002000800c780013
:101f84004f04be0000000600100020004f04be00f5
:101f940000000600fcff37001800780030049800a9
:101fa400680890000000e900600c98006600440096
:101fb400900078000300780062f907001900e0003f
:101fc400e6ff3200f0ff3700889fbe000001780072
:101fd40081047800e0e5800000044100fe9cec00f0
:101fe40017020700f1e7800098009800e0e5800000
:101ff400800f54000b0031008180e80060e680000f
:10200400ec0107000900e00004003200f1e7800061
:10201400ec80400009007800e60107004f04be0090
:10202400000006008180e80070e68000e1010700fe
:10203400f4ff3700889fbe008a1f78004ace210033
:10204400c21ce2001600320042a0a80010e6800084
:102054000000e0006b003a00000478006c004400cb
:10206400f701070042a0a9008884e800090078006d
:10207400f3010700b8089000d0e58000808f50007d
:1020840001003600d1e588006a08b9000000450067
:1020940089007800bc010700c21ce200eaff3a0094
:1020a4003efb070001e6800001005000f0e58800d7
:1020b400f0e580000000e00037003200e1e5800038
:1020c4008100e800e1e588000000e900f0e588000f
:1020d4000100e00004003a0070e6800062e680003f
:1020e40072e6880060e6880070e680001000e00078
:1020f400efff3200300090003000900000047800c0
:102104000000e000eaff320010009000808f5000d1
:10211400e7ff390042a0a8008884e800090078009d
:10212400c7010700280890000000e0000200320008
:102134006c004400c201070042a0a900b808900046
:10214400d0e58000808f500001003600d1e5880082
:102154006a08b90000004500890078008a01070078
:1021640070e680001000e000d1ff320030009000e3
:10217400300490000800e000cdff32009800900089
:10218400e0e58000808f5000e2ff3600f0e580003b
:102194000000e000c9ff3a00e0e5800000e68800a6
:1021a400d4e580006a20b900800078000a0140006c
:1021b400920278000500e00016003a000400e000f6
:1021c4000d003200a0cd2100008040008401780081
:1021d400850078008301e900000178001000e00028
:1021e4000b003a008100e8006a005000848f500020
:1021f400f8ff3a00d3e588004f0578004f04be008d
:102204000000060040e680003004900093ff370091
:10221400d3e588009200900091009000110198008d
:1022240064004100808f50000900320031009000aa
:10223400f0e78800c0089000100178000200010057
:102244004f0578004f04be0000000600edff370084
:10225400910090001101980031009000f0e788008f
:10226400c00890001001780002000100f4ff37005c
:10227400889fbe008a9fbe008c9fbe008e1f780080
:10228400800678000105780002067800c00120006d
:10229400f4010700800478000080eb000900e000ee
:1022a4001e0032004ece2100fe1ce2002700320048
:1022b400e10f5500390036001a0020003b002000d1
:1022c4000000eb00d00c9800ba0c9800cc0c9800dd
:1022d400090578000d1d78000a0078002701070021
:1022e4006c8444000800780024010700c9049800a5
:1022f400990c98000b0c7800b9089000d0e5800088
:10230400808f50000a003e006a08b90000004700b0
:102314008a0078001c010700100020004f07780095
:102324004f06be004f05be004f04be00000006006d
:10233400d1e588006a08b900000047008a007800e7
:102344001101070010002000f4ff3700f9e78800ae
:102354000e0478008bcf21000800780000010700ec
:102364006a044400888f5500fbff3a00a0cd210089
:10237400fb00070000cd2100f900070020cc21005c
:10238400f7000700a0cd210070e6880000cd2100f1
:1023940060e68800e10f5500c7ff3e00e405150024
:1023a4000000eb00d00c9800ba0c9800cc0c9800fc
:1023b400090578000d1d78000a007800ef00070079
:1023c4006c84440008007800ec000700c9049800fd
:1023d400990c98000b0c7800b9089000d0e58000a7
:1023e400808f5000c8ff3600d1ff3700889fbe00a1
:1023f400900078000100e0001200320030009000ec
:10240400b00490006c844400080078000c010700bc
:102414008800780020cc2100db0007000001eb00dd
:10242400b9089000f0e7800030089000808f5000d9
:102434000100390012002000020078004f04be00a1
:102444000000060081047800eeff3700f000200051
:102454006d01070080bb2000f9f90700f00020009f
:102464006901070080bb2000f5f90700f7ff37007a
:10247400e000200064010700007d2000f0f907005f
:10248400e000200060010700007d2000ecf9070057
:10249400f7ff3700d00020005b010700803e2000da
:1024a400e7f90700d000200057010700803e200014
:1024b400e3f90700f7ff3700c000200052010700ce
:1024c400803e2000def90700c00020004e01070016
:1024d400803e2000daf90700f7ff37009002200061
:1024e400303a8800764040004467b60000ceb3001e
:1024f4004467b60012002000a109200080072000d4
:10250400337420008049780081497800824978003a
:1025140071052000600420002374200080497800a5
:10252400814978008249780043c7bf000047b20060
:10253400f04f5000fcff3a0042c7bf000058a30010
:10254400fdff3200000006000f010700e3ff070053
:102554008003eb000003eb008602780014002000e7
:102564008601780092062000c131280080222100d3
:10257400c2fa07008003eb000003eb008602780038
:102584001400200086017800920620000132280001
:10259400a0232100b9fa07008003eb000003eb003d
:1025a400860278001400200086017800920620003c
:1025b40041322800c0242100b0fa07008003eb0058
:1025c4000003eb00860278001400200086017800e6
:1025d4009206200081322800e0252100a7fa070096
:1025e40054fb070000000500010878008000eb00a0
:1025f400110098002100980032009800e800400083
:10260400602e2800c2312800b0187800800f5100d5
:10261400fdff3a00200280008008780034c0bf002b
:102624000080fb00900098000000eb00a0009800e0
:1026340066804000000006000000eb0020088800cf
:10264400000888008038210010088800a5c0bf0059
:10265400f1c8b300014060000044a000a5e0b70049
:102664008460a9009460a8000481a80004a1a900c2
:1026740005e1a800c0e78000900778004f007800cb
:10268400d0e788003400f9004400f9004000f90064
:102694003e00f9003c00f9003a00f9003800f90066
:1026a4002c00f9002a00f9002800f9002600f9009e
:1026b4002400f9002200f9003200f9003600f90084
:1026c4004f0778004f06be004f05be004f04be0002
:1026d4004f03be004f02be004f01be004f00be00bc
:1026e4004200f9000000060010000500000006008a
:1026f40042a0a800fa3cec0000000600fa1ced0021
:10270400d0e7880001003a0042a0a90000000600ba
:102714003600f800809fbe00829fbe00849fbe00ea
:10272400869fbe003400f80000002000a00188004d
:102734008460a900b1f807004a14020000000000f8
:10274400000000003400f9004f03be004f02be0039
:102754004f01be004f00be003600f90000400600e5
:10276400e4004000110098008088eb0031009800dc
:10277400410098000008eb00000006008000eb0018
:1027840041009800000006001001900092019000a2
:1027940093009800a200980092019000a101980073
:1027a4001101980011009800c00098001008e8007a
:1027b400000006000002780091017800e18f4100da
:1027c400150032006401400012009000908f510007
:1027d4000800310012009000900098002100980039
:1027e400a200980011019800c4009800140ae8009f
:1027f400000006001201900012009000908f51001a
:10280400f4ff39001201900012009000908f5100e3
:10281400f8ff3100efff37004001900012009000f4
:102824009000980021009800a200980011019800df
:10283400c4009800140ae80000000600edff370009
:102844008000780010009000210190002200980080
:10285400a1019000900198004101900012009000a5
:10286400810f5000040032000000eb00c00098000b
:102874001209e90000000600130198000000eb00b3
:10288400c00098001209e90000000600faff3700b2
:102894004200f800801f7800000220001002880027
:1028a400811f7800829fbe00849fbe00869fbe0069
:1028b400889fbe008a9fbe008c9fbe008e1f78003a
:1028c4003600f8003200f8002200f8002400f80076
:1028d4002600f8002800f8002a00f8002c00f80070
:1028e4003800f8003a00f8003c00f8003e00f80018
:1028f4004000f8004400f8003400f800d0e78000fd
:10290400801f7800c0e780000f087800e20602000c
:1029140000000000c0e78000900778004f007800b6
:10292400d0e788003400f9004400f9004000f900c1
:102934003e00f9003c00f9003a00f9003800f900c3
:102944002c00f9002a00f9002800f9002600f900fb
:102954002400f9002200f9003200f9003600f900e1
:102964004f0778004f06be004f05be004f04be005f
:102974004f03be004f02be004f01be004f00be0019
:102984004200f900000006006ac0a9006ae0a9003c
:10299400c822ef000080eb0050168800e0e78800b2
:1029a40000000600881f7800120020000014dd00db
:1029b4000100e000080032004dff07000800780025
:1029c400fc1cb700e0e78800501688004bff0700a6
:1029d4004f0478000000060045ff07000800780057
:1029e4000080ea008180ea00e2e7800000016100e3
:1029f400e2e788005216880040ff07004f04780081
:102a040000000600f4ff3700881f78001100200042
:102a1400000cdd0036ff0700e2e7800002006400de
:102a240009003200080078000080ea008180ea0092
:102a340000006100e0e78800501688002fff0700bf
:102a44004f0478000000060002007400e0e78800ec
:102a54005016880029ff07004f0478000000060084
:102a6400f9ff3700881f7800000478000008a300ed
:102a7400020032000000a1000084e800f8f607001c
:102a84008242800082004400f03f2100808f500089
:102a9400050036000004eb001ff80700080078006a
:102aa4004f04780000000600810f5100f9ff310047
:102ab40020852000000441008142880016f80700a8
:102ac400080078004f04780000000600f6ff370085
:102ad400000006005028ef0000000600004021001e
:0c2ae4008142800001005000000006004c
:020000040000fa
:102af000f81c0000020000000200000000000000be
:102b0000521c00006800000000000000fa1c0000d9
:102b10000200000002000000ef000000500800006a
:102b20000214000000000000fc1c00000200000075
:102b300000000000fe1c0000020000000200000077
:102b400000000000ba1c00003e0000000000000071
:042b50000000000081
:020000040000fa
:042b54000000fe007f
:00000001FF
