:020000040000fa
:080000000002040000000000f2
:020000040000fa
:100400006fd12100007f240000018800000000005f
:100410000c000700206921000100200011000700e6
:10042000000020000000e000020032000000020096
:100430000000000004140200000000000040da0088
:100440000000fe004440a900200520000000e0005c
:100450000300320000002000a00188004440a800f2
:100460000000060091018800800078000000eb0089
:1004700015003700e280400032a0b4009101ba00bc
:10048000e280400032a0b4009102ba00e280400055
:1004900032a0b4000002eb00472bde00f507b200eb
:1004a000602ce10004003a000059eb008301e900f0
:1004b000fdff3e00040037006128e100010032002a
:1004c0000082eb00040007001101ba000200e00006
:1004d000e8ff3a00000006003159ba008301e90044
:1004e0000c0032002159ba008301e90008003200f3
:1004f0000400e00003003a00e280400032a0b400b3
:10050000f5ff370011d9ba008301e900faff3a007c
:100510008100e800e180400032a0b4000000060045
:1005200062130400000000009813040000000000a3
:10053000ce13040000000000cc12040000000000f4
:100540008a080400000000008001eb000200370070
:1005500061f079008301e800828f5100fcff3a00ce
:10056000000006008001eb00020037008171780076
:100570008301e800828f5100fcff3a000000060072
:1005800000037800800178000002eb0001003700d2
:100590008059780084025100820f52000900320015
:1005a00064c078000402e8000004e000f8ff3a00ac
:1005b000830078008058eb0005804100808f500058
:0c05c000fcff3a00060078000000060076
:020000040000fa
:0200000401f009
:04000c00f8ff0000f9
:020000040000fa
:0200000401f009
:040010007fff00006e
:020000040000fa
:0200000401f009
:040014007fff00006a
:020000040000fa
:10000800981700009817000098170000981700002c
:10001800981700009817000098170000981700001c
:100028002e1700009817000098170000e814000029
:1000380098170000981700009817000098170000fc
:1000480098170000981700009817000098170000ec
:1000580098170000981700009817000098170000dc
:1000680098170000981700009817000098170000cc
:1000780098170000981700009817000098170000bc
:1000880098170000981700009817000098170000ac
:10009800981700009817000098170000981700009c
:1000a800981700009817000098170000981700008c
:1000b800981700009817000098170000981700007c
:1000c800981700009817000098170000981700006c
:1000d800981700009817000098170000981700005c
:1000e800981700009817000098170000981700004c
:1000f800981700009817000098170000981700003c
:10010800981700009817000098170000981700002b
:10011800981700009817000098170000981700001b
:10012800981700009817000098170000981700000b
:1001380098170000981700009817000098170000fb
:1001480098170000981700009817000098170000eb
:1001580098170000981700009817000098170000db
:1001680098170000981700009817000098170000cb
:1001780098170000981700009817000098170000bb
:1001880098170000981700009817000098170000ab
:10019800981700009817000098170000981700009b
:1001a800981700009817000098170000981700008b
:1001b800981700009817000098170000981700007b
:1001c800981700009817000098170000981700006b
:1001d800981700009817000098170000981700005b
:1001e800981700009817000098170000981700004b
:0801f8009817000098170000a1
:020000040000fa
:10020800981700009817000098170000981700002a
:10021800981700009817000098170000981700001a
:100228002e1700009817000098170000e814000027
:1002380098170000981700009817000098170000fa
:1002480098170000981700009817000098170000ea
:1002580098170000981700009817000098170000da
:1002680098170000981700009817000098170000ca
:1002780098170000981700009817000098170000ba
:1002880098170000981700009817000098170000aa
:10029800981700009817000098170000981700009a
:1002a800981700009817000098170000981700008a
:1002b800981700009817000098170000981700007a
:1002c800981700009817000098170000981700006a
:1002d800981700009817000098170000981700005a
:1002e800981700009817000098170000981700004a
:1002f800981700009817000098170000981700003a
:100308009817000098170000981700009817000029
:100318009817000098170000981700009817000019
:100328009817000098170000981700009817000009
:1003380098170000981700009817000098170000f9
:1003480098170000981700009817000098170000e9
:1003580098170000981700009817000098170000d9
:1003680098170000981700009817000098170000c9
:1003780098170000981700009817000098170000b9
:1003880098170000981700009817000098170000a9
:100398009817000098170000981700009817000099
:1003a8009817000098170000981700009817000089
:1003b8009817000098170000981700009817000079
:1003c8009817000098170000981700009817000069
:1003d8009817000098170000981700009817000059
:1003e8009817000098170000981700009817000049
:0803f80098170000981700009f
:020000040000fa
:1005cc0011110000222200003333000044440000cb
:1005dc00555500006666000077770000888800009b
:1005ec0099990000aaaa0000bbbb0000cccc00006b
:1005fc00dddd0000eeee0000cecd0000acab000067
:10060c0002020000030300000404000005050000c2
:10061c000606000007070000080800000a09000091
:10062c001010000010110000121200005473000092
:10063c0032000000547300003300000054730000bb
:10064c003400000053740000617200007453000009
:10065c00746f000070000000494400004c4500001d
:04066c00000000008a
:020000040000fa
:10067000889fbe008a1f780000057800cc0807001c
:1006800060e880008a0f50001f0032000a00e0007e
:100690001e0032000a0478008884e800090078000f
:1006a00017090700280890000000e000020032004f
:1006b0006c004400120907008900780020c721005f
:1006c000e1080700623cec00643cec00bb0807005a
:1006d000601ce200020032000a00e0000300320069
:1006e0004f0578004f04be0000000600a815020068
:1006f00000000000000000004f0578004f04be001d
:1007000000000600f9ff37000005eb0068e88000f4
:10071000e1ff37005a3cec0000000600889fbe0055
:100720008a9fbe000005780081047800e38f5000a6
:1007300001003600390020009d08070060e88000b5
:100740008a0f5000290032000a00e0002800320021
:100750000a047800b8089000818f5400120032001b
:1007600015003e000a00e000150032000005eb0015
:10077000390c980064801400600498006a08b9007d
:10078000e9c921000080440058019000800f510009
:1007900019003200e10f550003003a00a8150200cd
:1007a0000000000000000000840807004f05be00a4
:1007b0004f04be00000006000a00e000ebff32001c
:1007c0001a002000390c980064801400600498001e
:1007d0006a08b900e9c9210000804400580190006e
:1007e000800f5100ebff3a00030037000005eb00db
:1007f00068e88000d7ff37008885e8000b007800a4
:10080000bf080700b8089000c0e28000808f500049
:1008100005003e006a08b900008044008b007800a3
:1008200089080700dbff3700c1e288006a08b900c9
:10083000008044008b00780083080700d5ff370054
:10084000889fbe008a1f780080047800580807003f
:1008500060e88000890f50001b0032000900e000b2
:100860001a003200090478000885e8000a007800c0
:10087000a3080700280890000000e00002003200f2
:100880006c0044009e0807008a00780080c62100a2
:100890006d080700490807000900e0000300320066
:1008a0004f0578004f04be0000000600a8150200a6
:1008b00000000000000000004f0578004f04be005b
:1008c00000000600f9ff37008004eb0068e88000b4
:1008d000e5ff370000017800d000900080c62100bd
:1008e000808f5000020032000000eb000000060084
:1008f000a2089000c0c72100808f5000faff32008c
:10090000100020000100e000f8ff32000000eb00c2
:10091000f6ff3700889fbe00000478000000e0006a
:100920000900320060e88000800f540006003200a9
:100930001f08070008007800e6ff0700e10f5000dd
:10094000030032001d0807004f04be00000006002f
:100950008884e8000900780069080700b80890005a
:10096000c0e28000808f500001003600c1e28800a4
:100970006a09b900e0c9210002004000890078003e
:100980003108070060e88000b80890003008900047
:10099000808f5000ebff3900a81502000000000016
:1009a0000000000005080700e7ff3700889fbe0031
:1009b0008a1f780000047800c6ff07000001780055
:1009c0000005eb00e10f5000040032000a0078003f
:1009d0004f0578004f04be0000000600d1e2800001
:1009e0000100e00017003a0060e88000010578008f
:1009f000b808900030089000808f5000200031002f
:100a00008884e800090078003d080700b8089000d5
:100a1000c0e28000808f500012003e006a09b900d9
:100a2000e0c92100020040008900780006080700a4
:100a30000a0078004f0578004f04be000000060051
:100a4000e6ff3700ec004400c0c72100fe070700a6
:100a5000000020004f0578004f04be000000060093
:100a6000deff3700c1e288006a09b900e0c9210051
:100a70000200400089007800f3070700ecff370010
:100a8000020578008884e800090078001c08070047
:100a9000b8089000c0e28000808f5000dfff360071
:100aa000f0ff370042a0a800603cef00bf0737000e
:100ab000889fbe008a1f78005a1ce20013003a008b
:100ac000543cec00541ce2001500320040e480006d
:100ad0001000e0000a00320040e480003000900086
:100ae00030009000000478000000e00004003200b4
:100af000a1e2800010009000810f5000110036002c
:100b00004f0578004f04be00000006005c3cec007e
:100b10004f0578004f04be0000000600fbff3700c1
:100b200040e4800031e4800041e4880030e4880043
:100b3000563cec0040e480001000e000e6ff3a0084
:100b4000efff3700eac921008884e8000900780037
:100b5000eb070700280890000000e00002003200c8
:100b60006c004400e6070700b8089000c0e280006f
:100b7000808f500001003600c1e288006a08b90089
:100b80000000450089007800af07070040e48000be
:100b90001000e000daff320040e4800030009000f6
:100ba000300490000800e000d5ff3200a1e2800090
:100bb00018009000810f5000e3ff36004f057800c9
:100bc0004f04be0000000600d0ff3700889fbe0023
:100bd0008a1f7800760707005a3ced00d0e28000bb
:100be0000000e00033003a005e1ce20031003200f9
:100bf000000578007c1ce2001b00320010e480003d
:100c0000300490000800e000170032006c0044003f
:100c1000bb0707008884e80009007800b8070700d0
:100c2000b8089000c0e28000808f500001003600bc
:100c3000c1e288006a09b900e0c921000200400051
:100c4000890078008007070060e88000b8089000fd
:100c500030089000808f5000e6ff39001a00200015
:100c60007c1ce200e5ff3a005c1ce2000c00320054
:100c70005c1ce20016003a00523cef00a81502008e
:100c80000000000000000000180020004b070700d3
:100c9000080078004f0578004f04be0000000600f1
:100ca000e10f5500f4ff320090e28000e10f5000a8
:100cb000f1ff32000004eb00400707000800780055
:100cc0004f0578004f04be0000000600f4ff370017
:100cd00077ff07005c3ced005c1ce200e6ff3200a1
:100ce00073ff07005c3ced005c1ce200f8ff3a007b
:100cf000e1ff3700889fbe00800478000000e0001c
:100d000005003a00a81502000000000000000000e5
:100d10004f04be00000006007efe0700a8e280002f
:100d2000088444000c9dec007507070060e8800013
:100d300018009800a0e28000800f54000b003900da
:100d400061e8800040e480008180e80049070700f6
:100d50009eff07000000e000edff3a00a81502002a
:100d60000000000000000000e9ff370061e880009b
:100d700030e480008180e8003e07070093ff070011
:100d80000000e000f5ff3200e1ff3700889fbe0061
:100d900080047800010478005efe07009900780066
:100da00008844000a0e28000808f50000e003600d2
:100db000888f50000e003e000000eb00880c780089
:100dc0000000e00011003a0080ff07000000e00092
:100dd00003003a00a8150200000000000000000017
:100de0004f04be0000000600888f500003003e0044
:100df000a0e28000800f5400efff360010002000ba
:100e0000880c78000000e000efff32000c9dec0041
:100e10003b07070060e8800018009800a0e280000f
:100e2000800f54000500390061e8800040e4800034
:100e30008180e8000f070700e3ff370061e88000ca
:100e400030e480008180e8000a070700deff3700f9
:100e5000881f7800d6060700a8e28000d7060700a2
:100e6000080078004f04780000000600f0e28000df
:100e7000000006005a1ce2000300320010002000af
:100e800090e2880000000600c0e280006a00b9001d
:100e9000e2c92100620078000000e00006003a008c
:100ea000583ced00c0e280006a00b90062007800a2
:100eb0000000e000faff3200c0e280006a00b900e2
:100ec00000014100920090009100900011019800f3
:100ed00064004100808f500003003200b100900098
:100ee00061e8880000000600910090001101980060
:100ef000b100900061e8880000000600881f7800bb
:100f00000104780061e88000ec804000d906070009
:100f10000c9dec00fa060700e10f440014003200bb
:100f2000a0e280000000440061e88000900098008a
:100f3000a1e28000810f50000600390061e88000c6
:100f400040e480008180e800ca0607004f04780072
:100f50000000060061e8800030e480008180e80045
:100f6000c40607004f04780000000600f9ff3700b0
:100f700061e880008180e80080c62100b206070099
:100f80004f04780000000600f2ff3700889fbe0083
:100f9000900078000100e00020003a008104780011
:100fa0006c84440008007800d50607005a1ce20053
:100fb00016003a000984e80008007800d00607000f
:100fc000b9089000c0e28000808f500016003e00fb
:100fd0006a09b900e0c921000200400088007800d9
:100fe0009906070060e880000001eb00b908900056
:100ff00030089000808f500001003900120020005e
:10100000020078004f04be0000000600880078004f
:10101000c0c721008c060700f2ff370030009000a7
:10102000b0049000deff3700c1e288006a09b90011
:10103000e0c9210002004000880078008206070015
:10104000e8ff3700b1e2800001087800a1e28000eb
:101050001100980000000600889fbe008a1f7800db
:101060000004780001057800510607001a01780095
:101070008004eb00e10f41000c003200b0e2800080
:10108000980f10001a003200a0e280009800900033
:10109000808f50000400360001007800541cb50019
:1010a000800f510006003e00190020004306070093
:1010b000090078004f0578004f04be0000000600cc
:1010c00001007800541cb500000d510008007800a4
:1010d000dcff07008004eb003806070009007800f9
:1010e0004f0578004f04be0000000600f4ff3700f3
:1010f0009800900001007800541cb500800f51004a
:10110000e9ff3600eeff37001000200090e2880073
:1011100000000600881f7800621ce20008003a0008
:10112000f0e48000e10f5000fbff3600a81502003c
:101130000000000000000000621ce200f8ff320026
:1011400074fd070098e38000a0fe07000800e0009f
:10115000f3ff32001606070090e380000000e00075
:101160000b003a00000478000880e80064060700dd
:101170005e3ced00623ced00100607004808900060
:10118000270707000800780025070700e4ff37005d
:10119000c0e38000300490000880e8005806070093
:1011a0005e3ced00623ced0004060700480890003c
:1011b0001b0707000800780019070700d8ff370051
:1011c000e6874700889fbe008a9fbe008c9fbe00b6
:1011d0008e1f7800f0b79f00810578000204780028
:1011e000830678000406780085bf9f008604780097
:1011f00000022000ef060700000578000080eb00e9
:101200000a00e0004f0032000900e0008c003200cc
:10121000490d98009000320008044400080178004d
:10122000510a200009007800cefc0700ca0c90008b
:10123000088444000884e900780d98007a0045008d
:10124000420020008b007800cdfc07000040eb003e
:10125000505d9800300020001b002000800f5600d9
:101260003e003600300d98000a87e8000e00780036
:10127000f20507006c04450008007800ef05070040
:101280004a0598000b0c78001a0d98000d017800a3
:10129000ffb097000900780083050700000d780073
:1012a000c30507005e3cec00f0e28000e10f500057
:1012b00049003200ebc92100601ce20004003a0042
:1012c00060e8800030089000800f56005a0031001e
:1012d000ba08900030e38000808f50000100360093
:1012e00031e38800643cec00c0e28000808f500055
:1012f00001003600c1e288006a08b900008045009c
:101300008e007800d0050700ac0507000fb89700e5
:101310000000e000010032000a087800601ce200d2
:101320002500320060e88000300890008c0f5000eb
:1013300021003100a815020000000000000000009c
:10134000100020004f0778004f06be004f05be007a
:101350004f04be006f00b10000000600e405160057
:101360000c007800300d98000a87e8000e00780025
:10137000b20507006c04450008007800af050700bf
:101380004a0598000b0c78001a0d98000d017800a2
:10139000ffb097000900780043050700000d7800b2
:1013a000830507005e3cec00f0e28000e10f500096
:1013b000c0ff3a0008003700100020004f077800f7
:1013c0004f06be004f05be004f04be006f00b100c7
:1013d00000000600e1ff37006ae88800ebc9210041
:1013e0000b04780069cc2100080078008c05070008
:1013f0006a044400888f5400fbff3a0040c9210072
:1014000087050700a0c8210085050700c0c7210087
:101410008305070020c721008105070080c6210041
:101420007f05070040c9210040e48800a0c82100d2
:1014300030e48800a6ff37006ae88800a4ff370080
:10144000080044005b06070080047800490d9800fe
:101450000900e00070ff3a000a00780070060700fb
:101460000080eb004f0778004f06be004f05be001e
:101470004f04be006f00b10000000600b7ff370048
:101480008003eb000003eb00860278000602780080
:10149000860178009206200021332800a0882000d1
:1014a00047ff0700e10f5000010032000000060076
:1014b00042a0a80000e38800543cef000e0537006e
:1014c000889fbe008a9fbe008c1f78008004780031
:1014d000010578000000e00005003a00000020004f
:1014e0004f0678004f05be004f04be000000060006
:1014f000600220002f060700000478000000e000d2
:10150000f6ff32000ac8b900000678000000e800c3
:101510002806070080057800000c78000000e00035
:10152000180032000c004000100498000000eb008e
:10153000600c98002b0498000900e90000d0b90065
:101540000080450030049800790c98000a14980037
:101550000080eb00101498002014980068004400ec
:101560002f050700720044002d05070008007800d1
:101570004f0678004f05be004f04be000000060075
:10158000dbff370008007800250607000b00780015
:101590004f0678004f05be004f04be000000060055
:1015a000d3ff3700889fbe000004780000050700c5
:1015b000e80890008004eb0078089000808f5000cd
:1015c00004003200fd040700090078004f04be004b
:1015d0000000060019002000f80407000900780048
:1015e0004f04be0000000600faff3700881f780095
:1015f00000047800ee040700680c9000ef04070078
:10160000080078004f047800000006006008900091
:1016100000000600881f78000004780010007800a1
:10162000ff05070008007800fd0507004f0478005b
:1016300000000600881f780000047800020078008f
:10164000081190000200e0000d0032000000e000f0
:101650001000320038009000bbfb070038009000fb
:10166000881090000100500030049800980f50003e
:101670000300310018009000010050003004980071
:10168000680890000000e800600c98004f047800a3
:101690000000060028009000abfb07002800900027
:1016a00088109000010040002004980098009000ed
:1016b000810f5000f2ff39001800780020049800d4
:1016c000680890000000e800600c98004f04780063
:1016d00000000600efff3700889fbe00000478007e
:1016e000010278008204780003017800e00890008d
:1016f000700890008001eb00808f500003003900db
:10170000030078004f04be0000000600840078004b
:1017100008007800c7ff070028109000e10f400084
:10172000060032000000e80020149800100020009d
:101730004f04be0000000600f4ff370018089000b8
:101740000000e00004003a00100020004f04be003a
:1017500000000600edff3700720044000bfe07009a
:101760000000e000f8ff320010002000800c78003c
:10177000000078004f04be0000000600e3ff3700c1
:1017800080017800010278001000e0000b003200b8
:10179000300090000311900002004000b00198005a
:1017a00093009000810f500005003100e681410058
:1017b000930078000400780063fb07000000060037
:1017c00013007800b0019800e68141009300780092
:1017d000040078005cfb0700f8ff3700889fbe001c
:1017e0000004780082047800600890000000e000a7
:1017f00002003a004f04be00000006000800780016
:10180000dfff0700680890000000e900600c980006
:1018100018109000e10f4000060032000000e800c0
:1018200010149800100020004f04be0000000600b5
:10183000f2ff3700480090000000e00004003a008a
:10184000100020004f04be0000000600ebff370030
:1018500068004400cdfd07000000e000f8ff320002
:1018600010002000800c78004f04be00000006002d
:10187000e2ff3700889fbe00000478004c04070098
:10188000281090000000e0000300340018089000c9
:101890000000e00021003a000080eb0020149800d6
:1018a0004604070042040700181090000000e00002
:1018b00003003400480090000000e00005003a00fa
:1018c0000080eb00101498003c0407004f04be0099
:1018d00000000600e804440009007800abfd0700a2
:1018e0000000e0000b003a00181090000000e90032
:1018f000101498004240a900f1ff34001900e000e4
:10190000efff320009007800a0fd07000000e000b2
:10191000f5ff3200fcfd0700f3ff3700f20444003e
:101920000900780099fd07000000e0000b003a0074
:10193000281090000000e900201498004240a900ff
:10194000d5ff34001900e000d3ff32000900780011
:101950008efd07000000e000f5ff3200eafd070001
:10196000f3ff37000600fa00889fbe008a9fbe0082
:101970008c1f78008004780081057800a2bf9f004a
:10198000030678000005eb0009040700690c9000cd
:101990000800e00028003a002fb897000000e0009f
:1019a0005a0032000a00e00034003200030407004d
:1019b00058fb0700fe03070019109000e10f4000dc
:1019c0004900320029109000e10f4000350032003c
:1019d000fa030700ec805700708057009efd070057
:1019e0000000e00036003a00f1030700690c9000a7
:1019f000f20307000800e00040003a00afb897008b
:101a0000728044003dfd07000900780099ff07003f
:101a10006efc07000000e000dbff3a00a8150200a2
:101a20000000000000000000e1030700690c9000c6
:101a30000800e000d8ff3200390490008b007800e5
:101a4000090078004eff07000c00e000370032006c
:101a5000b8049800190890000000e00043003a0024
:101a6000d6030700100020004f0678004f05be0087
:101a70004f04be000080fa0000000600708057008e
:101a800070fd07001a002000cc03070021fb0700af
:101a9000c703070019109000e10f4000c9ff3a008a
:101aa00011003700a8149800c4030700ec80570009
:101ab0007080570068fd07000000e000caff320098
:101ac000090078006bff070040fc07000000eb00f6
:101ad0004f0678004f05be004f04be000080fa009c
:101ae00000000600e5ff37009814980029109000c8
:101af000e10f4000b6ff3a00eaff37000900780026
:101b00005cff070031fc07009fff3700ab030700b5
:101b1000080078004f0678004f05be004f04be0055
:101b20000080fa0000000600d4ff3700690890002a
:101b30000000e900e00c9800490090000000e0007f
:101b4000c7ff32006880440010fd0700e10f50001d
:101b5000c3ff3a00a81502000000000000000000ca
:101b60009603070010002000bfff3700728044007a
:101b700006fd07000000e000f6ff3a008f030700b3
:101b800010002000b8ff37000600fa00889fbe0052
:101b90008a9fbe008c1f78008004780001067800c0
:101ba000a2bf9f00830578000005eb0080030700bb
:101bb000e908900079089000808f500028003900d3
:101bc0002fbc97000800e000590032000a00e00036
:101bd0003100320079030700cefa070074030700d2
:101be00019109000e10f40004700320029109000ca
:101bf000e10f40003200320070030700ec80570014
:101c00007080570014fd07000000e00034003a0027
:101c10000900780063fe07000000e0004000320089
:101c2000afb8970068804400b4fc07000900780052
:101c300010ff0700e5fb07000000e000dbff3a00b3
:101c4000a815020000000000000000005803070073
:101c5000e908900079089000808f5000d8ff31008b
:101c60000b0178008c0078000900780071fe0700f5
:101c7000190890000000e00035003a004f0307000b
:101c8000100020004f0678004f05be004f04be0034
:101c90000080fa000000060070805700e9fc070091
:101ca0001a002000450307009afa070040030700c6
:101cb00019109000e10f4000ccff3a0012003700ed
:101cc0000000eb00a01498003c030700ec805700d4
:101cd00070805700e0fc07000000e000ccff3200fd
:101ce00009007800e3fe0700b8fb07000000eb00e6
:101cf0004f0678004f05be004f04be000080fa007a
:101d000000000600e4ff37000000eb00901498008c
:101d100029109000e10f4000b7ff3a00e8ff3700bc
:101d200009007800d3fe0700a8fb07009fff3700db
:101d300022030700080078004f0678004f05be0018
:101d40004f04be000080fa0000000600d2ff3700fa
:101d5000728044008dfc0700e10f5000c7ff3a007d
:101d6000a815020000000000000000001303070097
:101d700010002000c3ff3700e00890000100ea00d7
:101d8000010070004f00de0061001000000006003e
:101d9000e00890000001eb0070089000808f500078
:101da000020032000200780000000600100020004f
:101db00000000600fdff3700889fbe008a1f7800e4
:101dc00000047800010578008204780042a0a80091
:101dd000f4fd0700000178000000e0000700320079
:101de0000900e00025003a0042a0a900090078009f
:101df0004f0578004f04be000000060042a0a90075
:101e00000000000042a0a800e808900078089000b8
:101e1000808f5000070039008200780042a0a9009e
:101e2000010078004f0578004f04be000000060056
:101e3000f2ff37008a00780008007800fdfd0700f7
:101e4000180890000000e00004003a001100200093
:101e500042a0a90001007800f2ff370072004400a0
:101e6000b5010700b1ff2f000000e000f7ff3200ce
:101e700042a0a90001007800eaff3700e800440012
:101e800009007800a300070042a0a900c0ff2f00ae
:101e90004f0578004f04be0000000600d7ff370052
:101ea000881f7800000478008101780042a0a80013
:101eb000600890000000e00006003a000200e00028
:101ec00039003a0042a0a900020078004f047800cf
:101ed0000000060042a0a9000000000042a0a800e7
:101ee000680890000000e000170032003800900001
:101ef0000811900002004000300498009800900003
:101f0000810f500014003100680890000000e900c3
:101f1000600c980066004400900078000300780090
:101f200089f90700480090000000e00016003a0020
:101f30001100200042a0a900010078004f047800a1
:101f400000000600e3ff37008000780042a0a900ef
:101f500001007800f9ff370018007800300498007d
:101f6000680890000000e900600c980066004400da
:101f7000900078000300780073f907004800900093
:101f80000000e000eaff3200680044006a01070038
:101f9000b1ff2f000000e000e5ff320042a0a900e1
:101fa00001007800e5ff3700f200440002007800ed
:101fb0005800070042a0a900c0ff2f004f0478007e
:101fc00000000600c3ff3700889fbe0000047800b1
:101fd0008101780082047800e00890007008900089
:101fe000808f500003003900090078004f04be00c4
:101ff000000006000001eb00830078000800780074
:102000008cfd07000900e000f7ff3a001808900077
:102010000000e00004003a00000020004f04be0071
:1020200000000600f3ff3700720044004201070081
:10203000110020000000e000f7ff320001007800ee
:102040004f04be0000000600eaff3700889fbe0074
:102050000004780081017800820478006008900014
:102060000000e000190032003800900008119000d4
:10207000020040003004980098009000810f50004a
:1020800018003100680890000000e900600c98001a
:102090006600440090007800030078002af90700e9
:1020a0001900e0000b003a00480090000000e0003a
:1020b00008003200680044001f0107000000e00033
:1020c0000400320010002000800c78004f04be0095
:1020d00000000600100020004f04be0000000600b3
:1020e000fcff370018007800300498006808900062
:1020f0000000e900600c9800660044009000780041
:102100000300780010f907001900e000e6ff320034
:10211000f0ff3700889fbe0000017800810478003e
:1021200040e6800000044100129dec0074020700ac
:1021300091e880009800980040e68000800f5400ed
:102140000b0031008180e800c0e6800049020700f2
:102150000900e0000400320091e88000ec804000bb
:1021600009007800430207004f04be00000006008b
:102170008180e800d0e680003e020700f4ff3700cf
:10218000889fbe008a1f78000acf2100ce1ce20083
:102190001600320042a0a80070e680000000e000b7
:1021a0006b003a00000478006c0044005402070001
:1021b00042a0a9008884e8000900780050020700c6
:1021c000b808900030e68000808f50000100360093
:1021d00031e688006a08b9000000450089007800ef
:1021e00019020700ce1ce200eaff3a0018fb0700c4
:1021f00061e680000100500050e6880050e6800053
:102200000000e0003700320041e680008100e80075
:1022100041e688000000e90050e688000100e00087
:1022200004003a00d0e68000c2e68000d2e68800d2
:10223000c0e68800d0e680001000e000efff32002a
:102240003000900030009000000478000000e000b2
:10225000eaff320010009000808f5000e7ff390045
:1022600042a0a8008884e800090078002402070042
:10227000280890000000e000020032006c004400da
:102280001f02070042a0a900b808900030e68000b5
:10229000808f50000100360031e688006a08b900de
:1022a0000000450089007800e7010700d0e68000c3
:1022b0001000e000d1ff32003000900030049000a8
:1022c0000800e000cdff32009800900040e680005a
:1022d000808f5000e2ff360050e680000000e000f2
:1022e000c9ff3a0040e6800060e6880034e68000de
:1022f0006a20b900800078000a014000920278004c
:102300000500e00016003a000400e0000d00320075
:1023100060ce2100008040008401780085007800b4
:102320008301e900000178001000e0000b003a0092
:102330008100e8006a005000848f5000f8ff3a00e6
:1023400033e688004f0578004f04be000000060009
:10235000a0e680003004900093ff370033e6880049
:1023600092009000910090001101980064004100db
:10237000808f5000090032003100900090e8880002
:10238000c008900010017800020001004f0578009d
:102390004f04be0000000600edff370091009000e2
:1023a000110198003100900090e88800c00890006a
:1023b0001001780002000100f4ff3700889fbe0082
:1023c0008a9fbe008c9fbe008e1f7800800678001a
:1023d0000105780002067800c001200075020700a0
:1023e000800478000080eb000900e0001e0032004d
:1023f0000ecf2100121de20027003200e10f550030
:10240000390036001a0020003b0020000000eb00dd
:10241000d00c9800ba0c9800cc0c980009057800f4
:102420000d1d78000a007800840107006c844400c8
:102430000800780081010700c9049800990c9800f1
:102440000b0c7800b908900030e68000808f5000b7
:102450000a003e006a08b900000047008a007800c0
:1024600079010700100020004f0778004f06be00da
:102470004f05be004f04be000000060031e6880094
:102480006a08b900000047008a0078006e01070062
:1024900010002000f4ff370099e888000e0478004f
:1024a0004bd02100080078005d0107006a04440059
:1024b000888f5500fbff3a0060ce210058010700cd
:1024c000c0cd210056010700e0cc210054010700d7
:1024d00060ce2100d0e68800c0cd2100c0e6880093
:1024e000e10f5500c7ff3e00e40515000000eb00ba
:1024f000d00c9800ba0c9800cc0c98000905780014
:102500000d1d78000a0078004c0107006c8444001f
:102510000800780049010700c9049800990c980048
:102520000b0c7800b908900030e68000808f5000d6
:10253000c8ff3600d1ff3700889fbe0090007800aa
:102540000100e0001200320030009000b004900062
:102550006c84440008007800690107008800780056
:10256000e0cc2100380107000001eb00b908900021
:1025700090e8800030089000808f50000100390002
:1025800012002000020078004f04be000000060088
:1025900081047800eeff3700145de200080032008d
:1025a000ca02a900020107000a5de20014003a0015
:1025b000c0122000cff90700145de200f8ff3a00d6
:1025c000fb0007000a5de2002b003200cac2bf0018
:1025d000614160000281ea008381ea00614161009b
:1025e000cac2bf000004a10002407000cae2b700e6
:1025f000f2000700c0122000bef90700eeff37000e
:102600008003eb000003eb0086027800140020003a
:102610008601780092062000c13128002036210072
:10262000e7fa07008003eb000003eb008602780066
:102630001400200086017800920620000132280054
:1026400080392100defa07008003eb000003eb0075
:10265000860278001400200086017800920620008f
:1026600041322800e03c2100d5fa0700c0122000ca
:10267000a0f90700d0ff370040e88000fcf7070012
:1026800030e88000faf7070030e88000f8f707002c
:1026900010c0b3000afdb700cac2bf0061416000ac
:1026a0000281ea008381ea0061416100cac2bf0081
:1026b0000004a10002407000cae2b700bf0007009a
:1026c000ccff3700cbc2bf004600de006141600096
:1026d0000281ea008381ea00614161004611dd0068
:1026e000cbc2bf000064a10002407000cbe2b70083
:1026f000001920007ff90700cbc2bf004600de00b2
:10270000614160000281ea008381ea006141610069
:102710004611dd00cbc2bf000064a1000240700082
:10272000cbe2b7000019200072f90700e5ff37007f
:10273000cbc2bf004500de00614160000281ea00bb
:102740008381ea00614161004511dd00cbc2bf0019
:102750000054a10002407000cbe2b7000019200035
:1027600064f90700cbc2bf004500de006141600094
:102770000281ea008381ea00614161004511dd00c8
:10278000cbc2bf000054a10002407000cbe2b700f2
:102790000019200057f90700e5ff3700cbc2bf0042
:1027a0004400de00614160000281ea008381ea00aa
:1027b000614161004411dd00cbc2bf000044a100b3
:1027c00002407000cbe2b7000019200049f9070071
:1027d000cbc2bf004400de00614160000281ea001c
:1027e0008381ea00614161004411dd00cbc2bf007a
:1027f0000044a10002407000cbe2b70000192000a5
:102800003cf90700e5ff3700c70107008b0107000f
:102810008003eb000003eb00860278002400200018
:10282000860178009206200081322800c02c210009
:1028300063fa07008003eb000003eb0085d0210062
:10284000140020008601780092062000c131280083
:10285000203621005afa07008003eb000003eb004a
:1028600065d0210014002000860178009206200027
:10287000013228008039210051fa07008003eb0063
:102880000003eb0045d021001400200086017800f1
:102890009206200041322800e03c210048fa07005f
:1028a000f7fa070000000500010878008000eb003f
:1028b000110098002100980032009800e8004000c4
:1028c000602e2800c2312800b0187800800f510017
:1028d000fdff3a00200280008008780034c0bf006d
:1028e0000080fb00900098000000eb00a000980022
:1028f00066804000000006000000eb002008880011
:10290000000888008038210010088800a5c0bf009a
:10291000f1c8b300014060000044a000a5e0b7008a
:102920008460a9009460a8000481a80004a1a90003
:1029300005e1a80060e88000900778004f0078006b
:1029400070e888003400f9004400f9004000f90004
:102950003e00f9003c00f9003a00f9003800f900a7
:102960002c00f9002a00f9002800f9002600f900df
:102970002400f9002200f9003200f9003600f900c5
:102980004f0778004f06be004f05be004f04be0043
:102990004f03be004f02be004f01be004f00be00fd
:1029a0004200f900000006001000050000000600cb
:1029b00042a0a8000e3dec00000006000e1ded0038
:1029c00070e8880001003a0042a0a900000006005b
:1029d0003600f800809fbe00829fbe00849fbe002c
:1029e000869fbe003400f80000002000a00188008f
:1029f0008460a9002ef80700a8150200000000005e
:102a0000000000003400f9004f03be004f02be007a
:102a10004f01be004f00be003600f9000040060026
:102a2000e4004000110098008088eb00310098001d
:102a3000410098000008eb00000006008000eb0059
:102a400041009800000006001001900092019000e3
:102a500093009800a200980092019000a1019800b4
:102a60001101980011009800c00098001008e800bb
:102a7000000006000002780091017800e18f41001b
:102a8000150032006401400012009000908f510048
:102a9000080031001200900090009800210098007a
:102aa000a200980011019800c4009800140ae800e0
:102ab000000006001201900012009000908f51005b
:102ac000f4ff39001201900012009000908f510025
:102ad000f8ff3100efff3700400190001200900036
:102ae0009000980021009800a20098001101980021
:102af000c4009800140ae80000000600edff37004b
:102b000080007800100090002101900022009800c1
:102b1000a1019000900198004101900012009000e6
:102b2000810f5000040032000000eb00c00098004c
:102b30001209e90000000600130198000000eb00f4
:102b4000c00098001209e90000000600faff3700f3
:102b50004200f800801f7800000220001002880068
:102b6000811f7800829fbe00849fbe00869fbe00aa
:102b7000889fbe008a9fbe008c9fbe008e1f78007b
:102b80003600f8003200f8002200f8002400f800b7
:102b90002600f8002800f8002a00f8002c00f800b1
:102ba0003800f8003a00f8003c00f8003e00f80059
:102bb0004000f8004400f8003400f80070e880009d
:102bc000801f780060e880000f0878003a07020054
:102bd0000000000060e88000900778004f00780057
:102be00070e888003400f9004400f9004000f90062
:102bf0003e00f9003c00f9003a00f9003800f90005
:102c00002c00f9002a00f9002800f9002600f9003c
:102c10002400f9002200f9003200f9003600f90022
:102c20004f0778004f06be004f05be004f04be00a0
:102c30004f03be004f02be004f01be004f00be005a
:102c40004200f900000006006ac0a9006ae0a9007d
:102c5000c822ef000080eb005016880080e8880052
:102c600000000600881f7800120020000014dd001c
:102c70000100e000080032004dff07000800780066
:102c8000101db70080e88800501688004bff070031
:102c90004f0478000000060045ff07000800780098
:102ca0000080ea008180ea0082e880000001610083
:102cb00082e888005216880040ff07004f04780021
:102cc00000000600f4ff3700881f78001100200084
:102cd000000cdd0036ff070082e88000020064007f
:102ce00009003200080078000080ea008180ea00d4
:102cf0000000610080e88800501688002fff070060
:102d00004f047800000006000200740080e888008c
:102d10005016880029ff07004f04780000000600c5
:042d2000f9ff370080
:020000040000fa
:102d24000a1d000002000000020000000000000074
:102d3400041d000006000000000000000c1d00003f
:102d4400020000000200000000000000521c00000d
:102d540074000000000000000e1d000002000000ce
:102d640002000000ef000000500800000214000000
:102d740000000000101d0000020000000000000020
:102d8400121d00000200000002000000000000000c
:102d9400c61c00003e00000000000000141d0000de
:102da400020000000200000001000000000000001a
:020000040000fa
:102db400881f7800000478000008a3000200320095
:102dc4000000a1000084e80051f607008242800060
:102dd40082004400f03f2100808f5000050036003f
:102de4000004eb0078f70700080078004f0478002f
:102df40000000600810f5100f9ff310020852000fa
:102e040000044100814288006ff707000800780041
:102e14004f04780000000600f6ff370000000600ab
:102e24005028ef000000060000402100814280008d
:102e34000100500000000600c822ef00c8e2a8000c
:102e440000002f00501688008400a9009400a800f8
:102e54008200a80000000600809fbe00821f780048
:102e640014ddbf000080fb000000e9004f00de001d
:102e740014fdb700b22c2000124178000281fb003f
:102e84004710de000080ea008180ea004700dd0090
:102e9400b22c2000124178000274a100004171009c
:102ea40002007800cbe2b7008400a9004f0178004b
:102eb4004f00be000040060090022000303a880017
:102ec400764040004467b60000ceb3004467b600c5
:102ed40012002000a1092000800720003374200084
:102ee4008049780081497800824978007105200082
:102ef4006004200023742000804978008149780010
:102f04008249780043c7bf000047b200f04f500029
:102f1400fcff3a0042c7bf000058a300fdff320087
:0c2f24000000060047ff0700e3ff370035
:020000040000fa
:042f30000000fe009f
:00000001FF
