:020000040000fa
:080000000002040000000000f2
:020000040000fa
:100400000fd02100007f24000001880000000000c0
:100410000c000700c0392100010020001100070076
:10042000000020000000e000020032000000020096
:100430000000000084110200000000000040da000b
:100440000000fe004440a900c00420000000e000bd
:100450000300320000002000a00188004440a800f2
:100460000000060091018800800078000000eb0089
:1004700015003700e280400032a0b4009101ba00bc
:10048000e280400032a0b4009102ba00e280400055
:1004900032a0b4000002eb00472bde00f507b200eb
:1004a000602ce10004003a000059eb008301e900f0
:1004b000fdff3e00040037006128e100010032002a
:1004c0000082eb00040007001101ba000200e00006
:1004d000e8ff3a00000006003159ba008301e90044
:1004e0000c0032002159ba008301e90008003200f3
:1004f0000400e00003003a00e280400032a0b400b3
:10050000f5ff370011d9ba008301e900faff3a007c
:100510008100e800e180400032a0b4000000060045
:100520001a11040000000000261104000000000061
:1005300032110400000000003e1104000000000021
:10054000c4070400000000008001eb000200370037
:1005500061f079008301e800828f5100fcff3a00ce
:10056000000006008001eb00020037008171780076
:100570008301e800828f5100fcff3a000000060072
:1005800000037800800178000002eb0001003700d2
:100590008059780084025100820f52000900320015
:1005a00064c078000402e8000004e000f8ff3a00ac
:1005b000830078008058eb0005804100808f500058
:0c05c000fcff3a00060078000000060076
:020000040000fa
:0200000401f009
:04000c00f8ff0000f9
:020000040000fa
:0200000401f009
:040010007fff00006e
:020000040000fa
:0200000401f009
:040014007fff00006a
:020000040000fa
:10000800ce130000ce130000ce130000ce13000064
:10001800ce130000ce130000ce130000ce13000054
:10002800ce130000ce130000ce130000ee10000027
:10003800ce130000ce130000ce130000ce13000034
:10004800ce130000ce130000ce130000ce13000024
:10005800ce130000ce130000ce130000ce13000014
:10006800ce130000ce130000ce130000ce13000004
:10007800ce130000ce130000ce130000ce130000f4
:10008800ce130000ce130000ce130000ce130000e4
:10009800ce130000ce130000ce130000ce130000d4
:1000a800ce130000ce130000ce130000ce130000c4
:1000b800ce130000ce130000ce130000ce130000b4
:1000c800ce130000ce130000ce130000ce130000a4
:1000d800ce130000ce130000ce130000ce13000094
:1000e800ce130000ce130000ce130000ce13000084
:1000f800ce130000ce130000ce130000ce13000074
:10010800ce130000ce130000ce130000ce13000063
:10011800ce130000ce130000ce130000ce13000053
:10012800ce130000ce130000ce130000ce13000043
:10013800ce130000ce130000ce130000ce13000033
:10014800ce130000ce130000ce130000ce13000023
:10015800ce130000ce130000ce130000ce13000013
:10016800ce130000ce130000ce130000ce13000003
:10017800ce130000ce130000ce130000ce130000f3
:10018800ce130000ce130000ce130000ce130000e3
:10019800ce130000ce130000ce130000ce130000d3
:1001a800ce130000ce130000ce130000ce130000c3
:1001b800ce130000ce130000ce130000ce130000b3
:1001c800ce130000ce130000ce130000ce130000a3
:1001d800ce130000ce130000ce130000ce13000093
:1001e800ce130000ce130000ce130000ce13000083
:0801f800ce130000ce1300003d
:020000040000fa
:10020800ce130000ce130000ce130000ce13000062
:10021800ce130000ce130000ce130000ce13000052
:10022800ce130000ce130000ce130000ee10000025
:10023800ce130000ce130000ce130000ce13000032
:10024800ce130000ce130000ce130000ce13000022
:10025800ce130000ce130000ce130000ce13000012
:10026800ce130000ce130000ce130000ce13000002
:10027800ce130000ce130000ce130000ce130000f2
:10028800ce130000ce130000ce130000ce130000e2
:10029800ce130000ce130000ce130000ce130000d2
:1002a800ce130000ce130000ce130000ce130000c2
:1002b800ce130000ce130000ce130000ce130000b2
:1002c800ce130000ce130000ce130000ce130000a2
:1002d800ce130000ce130000ce130000ce13000092
:1002e800ce130000ce130000ce130000ce13000082
:1002f800ce130000ce130000ce130000ce13000072
:10030800ce130000ce130000ce130000ce13000061
:10031800ce130000ce130000ce130000ce13000051
:10032800ce130000ce130000ce130000ce13000041
:10033800ce130000ce130000ce130000ce13000031
:10034800ce130000ce130000ce130000ce13000021
:10035800ce130000ce130000ce130000ce13000011
:10036800ce130000ce130000ce130000ce13000001
:10037800ce130000ce130000ce130000ce130000f1
:10038800ce130000ce130000ce130000ce130000e1
:10039800ce130000ce130000ce130000ce130000d1
:1003a800ce130000ce130000ce130000ce130000c1
:1003b800ce130000ce130000ce130000ce130000b1
:1003c800ce130000ce130000ce130000ce130000a1
:1003d800ce130000ce130000ce130000ce13000091
:1003e800ce130000ce130000ce130000ce13000081
:0803f800ce130000ce1300003b
:020000040000fa
:1005cc0011110000222200003333000044440000cb
:1005dc00555500006666000077770000888800009b
:1005ec0099990000aaaa0000bbbb0000cccc00006b
:1005fc00dddd0000eeee0000cecd0000acab000067
:10060c0002020000030300000404000005050000c2
:10061c000606000007070000080800000a09000091
:10062c001010000010110000121200005473000092
:10063c0031000000547300003200000054730000bd
:10064c0033000000547300003400000049440000e3
:08065c004c4500000000000005
:020000040000fa
:100664000000fa005a3cec000080fa00000006008a
:100674000000fa00889fbe008a1f780000057800f9
:1006840081047800e38f5000010036003900200017
:10069400c5060700c0e780008a0f500002003a0038
:1006a4000005eb00020037000a00e00002003a00f7
:1006b400c8e78000010037000a047800b8089000f9
:1006c400818f540024003200030036000a00e00049
:1006d40003003a00040037000a00e00002003a0078
:1006e4001a002000010037000005eb00390c9800c7
:1006f40064801400600498006a09b90020c92100cc
:1007040002004000d8009000808f50000d003a0095
:100714008884e8000900780059070700b8089000a9
:10072400c0e28000808f500001003600c1e28800e2
:100734006a09b90020c9210002004000890078003c
:1007440029070700e10f550003003a006412020074
:100754000000000000000000980607004f05780024
:100764004f04be000080fa00000006000000fa00fa
:10077400889fbe008a1f7800800478008a060700dc
:10078400c0e78000890f500002003a008004eb00ab
:10079400020037000900e00002003a00c8e78000c8
:1007a40001003700090478000885e8000a00780091
:1007b40033070700280890000000e0000200320020
:1007c4006c0044002e0707008a00780060c62100f0
:1007d40005070700790607000900e00003003a0056
:1007e4006412020000000000000000004f057800c1
:1007f4004f04be000080fa00000006000000fa006a
:1008040000017800d000900060c62100808f500065
:1008140007003a00a208900000c72100808f500012
:1008240003003200100020000100e000010032004b
:100834000000eb000080fa00000006000000fa004f
:10084400889fbe00000478000000e0001e00320013
:10085400c0e78000800f54001b00320052060700de
:1008640008007800e5ff0700e10f500015003a008a
:100874008884e8000900780001070700b8089000a0
:10088400c0e28000808f500001003600c1e2880081
:100894006a09b90020c921000200400089007800db
:1008a400d1060700c0e78000b80890003008900027
:1008b400808f500003003900641202000000000021
:1008c400000000003d0607004f04be000080fa004f
:1008d400000006000000fa00889fbe008a1f78000e
:1008e40000047800c5ff07000005eb00e10f50008d
:1008f4001c003a00d1e280000100e00015003a003b
:10090400c0e7800001057800b80890003008900026
:10091400808f5000010039001a0020008884e8000c
:1009240009007800d6060700b8089000c0e28000ed
:10093400808f500001003600c1e288006a09b900c6
:1009440020c921000200400089007800a6060700a3
:1009540004003700ec00440000c72100a206070091
:100964000005eb000a0078004f0578004f04be0034
:100974000080fa00000006000000fa0042a0a8006f
:10098400603cef00050607000080fa000000060046
:100994000000fa00881f78005a1ce2002b003a007d
:1009a400543cec00541ce20005003a00e0e38000f3
:1009b400d1e38000e1e38800d0e38800563cec00fa
:1009c400e0e380001000e00022003a002a00370033
:1009d40098009000a0e28000808f500026003e0026
:1009e4000880e800a6060700280890000000e00040
:1009f400020032006c004400a1060700b808900011
:100a0400c0e28000808f500001003600c1e28800ff
:100a14008880e800380990006a11b90020c92100d3
:100a24000200400070060700e0e380001000e000d0
:100a340011003200e0e380003000900030049000a8
:100a44000800e000e2ff3a000b0037005c3cec00d9
:100a540009003700e0e3800030009000300490008b
:100a64000800e0000400320098009000a0e280003a
:100a7400808f5000daff36004f0478000080fa00bf
:100a8400000006000000fa00889fbe00c6050700ab
:100a94005a3ced00d0e280000000e00033003a0050
:100aa4005e1ce2003100320080047800150037003b
:100ab4006c004400720607000880e8007006070016
:100ac400b8089000c0e28000808f5000010036001a
:100ad400c1e288008880e800380990006a11b900f2
:100ae40020c92100020040003f060700b80890001a
:100af400c0e7800030089000808f5000010039006a
:100b040019002000701ce20005003200b0e38000f0
:100b140030009000000478000000e000e4ff3a0098
:100b24005c1ce20013003a000500370098ff070040
:100b34005c3ced005c1ce20006003200fbff370069
:100b4400e18f54000300320090e28000e10f500076
:100b540006003a00523cef0064120200000000005c
:100b64000000000018002000050037000004eb001e
:100b7400030037005c1ce200f6ff3200ebff370095
:100b84008e050700080078004f04be000080fa00bc
:100b9400000006000000fa00889fbe008004780070
:100ba4000000e00016003200adfe0700a8e280005d
:100bb40008844400f89cec0031060700c0e780007c
:100bc40018009800a0e28000800f54000500310056
:100bd400c1e78000d0e380008180e80010060700b0
:100be40004003700c1e78000e0e380008180e80072
:100bf4000b060700a3ff07000000e00003003a0013
:100c04006412020000000000000000004f04be0057
:100c14000080fa00000006000000fa00889fbe0071
:100c240080047800010478008dfe070099007800a4
:100c340008844000a0e28000808f5000030036004a
:100c4400888f50000600360002003700888f50005d
:100c540005003e00a0e28000800f540002003e0028
:100c64000000eb000100370010002000880c780021
:100c74000000e00010003200f89cec0000060700c1
:100c8400c0e7800018009800a0e28000800f5400a4
:100c940005003100c1e78000d0e380008180e800d6
:100ca400df05070004003700c1e78000e0e38000af
:100cb4008180e800da05070072ff07000000e00009
:100cc40003003a006412020000000000000000006b
:100cd4004f04be000080fa00000006000000fa0085
:100ce400881f780030050700a8e28000330507005c
:100cf400080078004f0478000080fa000000060025
:100d04000000fa00f0e280000080fa000000060013
:100d14000000fa005a1ce200150032001000200006
:100d240090e2880019003700583ced0010003700ad
:100d3400c0e280006a00b90022c92100800041009d
:100d4400110090001001900092009800648040000f
:100d5400800f510002003a001201900092009800a6
:100d64001100900030009000c0e7880007003700b1
:100d7400c0e280006a00b90022c921006200780044
:100d84000000e000e8ff3200e9ff37000080fa00cd
:100d9400000006000000fa00881f780001047800b3
:100da400c1e78000ec8040009d050700f89cec0042
:100db400b3050700e10f440005003a00c1e78000d5
:100dc4008180e80060c62100870507001000370015
:100dd400a0e2800000004400c1e780009000980079
:100de400a1e28000810f500005003100c1e78000be
:100df400d0e380008180e800890507000400370003
:100e0400c1e78000e0e380008180e80084050700fa
:100e14004f0478000080fa00000006000000fa0089
:100e2400881f780080007800100078000000e0003f
:100e340002003a00000478000200370031009000fc
:100e4400300490006c0044008d0507005a1ce20039
:100e54000e003a000880e80089050700b8089000f1
:100e6400c0e28000808f500001003600c1e288009b
:100e74008880e800380990006a11b90020c921006f
:100e8400020040005805070003003700ec0044004e
:100e940000c721005405070038089000c1e780000e
:100ea400b10890000001eb00810f500001003900ef
:100eb40012002000020078004f0478000080fa003d
:100ec400000006000000fa00b1e28000010878008a
:100ed400a1e28000110098000080fa0000000600e2
:100ee4000000fa00889fbe008a1f78000004780082
:100ef40001057800ac0407001a0178008004eb00b7
:100f0400e10f410014003200b0e28000980f10009d
:100f140004003200a1e2800018009000810f50000c
:100f24000c0036009800900001007800541cb500b5
:100f3400800f51000700360001007800541cb500f2
:100f4400000d510008007800deff07008004eb006c
:100f540001003700190020009804070009007800f8
:100f64004f0578004f04be000080fa000000060020
:100f74000000fa001000200090e288000080fa00cf
:100f8400000006000000fa0090e48000e10f500029
:100f9400fdff3600641202000000000000000000a3
:100fa400f9ff37000600fa00889fbe008a9fbe0042
:100fb4008c9fbe00000f7800810578000204780041
:100fc40013079800040678002507980006057800a2
:100fd40000022000b1050700800478000080eb00c7
:100fe4000900e000710032000a00e00003003a004a
:100ff40008004400a905070000057800ca0c980001
:101004000a00e00004003a0009007800bc0507006b
:101014000080eb00650037000804440008017800f4
:10102400510a20000a0078004dfd0700490d900088
:10103400080445000884e900f80c98007a8044000c
:10104400420020008b0078004cfd07000040eb00bc
:10105400d05c9800300020001b002000800f560058
:1010640002003e00e40516000c007800b00c980065
:101074008986e8000d007800d60407006c844400db
:1010840008007800d3040700c90498000b0c78000a
:10109400990c98001e0190009e0078000a007800c8
:1010a400f8030700800c78003f0407005e3cec0066
:1010b400f0e28000e10f500015003a00c9e7880013
:1010c40028c92100aacb210008007800b804070031
:1010d4006a044400880f5500fbff3a0080c82100d1
:1010e400b3040700e0c72100b104070000c72100d2
:1010f400af04070060c62100ad04070080c82100ca
:10110400e0e38800e0c72100d0e38800070037004f
:10111400601ce20005003a00c0e78000300890003f
:10112400800f560001003900c9e78800b908900013
:1011340020e38000808f50000100360021e3880006
:10114400623cec00c0e28000808f50000100360059
:10115400c1e288006a09b90020c9210002004000e8
:101164008d007800a0040700140407002e009000ee
:101174000000e0000100320009087800601ce20071
:1011840009003200c0e78000300890008c0f500046
:10119400050031006412020000000000000000009d
:1011a4001000200001003700100020004f06be0090
:1011b4004f05be004f04be000080fa000000060088
:1011c4000000fa008003eb000003eb0086027800c5
:1011d400060278008601780092062000c1322800b9
:1011e400407c20006fff0700e10f500004003a002c
:1011f40042a0a80000e38800543cef00b7030700b6
:101204000080fa00000006000000fa00889fbe007b
:101214008a9fbe0080047800010578000000e00089
:1012240024003200600220001c050700000478003e
:101234000000e0001f0032000ac8b90080057800f1
:101244000000e8001505070000017800000c780094
:101254000000e000130032000b004000100498006e
:101264000000eb00600c9800220498000900e900db
:1012740000d0b9000000410030049800790c9800b7
:101284000a1498000080eb001014980020149800b1
:101294006800440046040700720044004404070048
:1012a4000500370008007800150507000004eb006e
:1012b400010037000004eb00080078004f05be0071
:1012c4004f04be000080fa00000006000000fa008f
:1012d400889fbe0000047800b3030700e80890006c
:1012e4008004eb0078089000808f500001003a00e1
:1012f40019002000b1030700090078004f04be0064
:101304000080fa00000006000000fa00881f780040
:1013140000047800a4030700680c9000a7030700ea
:10132400080078004f0478000080fa0000000600ee
:101334000000fa00600890000080fa000000060037
:101344000000fa00881f780000047800100078007c
:10135400eb04070008007800e90407004f04780054
:101364000080fa00000006000000fa00881f7800e0
:101374000004780002007800081190000200e000e8
:10138400190032000000e0000c003a002800900030
:101394006cfc0700280090008810900001004000b9
:1013a4002004980098009000810f50000e0039002e
:1013b40018007800200498000b00370038009000d3
:1013c40060fc070038009000881090000100500075
:1013d40030049800980f500003003100180090006a
:1013e4000100500030049800680890000000e800f4
:1013f400600c98004f0478000080fa00000006009a
:101404000000fa00889fbe00000478000102780002
:101414008204780003017800e008900070089000ce
:101424008001eb00808f50001600310084007800aa
:1014340008007800ccff070028109000e10f40005e
:101444000b003a00180890000000e0000c00320085
:101454007200440071fe07000000e0000800320042
:1014640010002000800c780080017800050037000f
:101474000000e80020149800130020000100370049
:1014840013002000030078004f04be000080fa001f
:10149400000006000000fa000001780081017800d5
:1014a4001000e0000e003200300090008210900026
:1014b400010040003001980092009000810f50001c
:1014c40002003900120078003001980066004100e3
:1014d40090007800021190000300780019fc0700c6
:1014e4000080fa00000006000000fa00889fbe0099
:1014f4000004780082047800600890000000e00096
:101504001700320008007800e2ff07006808900026
:101514000000e900600c980018109000e10f4000f2
:101524000a003a00480090000000e0000b0032007e
:101534006800440039fe07000000e00007003200a4
:1015440010002000800c7800050037000000e8003f
:101554001014980010002000010037001000200033
:101564004f04be000080fa00000006000000fa00ec
:10157400881f7800000478000b03070028109000ef
:101584000000e00029003c000d003700180890001e
:101594000000e0000a003200720044001ffe070051
:1015a4000000e0000100320071fe070028109000e6
:1015b4000000e900201498004240a900f3ff3c0019
:1015c4000080eb0020149800fc020700f6020700dc
:1015d400181090000000e00018003c000d003700d7
:1015e400480090000000e0000a0032006800440057
:1015f4000afe07000000e000010032005cfe070064
:10160400181090000000e900101498004240a9004e
:10161400f3ff3c000080eb0010149800e702070081
:101624004f0478000080fa000000060018089000bb
:101634000000e000e2ff3200d7ff370048009000ce
:101644000000e000f3ff3200e8ff37000600fa0074
:10165400889fbe008a9fbe008c1f7800800478009b
:101664008105780022079800030678000005eb0046
:10167400cd020700690890000000e0001f0032005e
:10168400390490008b0078000900780081ff07007e
:101694000c00e0000b003a00690890000000e9002b
:1016a400e00c9800490090000000e00010003200b7
:1016b40068804400d9fd0700e10f50000c003a0097
:1016c40008003700b8049800190890000000e000f2
:1016d4000700320072804400d0fd07000000e000e3
:1016e4000300320064120200000000000000000049
:1016f400b202070010002000370037002e049000cb
:101704000800e00003003a00ac020700080078007b
:10171400310037000a00e00003003a000e007800b0
:10172400e8fd07001a002000a4020700ccfb070014
:101734009d02070019109000e10f400002003a00da
:101744000000eb009014980029109000e10f400075
:1017540002003a000000eb00a01498009702070072
:10176400e40047000e007800ddfd07000000e00003
:1017740015003a008c020700690c90008f020700e4
:101784000800e0000c003a00ae00900072804400b3
:1017940080fd07000900780074ff0700b9fc07000a
:1017a4000000e000b2ff3a006412020000000000f2
:1017b40000000000aeff3700090078006bff07004f
:1017c400b0fc0700aaff37000900780067ff070094
:1017d400acfc07000000eb004f0678004f05be008c
:1017e4004f04be000080fa00000006000600fa0064
:1017f400889fbe008a9fbe008c1f780080047800fa
:101804000106780022079800830578000005eb00a4
:1018140065020700e908900079089000808f500065
:10182400110031000b0178008c0078000900780069
:10183400cdfe0700190890000000e0000700320008
:101844007280440075fd0700e10f500003003a0068
:1018540064120200000000000000000057020700ac
:1018640010002000360037002e0490000800e0002d
:1018740003003a00510207000800780030003700e6
:101884000a00e00003003a000e0078008dfd070016
:101894001a0020004902070071fb070042020700fa
:1018a40019109000e10f400002003a000000eb0024
:1018b4009014980029109000e10f400002003a00b3
:1018c4000000eb00a01498003c020700e40047006d
:1018d4000e00780082fd07000000e00014003a00ca
:1018e4000900780079fe07000000e0000c003200d7
:1018f400ae0090006880440026fd070009007800cf
:101904001aff07005ffc07000000e000c0ff3a0078
:10191400641202000000000000000000bcff370059
:101924000900780011ff070056fc0700b8ff3700d4
:10193400090078000dff070052fc07000000eb00cf
:101944004f0678004f05be004f04be000080fa0029
:10195400000006000000fa00e00890000100ea0020
:10196400010070004f00de00610010000080fa00ea
:10197400000006000000fa00e00890000001eb00ff
:1019840070089000808f500001003a00120020007f
:10199400020078000080fa00000006000000fa004f
:1019a400889fbe008a1f7800000478000105780033
:1019b4008204780042a0a80044fe07000000e00072
:1019c4000b0032000900e00006003200e800440089
:1019d40009007800a300070042a0a900c0ff2f005f
:1019e4001a00370042a0a9000000eb0017003700de
:1019f40042a0a9000000000042a0a800e80890004e
:101a0400780890000001eb00808f50000d00310039
:101a14000001eb008a0078000800780052fe0700fd
:101a2400180890000000e000050032007200440035
:101a34007a010700b2ff2f000000e00001003a0025
:101a44001200200042a0a900020078004f0578008f
:101a54004f04be000080fa00000006000000fa00f7
:101a6400881f7800000478008101780042a0a80053
:101a7400600890000000e0000b003a000200e00063
:101a840006003200f20044000200780075000700ee
:101a940042a0a900c0ff2f002700370042a0a900e0
:101aa4000000eb002400370042a0a9000000000061
:101ab40042a0a800680890000000e00002003a007c
:101ac400800078001a0037003800900088109000d9
:101ad400010040003004980098009000810f5000ed
:101ae400020039001800780030049800680890005b
:101af4000000e900600c9800660044009000780043
:101b040008119000030078008efa07004800900046
:101b14000000e00005003200680044003f010700b7
:101b2400b1ff2f000000e00001003a001100200086
:101b340042a0a900010078004f0478000080fa0058
:101b4400000006000000fa00889fbe000004780030
:101b54008101780082047800e00890007008900009
:101b6400808f50000f0031000001eb0083007800eb
:101b740008007800fcfd07000900e00009003a00b5
:101b8400180890000000e0000800320072004400d1
:101b940022010700110020000000e00004003a00c8
:101ba4000200370089007800010037008000eb0054
:101bb400010078004f04be000080fa000000060017
:101bc4000000fa00889fbe000004780081017800bc
:101bd40082047800600890000000e0001e003200db
:101be40038009000881090000100400030049800f4
:101bf40098009000810f500002003900180078000e
:101c040030049800680890000000e900600c980017
:101c140066004400900078000811900003007800ea
:101c240048fa07001900e0000a003a004800900052
:101c34000000e0000700320068004400f7000700dd
:101c44000000e0000300320010002000800c780047
:101c540001003700100020004f04be000080fa008d
:101c6400000006000000fa00889fbe000001780012
:101c740081047800e0e5800000044100fe9cec0053
:101c8400ff010700f0e7800018009800e0e58000fd
:101c9400800f540005003100f1e780008180e800e6
:101ca40060e68000de01070004003700f1e78000f1
:101cb4008180e80070e68000d90107000900e00097
:101cc40004003200f1e78000ec8040000900780055
:101cd400d30107004f04be000080fa000000060094
:101ce4000000fa00881f7800c21ce2001a003200cb
:101cf40042a0a80010e680000000e00002003a00c4
:101d0400000478000200370040e6800030049000b0
:101d14006c004400da01070042a0a9000880e80032
:101d2400d7010700b8089000d0e58000808f5000ec
:101d340001003600d1e588008880e8003809900069
:101d44006a11b90040ce210002004000a60107003c
:101d5400c21ce200e6ff3a00e0fb070001e6800057
:101d640001005000f0e588002e003700e1e5800016
:101d74008100e800e1e588000000e900f0e5880062
:101d84000100e00004003a0070e6800062e6800092
:101d940072e6880060e6880070e680001000e000cb
:101da4004e003a001f00370098009000e0e58000e4
:101db400808f50001b003e0042a0a8000880e8006d
:101dc400af010700280890000000e0000200320084
:101dd4006c004400aa01070042a0a900b8089000c2
:101de400d0e58000808f500001003600d1e58800e6
:101df4008880e800380990006a11b90040ce2100bb
:101e0400020040007801070070e680001000e00046
:101e14000400320030009000300490000800e0001c
:101e2400e1ff3a00f0e580000000e000cfff3a0057
:101e3400e0e5800000e68800d4e580006a20b9006f
:101e440042ce2100800041001100e0001b0032005e
:101e54000b0037000201e8006a005000840f5100b3
:101e640002003a00d3e58800240037008301e9002a
:101e7400800078001000e000f6ff3200d3e588000f
:101e840011009000100190009200980064804000be
:101e9400800f510002003a00120190009200980055
:101ea4001100900030009000f0e7880010017800e5
:101eb400c008900002000100100037000400e00098
:101ec4000e0032006a20b900a2cd210000004100ba
:101ed400840178000001eb00e4ff3700300090003b
:101ee400300490000800e000ceff3200180090009b
:101ef400808f5000cbff3900afff37004f047800cc
:101f04000080fa00000006000000fa00889fbe006e
:101f14008a9fbe008c9fbe00800678000104780072
:101f240002067800c0012000dc010700800478006c
:101f34000080eb000900e00033003200fe1ce200e8
:101f440012003a00f9e788004ace21008bcf210025
:101f54000a007800160107006a0545008a8f5500bb
:101f6400fbff3a00a0cd21001101070000cd2100a4
:101f74000f01070020cc21000d010700a0cd210096
:101f840070e6880000cd210060e68800e10f54006f
:101f940003003600180020003b0020000100370039
:101fa400e40514000000eb00d00c9800b80c980075
:101fb400cc0c9800090578000d1d78000a00780003
:101fc400040107006c844400080078000101070044
:101fd400c9049800990c98000b0c7800b90890007b
:101fe400d0e58000808f500001003600d1e58800e4
:101ff4006a09b90040ce2100020040008a0078003e
:10200400f9000700100020004f06be004f05be0077
:102014004f04be000080fa00000006000000fa0031
:10202400889fbe00900078000100e00002003a00a2
:10203400810478000200370030009000b004900062
:102044006c844400080078000d01070088007800c3
:1020540020cc2100e4000700b9089000f0e78000dc
:10206400300890000001eb00808f5000010039001f
:1020740012002000020078004f04be000080fa0025
:10208400000006000000fa00010878008000eb0060
:10209400110098002100980032009800e8004000e8
:1020a400602e2800c2312800b0187800800f51003b
:1020b400fdff3a00200280008008780034c0bf0091
:1020c4000080fb00900098000000eb00a000980046
:1020d400668040000080fa00000006000000fa005c
:1020e4000000eb00200888000008880080382100e8
:1020f40010088800a5c0bf00f1c8b300014060000b
:102104000044a000a5e0b7008460a9009460a80082
:102114000481a80004a1a90005e1a800c0e780008b
:10212400900778004f007800d0e788003400f90069
:102134004400f9004000f9003e00f9003c00f900b9
:102144003a00f9003800f9002c00f9002a00f900df
:102154002800f9002600f9002400f9002200f90003
:102164003200f9003600f9004f0778004f06be0030
:102174004f05be004f04be004f03be004f02be0019
:102184004f01be004f00be004200f90000000600ef
:10219400100020000080fa00000006000000fa0091
:1021a4000080fa00000006000000fa0042a0a80027
:1021b400fa3cec000080fa00000006000000fa007f
:1021c400fa1ced00d0e7880001003a0042a0a90003
:1021d4000080fa00000006003600f800809fbe0070
:1021e400829fbe00849fbe00869fbe003400f8001c
:1021f40000002000a00188000000fa008460a9000b
:10220400e3f907006412020000000000000000006f
:102214000080fa003400f9004f03be004f02be00f4
:102224004f01be004f00be003600f900004006001a
:102234000000fa00f00020000201070080bb20002b
:1022440054fa0700fbff37000000fa00e00020000a
:10225400fc000700007d20004efa0700fbff37005a
:102264000000fa00d0002000f6000700803e2000a5
:1022740048fa0700fbff37000000fa00c000200006
:10228400f0000700803e200042fa0700fbff370001
:102294000000fa0090022000303a880076404000a6
:1022a4004467b60000ceb3004467b60012002000b5
:1022b400a1092000800720003374200080497800a1
:1022c400814978008249780071052000600420006b
:1022d400237420008049780081497800824978007d
:1022e40043c7bf000047b200f04f5000fcff3a0064
:1022f40042c7bf000058a300fdff32000080fa006f
:10230400000006000000fa00ac000700e0ff070030
:102314008003eb000003eb00860278001400200029
:102324008601780092062000c1312800a011210006
:102334001cfb07008003eb000003eb00860278001f
:102344001400200086017800920620000132280043
:102354006012210013fb07008003eb000003eb0075
:10236400860278001400200086017800920620007e
:1023740041322800201321000afb07008003eb00f0
:102384000003eb0086027800140020008601780028
:102394009206200081322800e013210001fb07008f
:1023a40087fb07000000eb000080fa000000060035
:1023b4000000fa00e4004000110098008088eb005f
:1023c40031009800410098000008eb000080fa00fa
:1023d400000006000000fa008000eb0041009800b5
:1023e4000080fa00000006000000fa00900190004e
:1023f400130190009200980010019000a200980030
:102404001301900021019800910198001100980097
:10241400c00098001008e8000080fa0000000600e0
:102424000000fa000002780091017800e18f410079
:1024340002003a00400190000800370064014000a7
:1024440012009000908f5100040039001201900096
:1024540012009000908f5100fcff31001200900098
:102464009000980021009800a200980011019800a3
:10247400c4009800140ae8000080fa000000060076
:102484000000fa0080007800100090002101900004
:1024940022009800a1019000900198004101900051
:1024a40012009000810f500001003a0013019800bf
:1024b4000000eb00c00098001209e9000080fa0057
:1024c400000006004200f800801f7800000220008f
:1024d40010028800811f7800829fbe00849fbe0086
:1024e400869fbe00889fbe008a9fbe008c9fbe0050
:1024f4008e1f78003600f8003200f8002200f80041
:102504002400f8002600f8002800f8002a00f8004b
:102514002c00f8003800f8003a00f8003c00f800fd
:102524003e00f8004000f8004400f8003400f800d1
:10253400d0e78000801f7800c0e780000f08780093
:102544008a06020000000000c0e7800090077800bf
:102554004f007800d0e788003400f9004400f90007
:102564004000f9003e00f9003c00f9003a00f9008f
:102574003800f9002c00f9002a00f9002800f900bd
:102584002600f9002400f9002200f9003200f900c5
:102594003600f9004f0778004f06be004f05be0015
:1025a4004f04be004f03be004f02be004f01be00e9
:1025b4004f00be004200f900000006000000fa00cf
:1025c4006ac0a9006ae0a900c822ef000080eb00fd
:1025d40050168800e0e788000080fa00000006003a
:1025e4000000fa00881f7800120020000014dd00ab
:1025f4000100e00007003200ebfe0700080078004d
:10260400fc1cb700e0e7880050168800ebfe0700ca
:1026140009003700e4fe0700080078000080ea00a3
:102624008180ea00e2e7800000016100e2e78800bf
:1026340052168800e1fe07004f0478000080fa007b
:10264400000006000000fa00881f78001100200036
:10265400000cdd00d4fe0700e2e780000200640005
:1026640007003200080078000080ea008180ea0058
:1026740000006100e0e7880050168800030037007e
:1026840002007400e0e7880050168800cbfe0700c3
:102694004f0478000080fa00000006000000fa00f1
:1026a400881f7800000478000008a30002003200ac
:1026b4000000a1000084e800e9f7070082428000de
:1026c40082004400f03f2100808f500006003e004d
:1026d400810f5100040031002085200000044100d6
:1026e40081428800010037000004eb00e5f8070090
:1026f400080078004f0478000080fa00000006000b
:102704000000fa000080fa00000006000000fa0051
:102714005028ef000080fa00000006000000fa00d4
:102724000040210081428000010050000080fa0036
:04273400000006009b
:020000040000fa
:10273800f81c000002000000020000000000000079
:10274800521c00006800000000000000fa1c000095
:102758000200000002000000ef0000005008000026
:102768000214000000000000fc1c00000200000031
:1027780000000000fe1c0000020000000200000033
:1027880000000000ba1c00003e000000000000002d
:04279800000000003d
:020000040000fa
:04279c000000fe003b
:00000001FF
