:020000040000fa
:080000000002040000000000f2
:020000040000fa
:100400006fd12100007f240000018800000000005f
:100410000c000700c0d821000100200011000700d7
:10042000000020000000e000020032000000020096
:1004300000000000e8170200000000000040da00a1
:100440000000fe004440a900200820000000e00059
:100450000300320000002000a00188004440a800f2
:100460000000060091018800800078000000eb0089
:1004700015003700e280400032a0b4009101ba00bc
:10048000e280400032a0b4009102ba00e280400055
:1004900032a0b4000002eb00472bde00f507b200eb
:1004a000602ce10004003a000059eb008301e900f0
:1004b000fdff3e00040037006128e100010032002a
:1004c0000082eb00040007001101ba000200e00006
:1004d000e8ff3a00000006003159ba008301e90044
:1004e0000c0032002159ba008301e90008003200f3
:1004f0000400e00003003a00e280400032a0b400b3
:10050000f5ff370011d9ba008301e900faff3a007c
:100510008100e800e180400032a0b4000000060045
:10052000061704000000000040170400000000004f
:100530004e170400000000008817040000000000af
:100540006a0b0400000000008001eb00020037008d
:1005500061f079008301e800828f5100fcff3a00ce
:100560000000060000037800800178000002eb0024
:10057000010037008059780084025100820f520038
:100580000900320064c078000402e8000004e000c2
:10059000f8ff3a00830078008058eb0005804100a6
:1005a000808f5000fcff3a00060078000000060033
:1005b0008001eb0002003700817178008301e800c0
:1005c000828f5100fcff3a00000006008000780096
:1005d000010037000000e8001004e000fdff3a00d1
:1005e00001005000000006000001be003b010700b2
:1005f0000470a70003f0a1006509b10016003200e5
:100600000d0035006828e10006003500f0ff2f00de
:10061000f1ff27000300e00013003b000100280069
:100620000000050000004000818048008502e900cc
:10063000fcff3a0008003700f88f420002003c003f
:100640008000eb00000005008100d1000080d30095
:100650008502e800fcff3a000300e00002003b00d6
:1006600060001000e0801800000006001400200068
:100670002f013700889fbe008a9fbe008c1f780024
:10068000460107004d01330003866c006450e10011
:10069000240032006420e100270032006150e100b4
:1006a000220032006120e100210032008b854200ef
:1006b000eb07b1000134b800003ab800080442006a
:1006c00089844a00013ab8000030b80088804000b0
:1006d00009014a0004003300000040008180480006
:1006e000020149008b05e900c909dd0083017000a2
:1006f0000100320013002000c814de004814dd00a1
:100700004709de001200b200c808de00088470004d
:100710003a01070001f0a1000cf0a70001f0a000d1
:100720002f0137006120e100310132000801be00d5
:100730000200be00f7ff37006150e100fcff3a0005
:100740002b01370003f0a200889fbe008a9fbe00e5
:100750008c1f780011010700180133006450e1007c
:100760004f0032006420e1005200320003826c002e
:1007700007003b000905d0000306d000820f54009b
:100780000c065d0002003900020032008901780089
:10079000030678008582550004003d000003fd003b
:1007a0008103fd008502ea008b854200840f720000
:1007b00002003b0060001000e08018006011b800eb
:1007c0000005eb007a28e1000a00390006007800f5
:1007d000c75ddd00f707b200878075002d00370088
:1007e000828171000a017800610560008180d1007a
:1007f0000080d3008502e900f9ff3b0006044000b9
:100800008784480002003b0060041400e0841c0060
:100810000988a300070032008a817100828171007b
:10082000610164008904d1000884d3008b05e800cd
:10083000170037000978a30013003a000b00e0000e
:10084000130034008b05e9000804440089844c003f
:100850000a4474000978a3000d003a000b00e00080
:10086000070034008b05e9000804440089844c002b
:1008700001003a000b0020000978a300f7ff3200c6
:100880000001eb0002003700828171000a0178004c
:10089000da0007000cf0a70001f0a000d00037003c
:1008a0006420e10002003a00838f6c00d000330026
:1008b0000801be000200be00c9003700889fbe00cc
:1008c0008a9fbe008c1f7800b4000700bb00330075
:1008d00003866c006450e1002e0032006420e100c9
:1008e000330032006150e1002f0032006120e1004e
:1008f0003100320085855500eb07b000090020006b
:1009000008042000050037000804440089844c00d6
:100910000a0031000603430087834b0000015300a7
:1009200081815b00f8ff33000203be000800a000d5
:100930000804440089844c00f6ff3900c639dd0004
:100940008301730001003200130020008904d100ec
:100950000884d3000998a300050032000800a7000e
:100960000300a0008904d1000884d3008b05e800af
:100970008904d1000884d3000001eb000281d20079
:100980009e00070001f0a1000cf0a70001f0a000fc
:10099000930037006420e100950032000801be009a
:1009a0000200be00f7ff37006120e1009000320036
:1009b0006000b800f3ff37000000200001f82700b6
:1009c000f0ff37000001be00440007000470a700dc
:1009d00003f0a10003f8a30013003a006509b10079
:1009e00010003200090035006928e10002003500de
:1009f0000100280000000500000040008180480040
:100a00008502e900fcff3a0000000600f88f420072
:100a1000050035008100d1000080d3008502e80088
:100a2000fcff3a00000006008000eb00000005001b
:100a3000889fbe008a9fbe00010578000100e0008b
:100a40000400350008003c000000e00020003200f7
:100a50000500370060001000e080180002003b0035
:100a600001f02c001a0037000004be006011b8002d
:100a70006b0920000982cf00020039000882cf00f4
:100a80000441b000694252000e00320008003b00f1
:100a900082817100610164008904d1000884d3005f
:100aa0008b05e8000442e800f9ff3a000500370032
:100ab0000804440089844c008b05e9000442e900e5
:100ac000fbff3a004d0007000af0a70001f0a0006c
:100ad0004f05be004f04be0000000600c70ade003e
:100ae000f107b200f50fb20008003200e1cf42007a
:100af000020032000170a00024000500810f700088
:100b0000010032000408050044000500810f700058
:100b100002003a00140005008502e90000004000d0
:100b200081c04800fcff3b000170a00024000500cc
:100b3000889fbe008a9fbe00841f780017000700b0
:100b40004f00780011003300f0ff2f00838f6c00fe
:100b500006003b00040565000a00a70008003700f6
:100b600009f0a6001000200008003700820f540092
:100b7000838f5c00030039001000200001003e005c
:100b80000000200009f0a7000000ea004f05be00a9
:100b90004f04be000000e000000006000004be009c
:100ba000ceff07000003be000405be000200be0029
:100bb000caff0700844f7500000006000200be0057
:100bc0006450e100050036006420e10002003600b8
:100bd0000968a30001003a000800be000160a000ff
:100be0004f0678004f05be004f04be00000006000f
:100bf000f0ff2f00f1ff2700f9ff370081002000f0
:100c0000618055000b003d000b00200061fe2f00ad
:100c10000100e1001d003400828171006101640067
:100c20008904d1000884d3000000e800faff3a00ec
:100c30007100200061006400030070000200600089
:100c40000900320061044400e0844c000988a500da
:100c5000050032008b05e8006808e10002003a0058
:100c60008904d1000884d300f20f20000258e1006b
:100c700005003d00c75ddd00f907b2008980750001
:100c800008007800000006000bf827008b007800b1
:040c9000000005005b
:020000040000fa
:0200000401f009
:04000c00f8ff0000f9
:020000040000fa
:0200000401f009
:040010007fff00006e
:020000040000fa
:0200000401f009
:040014007fff00006a
:020000040000fa
:100008003c1e00003c1e00003c1e00003c1e000080
:100018003c1e00003c1e00003c1e00003c1e000070
:10002800321d00003c1e00003c1e0000de1a0000cd
:100038003c1e00003c1e00003c1e00003c1e000050
:100048003c1e00003c1e00003c1e00003c1e000040
:100058003c1e0000481d00003c1e00003c1e000025
:100068003c1e00003c1e00003c1e00003c1e000020
:100078003c1e00003c1e00003c1e00003c1e000010
:100088003c1e00003c1e00003c1e00003c1e000000
:100098003c1e00003c1e00003c1e00003c1e0000f0
:1000a8003c1e00003c1e00003c1e00003c1e0000e0
:1000b8003c1e00003c1e00003c1e00003c1e0000d0
:1000c8003c1e00003c1e00003c1e00003c1e0000c0
:1000d8003c1e00003c1e00003c1e00003c1e0000b0
:1000e8003c1e00003c1e00003c1e00003c1e0000a0
:1000f8003c1e00003c1e00003c1e00003c1e000090
:100108003c1e00003c1e00003c1e00003c1e00007f
:100118003c1e00003c1e00003c1e00003c1e00006f
:100128003c1e00003c1e00003c1e00003c1e00005f
:100138003c1e00003c1e00003c1e00003c1e00004f
:100148003c1e00003c1e00003c1e00003c1e00003f
:100158003c1e00003c1e00003c1e00003c1e00002f
:100168003c1e00003c1e00003c1e00003c1e00001f
:100178003c1e00003c1e00003c1e00003c1e00000f
:100188003c1e00003c1e00003c1e00003c1e0000ff
:100198003c1e00003c1e00003c1e00003c1e0000ef
:1001a8003c1e00003c1e00003c1e00003c1e0000df
:1001b8003c1e00003c1e00003c1e00003c1e0000cf
:1001c8003c1e00003c1e00003c1e00003c1e0000bf
:1001d8003c1e00003c1e00003c1e00003c1e0000af
:1001e8003c1e00003c1e00003c1e00003c1e00009f
:0801f8003c1e00003c1e00004b
:020000040000fa
:100208003c1e00003c1e00003c1e00003c1e00007e
:100218003c1e00003c1e00003c1e00003c1e00006e
:10022800321d00003c1e00003c1e0000de1a0000cb
:100238003c1e00003c1e00003c1e00003c1e00004e
:100248003c1e00003c1e00003c1e00003c1e00003e
:100258003c1e0000481d00003c1e00003c1e000023
:100268003c1e00003c1e00003c1e00003c1e00001e
:100278003c1e00003c1e00003c1e00003c1e00000e
:100288003c1e00003c1e00003c1e00003c1e0000fe
:100298003c1e00003c1e00003c1e00003c1e0000ee
:1002a8003c1e00003c1e00003c1e00003c1e0000de
:1002b8003c1e00003c1e00003c1e00003c1e0000ce
:1002c8003c1e00003c1e00003c1e00003c1e0000be
:1002d8003c1e00003c1e00003c1e00003c1e0000ae
:1002e8003c1e00003c1e00003c1e00003c1e00009e
:1002f8003c1e00003c1e00003c1e00003c1e00008e
:100308003c1e00003c1e00003c1e00003c1e00007d
:100318003c1e00003c1e00003c1e00003c1e00006d
:100328003c1e00003c1e00003c1e00003c1e00005d
:100338003c1e00003c1e00003c1e00003c1e00004d
:100348003c1e00003c1e00003c1e00003c1e00003d
:100358003c1e00003c1e00003c1e00003c1e00002d
:100368003c1e00003c1e00003c1e00003c1e00001d
:100378003c1e00003c1e00003c1e00003c1e00000d
:100388003c1e00003c1e00003c1e00003c1e0000fd
:100398003c1e00003c1e00003c1e00003c1e0000ed
:1003a8003c1e00003c1e00003c1e00003c1e0000dd
:1003b8003c1e00003c1e00003c1e00003c1e0000cd
:1003c8003c1e00003c1e00003c1e00003c1e0000bd
:1003d8003c1e00003c1e00003c1e00003c1e0000ad
:1003e8003c1e00003c1e00003c1e00003c1e00009d
:0803f8003c1e00003c1e000049
:020000040000fa
:100c94002020000020200000204d00006f64000090
:100ca400203a00002000000041550000544f00008d
:100cb4004d410000540000004d4100004e5500001d
:100cc400414c000000540000656d0000703a0000c3
:100cd400200000005374000061720000745300008f
:100ce400746f000070000000546500006d70000017
:100cf4005265000061640000004400006973000054
:100d0400706c000061790000496e0000666f00009d
:100d1400004d00006f640000650000001111000028
:100d240022220000333300004444000055550000e3
:100d340066660000777700008888000099990000b3
:100d4400aaaa0000bbbb0000cccc0000dddd000083
:100d5400eeee0000cecd0000acab000002020000bd
:100d6400030300000404000005050000060600005b
:100d740007070000080800000a090000101000001e
:100d84001011000012120000494400004c450000fc
:040d9400000000005b
:020000040000fa
:100d98000000fa00e43cec000080fa0000000600c5
:100da8000000fa00889fbe008a1f780000057800be
:100db80081047800e38f50000100360039002000dc
:100dc800f009070080e780008a0f500002003a000f
:100dd8000005eb00020037000a00e00002003a00bc
:100de80088e78000010037000a047800b8089000fe
:100df800818f540025003200030036000a00e0000d
:100e080003003a00040037000a00e00002003a003c
:100e18001a002000010037000005eb00390c98008b
:100e280064801400600498006a09b900e0c72100d2
:100e380002004000d8009000808f50000e003a0059
:100e48008884e80009007800750a0700b80890004f
:100e580040e78000808f50000100360041e788009d
:100e6800380990006a11b900e0c72100020040006b
:100e780089007800440a0700e10f550003003a0092
:100e8800361c02000000000000000000c209070034
:100e98004f0578004f04be000080fa0000000600ed
:100ea8000000fa00889fbe008a1f7800800478003e
:100eb800b409070080e78000890f500002003a005b
:100ec8008004eb00020037000900e00002003a004d
:100ed80088e7800001003700090478000885e800e9
:100ee8000a0078004e0a0700280890000000e00079
:100ef800020032006c004400490a07008a007800aa
:100f080020c52100200a0700a30907000900e00006
:100f180003003a00361c0200000000000000000038
:100f28004f0578004f04be000080fa00000006005c
:100f38000000fa0000017800d000900020c52100d0
:100f4800808f500007003a00a2089000c0c5210019
:100f5800808f500003003200100020000100e000e4
:100f6800010032000000eb000080fa0000000600db
:100f78000000fa00889fbe00000478000000e0002e
:100f88001f00320080e78000800f54001c003200f0
:100f98007c09070008007800e5ff0700e10f500012
:100fa80016003a008884e800090078001c0a070047
:100fb800b808900040e78000808f5000010036009c
:100fc80041e78800380990006a11b900e0c721009c
:100fd8000200400089007800eb09070080e78000e4
:100fe800b808900030089000808f50000300390046
:100ff800361c02000000000000000000660907001f
:101008004f04be000080fa00000006000000fa004d
:10101800889fbe008a1f780000047800c4ff07007c
:101028000005eb00e10f50001d003a0021e78000a9
:101038000100e00016003a0080e780000105780012
:10104800b808900030089000808f500001003900e7
:101058001a0020008884e80009007800f0090700d9
:10106800b808900040e78000808f500001003600eb
:1010780041e78800380990006a11b900e0c72100eb
:101088000200400089007800bf090700040037000b
:10109800ec004400c0c52100bb0907000005eb00b7
:1010a8000a0078004f0578004f04be000080fa005f
:1010b800000006000000fa0042a0a800e63cef008d
:1010c8002d0907000080fa00000006000000fa0061
:1010d800881f7800e41ce2002b003a00ec3cec008e
:1010e800ec1ce20005003a0040e3800031e3800098
:1010f80041e3880030e38800de3cec0040e38000f8
:101108001000e00022003a002a0037009800900002
:1011180060e78000808f500026003e000880e800cd
:10112800bf090700280890000000e0000200320014
:101138006c004400ba090700b808900040e7800036
:10114800808f50000100360041e788008880e80061
:10115800380990006a11b900e0c721000200400078
:101168008909070040e380001000e0001100320008
:1011780040e3800030009000300490000800e00058
:10118800e2ff3a000b003700e23cec0009003700b0
:1011980040e3800030009000300490000800e00038
:1011a800040032009800900060e78000808f5000b3
:1011b800daff36004f0478000080fa0000000600cd
:1011c8000000fa00889fbe00ee080700e43ced002e
:1011d80020e780000000e00033003a00ee1ce20047
:1011e8003100320080047800150037006c0044009c
:1011f8008b0907000880e80089090700b8089000f3
:1012080040e78000808f50000100360041e78800e9
:101218008880e800380990006a11b900e0c7210009
:101228000200400058090700b808900080e78000d5
:1012380030089000808f500001003900190020000c
:101248005c1ce2000500320010e3800030009000d2
:10125800000478000000e000e4ff3a00e21ce2002d
:1012680013003a000500370098ff0700e23ced0044
:10127800e21ce20006003200fbff3700e18f540059
:101288000300320000e78000e10f500006003a003a
:10129800e03cef00361c02000000000000000000e7
:1012a80018002000050037000004eb000300370099
:1012b800e21ce200f6ff3200ebff3700b608070039
:1012c800080078004f04be000080fa000000060005
:1012d8000000fa00889fbe00800478000000e0004b
:1012e80016003200aafe070068e780000884440060
:1012f800f09cec004a09070080e78000180098007d
:1013080060e78000800f54000500310081e780000d
:1013180030e380008180e8002909070004003700d5
:1013280081e7800040e380008180e800240907000d
:10133800a3ff07000000e00003003a00361c02008b
:1013480000000000000000004f04be000080fa000a
:10135800000006000000fa00889fbe0080047800a4
:10136800010478008afe070099007800088440008c
:1013780060e78000808f500003003600888f50009f
:101388000600360002003700888f500005003e0036
:1013980060e78000800f540002003e000000eb0070
:1013a8000100370010002000880c78000000e000e1
:1013b80010003200f09cec001909070080e780005b
:1013c8001800980060e78000800f54000500310085
:1013d80081e7800030e380008180e800f80807009a
:1013e8000400370081e7800040e380008180e80046
:1013f800f308070072ff07000000e00003003a004e
:10140800361c020000000000000000004f04be006f
:101418000080fa00000006000000fa00881f78002b
:101428005808070068e780005b0807000800780094
:101438004f0478000080fa00000006000000fa005f
:1014480070e780000080fa00000006000000fa0043
:10145800e41ce200150032001000200000e78800bc
:1014680019003700e83ced001000370040e7800025
:101478006a00b900e2c72100800041001100900015
:10148800100190009200980064804000800f510085
:1014980002003a001201900092009800110090009a
:1014a8003000900080e788000700370040e78000a0
:1014b8006a00b900e2c72100620078000000e0007d
:1014c800e8ff3200e9ff37000080fa00000006005c
:1014d8000000fa00881f78000104780081e7800086
:1014e800ec804000b6080700f09cec00cc08070030
:1014f800e10f440005003a0081e780008180e800a0
:1015080020c52100a00807001000370060e7800010
:101518000000440081e780009000980061e78000a7
:10152800810f50000500310081e7800030e3800022
:101538008180e800a20807000400370081e78000e6
:1015480040e380008180e8009d0807004f04780090
:101558000080fa00000006000000fa00881f7800ea
:1015680080007800100078000000e00002003a00d7
:101578000004780002003700310090003004900029
:101588006c004400a6080700e41ce2000e003a00c4
:101598000880e800a2080700b808900040e780002b
:1015a800808f50000100360041e788008880e800fd
:1015b800380990006a11b900e0c721000200400014
:1015c8007108070003003700ec004400c0c5210083
:1015d8006d0807003808900081e78000b108900086
:1015e8000001eb00810f50000100390012002000bb
:1015f800020078004f0478000080fa00000006001e
:101608000000fa00f1e680000108780061e7800038
:10161800110098000080fa00000006000000fa009f
:10162800889fbe008a1f78000004780001057800b2
:10163800d40707001a0178008004eb00e10f41008d
:1016480014003200f0e68000980f10000400320009
:1016580061e7800018009000810f50000c003600f0
:101668009800900001007800ec1cb500800f510034
:101678000700360001007800ec1cb500000d510091
:1016880008007800deff07008004eb000100370047
:1016980019002000c0070700090078004f057800ee
:1016a8004f04be000080fa00000006000000fa00a7
:1016b8001000200000e788000080fa000000060003
:1016c8000000fa000080fa00000006000000fa009e
:1016d800f0e38000e10f5000fdff3600361c0200e9
:1016e8000000000000000000f9ff37000000fa00c9
:1016f800889fbe008a1f7800800478000204780062
:101708007a0040004200200094fb07000040eb00f4
:10171800d05c9800e30f5400030036003800200026
:101728001a0020000100370064051400b80c980066
:101738000980e8000f0807006c844400080078005e
:101748000c080700c90498000a0c7800990c980046
:101758004f0578004f04be000080fa000000060024
:101768000000fa00889fbe00e8c7210069ca21006e
:1017780008007800f60707006a044400888f5400c0
:10178800fbff3a0040c72100f1070700a0c621006f
:10179800ef070700c0c52100ed07070020c521009d
:1017a800eb07070040c7210040e38800a0c62100de
:1017b80030e388004f04be000080fa0000000600f5
:1017c8000000fa00889fbe008a1f78000005780094
:1017d8000104780000022000ff0807008004780058
:1017e8000000e000100032000800e00003003a00aa
:1017f8000a004500f808070000047800c80c9800a3
:101808000800e00004003a00090078000b0907000e
:1018180088047800040037000a014500510a2000b6
:101828000800780060fb0700090078004f05780081
:101838004f04be000080fa00000006000600fa000f
:10184800889fbe008a9fbe008c9fbe00000f780054
:1018580001067800020578001307980084067800ce
:101868002507980086007800870578000200780030
:10187800d3ff0700800478000080eb000900e00037
:1018880041003200490c90000a0045000000440065
:101898000080e900f00c98000a0278008b017800bb
:1018a8000d0178008c007800090078008fff070090
:1018b8001e0190009e00780008007800e8060700e6
:1018c800800c78002f070700ee3cec0070e78000e2
:1018d800e10f500003003a0089e78800a0ff0700e5
:1018e80007003700e61ce20005003a0080e78000a8
:1018f80030089000808f56000100390089e7880081
:10190800b908900050e78000808f50000100360031
:1019180051e78800dc3cec00b908900040e7800003
:10192800808f50000100360041e788008980e80078
:10193800390990006a11b900e0c72100020040008f
:1019480091070700140707002e0090000000e00030
:101958000100320009087800e61ce20009003200a4
:1019680080e78000300890008d0f5000050031009e
:10197800361c0200000000000000000010002000db
:1019880001003700100020004f06be004f05be00c2
:101998004f04be000080fa00000006000000fa00b4
:1019a8008003eb000003eb00860278000602780053
:1019b8008601780092062000616c2800a0b62000fd
:1019c8009eff0700e10f500004003a0042a0a80063
:1019d80030e78800ec3cef00b70607000080fa000b
:1019e800000006000000fa00889fbe008a9fbe0023
:1019f80080047800010578000000e000240032002f
:101a08006002200074080700000478000000e0006d
:101a18001f0032000ac8b900800578000000e800fd
:101a28006d08070000017800000c78000000e00055
:101a3800130032000b004000100498000000eb0077
:101a4800600c9800220498000900e90000d0b90051
:101a58000000410030049800790c98000a1498009e
:101a68000080eb00101498002014980068004400cf
:101a780037070700720044003507070005003700e4
:101a8800080078006d0807000004eb00010037002b
:101a98000004eb00080078004f05be004f04be00ac
:101aa8000080fa00000006000000fa00889fbe00cf
:101ab80000047800b3060700e80890008004eb00f3
:101ac80078089000808f500001003a00190020002b
:101ad800b1060700090078004f04be000080fa0034
:101ae800000006000000fa00881f78000004780053
:101af800a4060700680c9000a706070008007800f5
:101b08004f0478000080fa00000006000000fa0088
:101b1800600890000080fa00000006000000fa004b
:101b2800881f780000047800100078004308070038
:101b380008007800410807004f0478000080fa0088
:101b4800000006000000fa00881f780000047800f2
:101b580002007800081190000200e000190032002d
:101b68000000e0000c003a002800900074fa07001a
:101b78002800900088109000010040002004980080
:101b880098009000810f50000e003900180078006e
:101b9800200498000b0037003800900068fa07000e
:101ba8003800900088109000010050003004980020
:101bb800980f5000030031001800900001005000f9
:101bc80030049800680890000000e800600c980055
:101bd8004f0478000080fa00000006000000fa00b8
:101be800889fbe0000047800010278008204780013
:101bf80003017800e0089000700890008001eb0075
:101c0800808f5000160031008400780008007800aa
:101c1800ccff070028109000e10f40000b003a00ad
:101c2800180890000000e0000c0032007200440028
:101c380049fe07000000e000080032001000200004
:101c4800800c780080017800050037000000e8006b
:101c58002014980013002000010037001300200012
:101c6800030078004f04be000080fa000000060060
:101c78000000fa0000017800810178001000e000ff
:101c88000e003200300090008210900001004000e9
:101c98003001980092009000810f50000200390036
:101ca800120078003001980066004100900078002a
:101cb800021190000300780021fa07000080fa0062
:101cc800000006000000fa00889fbe0000047800ab
:101cd80082047800600890000000e00017003200dd
:101ce80008007800e2ff0700680890000000e9009b
:101cf800600c980018109000e10f40000a003a00ac
:101d0800480090000000e0000b003200680044002a
:101d180011fe07000000e00007003200100020005c
:101d2800800c7800050037000000e80010149800c7
:101d38001000200001003700100020004f04be00f2
:101d48000080fa00000006000000fa00881f7800f2
:101d5800000478000b060700281090000000e0003f
:101d680029003c000d003700180890000000e00032
:101d78000a00320072004400f7fd07000000e0008e
:101d88000100320049fe0700281090000000e90019
:101d9800201498004240a900f3ff3c000080eb00ab
:101da80020149800fc050700f6050700181090009d
:101db8000000e00018003c000d00370048009000cb
:101dc8000000e0000a00320068004400e2fd07005d
:101dd8000000e0000100320034fe070018109000f7
:101de8000000e900101498004240a900f3ff3c00ed
:101df8000080eb0010149800e70507004f047800f6
:101e08000080fa0000000600180890000000e000ba
:101e1800e2ff3200d7ff3700480090000000e000e2
:101e2800f3ff3200e8ff37000600fa00889fbe0083
:101e38008a9fbe008c1f7800800478008105780096
:101e480022079800030678000005eb00cd0507007f
:101e5800690890000000e0001f003200390490007b
:101e68008b0078000900780081ff07000c00e00073
:101e78000b003a00690890000000e900e00c9800a7
:101e8800490090000000e000100032006880440023
:101e9800b1fd0700e10f50000c003a0008003700c0
:101ea800b8049800190890000000e000070032000c
:101eb80072804400a8fd07000000e0000300320023
:101ec800361c02000000000000000000b2050700f8
:101ed80010002000370037002e0490000800e000b2
:101ee80003003a00ac05070008007800310037000d
:101ef8000a00e00003003a000e007800c0fd070069
:101f08001a002000a4050700a1fb07009d05070093
:101f180019109000e10f400002003a000000eb00a9
:101f28009014980029109000e10f400002003a0038
:101f38000000eb00a014980097050700e400470094
:101f48000e007800b5fd07000000e00015003a001b
:101f58008c050700690c90008f0507000800e00059
:101f68000c003a00ae0090007280440058fd070053
:101f78000900780074ff070091fc07000000e000ea
:101f8800b2ff3a00361c020000000000000000000a
:101f9800aeff3700090078006bff070088fc0700d8
:101fa800aaff37000900780067ff070084fc0700d4
:101fb8000000eb004f0678004f05be004f04be003e
:101fc8000080fa00000006000600fa00889fbe00a4
:101fd8008a9fbe008c1f7800800478000106780074
:101fe80022079800830578000005eb0065050700c7
:101ff800e908900079089000808f500011003100a6
:102008000b0178008c00780009007800cdfe0700ed
:10201800190890000000e0000700320072804400b8
:102028004dfd0700e10f500003003a00361c020086
:102038000000000000000000570507001000200005
:10204800360037002e0490000800e00003003a0034
:102058005105070008007800300037000a00e0004a
:1020680003003a000e00780065fd07001a00200002
:102078004905070046fb07004205070019109000b4
:10208800e10f400002003a000000eb0090149800b5
:1020980029109000e10f400002003a000000eb0018
:1020a800a01498003c050700e40047000e007800e3
:1020b8005afd07000000e00014003a00090078000b
:1020c80079fe07000000e0000c003200ae0090002e
:1020d80068804400fefc0700090078001aff07002a
:1020e80037fc07000000e000c0ff3a00361c020081
:1020f8000000000000000000bcff37000900780065
:1021080011ff07002efc0700b8ff37000900780010
:102118000dff07002afc07000000eb004f067800bf
:102128004f05be004f04be000080fa000000060004
:102138000000fa00e00890000100ea0001007000c9
:102148004f00de00610010000080fa000000060069
:102158000000fa00e00890000001eb007008900011
:10216800808f500001003a00120020000200780021
:102178000080fa00000006000000fa00889fbe00f8
:102188008a1f78000004780001057800820478002e
:1021980042a0a80044fe07000000e0000b00320047
:1021a8000900e00006003200e80044000900780059
:1021b800fd01070042a0a900c0ff2f001a00370048
:1021c80042a0a9000000eb001700370042a0a900b8
:1021d8000000000042a0a800e808900078089000dd
:1021e8000001eb00808f50000d0031000001eb0072
:1021f8008a0078000800780052fe0700180890004e
:102208000000e0000500320072004400e30207000d
:10221800b2ff2f000000e00001003a001200200089
:1022280042a0a900020078004f0578004f04be00c4
:102238000080fa00000006000000fa00881f7800fd
:10224800000478008101780042a0a800600890008e
:102258000000e0000b003a000200e0000600320037
:10226800f200440002007800cf01070042a0a90054
:10227800c0ff2f002700370042a0a9000000eb0094
:102288002400370042a0a9000000000042a0a800d6
:10229800680890000000e00002003a008000780022
:1022a8001a003700380090008810900001004000a4
:1022b8003004980098009000810f50000200390007
:1022c8001800780030049800680890000000e900c1
:1022d800600c980066004400900078000811900097
:1022e8000300780096f80700480090000000e0001e
:1022f8000500320068004400a8020700b1ff2f0063
:102308000000e00001003a001100200042a0a900ee
:10231800010078004f0478000080fa0000000600f1
:102328000000fa00889fbe00000478008101780050
:1023380082047800e008900070089000808f5000b8
:102348000f0031000001eb008300780008007800de
:10235800fcfd07000900e00009003a001808900099
:102368000000e00008003200720044008b02070001
:10237800110020000000e00004003a0002003700cd
:1023880089007800010037008000eb000100780028
:102398004f04be000080fa00000006000000fa00aa
:1023a800889fbe00000478008101780082047800cc
:1023b800600890000000e0001e0032003800900025
:1023c80088109000010040003004980098009000a8
:1023d800810f50000200390018007800300498007e
:1023e800680890000000e900600c9800660044004e
:1023f80090007800081190000300780050f807005a
:102408001900e0000a003a00480090000000e000cf
:102418000700320068004400600207000000e00086
:102428000300320010002000800c78000100370003
:10243800100020004f04be000080fa0000000600d3
:102448000000fa000000e000270034008000eb00e4
:102458000000000000000000000000000000000074
:102468000000000000000000000000000000000064
:102478000000000000000000000000000000000054
:102488000000000000000000000000000000000044
:102498000000000000000000000000000000000034
:1024a8000000000000000000000000000000000024
:1024b8000000000000000000000000000000000014
:1024c8000000000000000000000000000000000004
:1024d8000000000000000000000000008100e8008b
:1024e800810f5000daff3a000080fa000000060071
:1024f8000000fa00889fbe00800478000000e00019
:10250800060034000004eb00803e2000ccff0700ea
:102518000804e800888f5400fbff3a004f04be000f
:102528000080fa00000006000000fa004c00dd0000
:10253800ca22b7000080fa00000006000000fa0076
:102548004c00dd00f1ff200001007000ca22b60037
:102558000080fa00000006000000fa000000eb000e
:10256800f1ff0700ca82a80080022000b4ff07001c
:10257800ca82a9000080eb00f0ff070010002000cd
:10258800e9ff0700ca82a80020002000d8ff070042
:10259800ca82a900e0ff2f00e8ff07000080fa00c8
:1025a800000006000000fa00889fbe008004fb00bf
:1025b80044ccde0008007800dbff0700cac2a80090
:1025c800100020009eff0700ca82a8008002200099
:1025d8009bff0700ca82a900080078000080ea0073
:1025e8008180ea00d5ff07006f8464000800780046
:1025f800cdff07001000200091ff0700ca82a80045
:10260800800220008eff0700ca82a900cac2a90062
:10261800080078000080ea008180ea00c7ff070010
:102628008002200086ff07004f04be000080fa00e9
:10263800000006000000fa00889fbe00c1cfb3006a
:1026480009fc2f00e20f50001100320003003c008b
:10265800e10f500009003a000b00370091cfb3009a
:1026680049f92f00e30f500009003200d1cfb30021
:1026780049fd2f00e40f5000050032008040eb00b8
:102688008004eb000200370081cfb30009f82f0067
:102698000104fb0008007800a3ff0700ca82a80015
:1026a8004001200066ff0700ca82a90008007800e0
:1026b8000080ea008180ea00a0ff07006f846400c0
:1026c8000800780098ff0700ca82a800400120008f
:1026d8005bff0700ca82a900080078000080ea00b2
:1026e8008180ea0095ff07004f04be000080fa00d1
:1026f800000006000000fa00800220007cff0700ae
:102708002000200088ff0700ca82a800800220005d
:102718004bff0700ca82a900d0ff2f0087ff0700e0
:102728002000200080ff0700ca82a8008002200045
:1027380043ff0700ca82a900d0ff2f007fff0700d0
:102748008000200078ff0700ca82a80080022000cd
:102758003bff0700ca82a90070ff2f0077ff070020
:102768000000eb0070ff0700ca82a800800220006a
:1027780033ff0700ca82a9000080eb006fff070043
:10278800e000200068ff0700ca82a800800220003d
:102798002bff0700ca82a90010ff2f0067ff070060
:1027a8006dff07000000eb005fff0700ca82a8006a
:1027b8008002200022ff0700ca82a9000080eb00e7
:1027c8005eff07006000200057ff0700ca82a800cc
:1027d800800220001aff0700ca82a90090ff2f007c
:1027e80056ff07002000200041ff07000080fa0084
:1027f800000006000000fa00889fbe008a9fbe0005
:1028080080057800000578008004eb00030037009d
:1028180068c07d0063ff07008904e80009047800a8
:102828000a00780067f70700890f5000f8ff3e009c
:102838004f05be004f04be000080fa0000000600ed
:102848000000fa00889fbe0002ccb300e20f5000df
:102858000d00320003003c00e10f500007003a0071
:102868000800370042c9b300e30f500006003200e9
:1028780042cdb300e40f5000030032000041eb00ea
:102888000100370002c8b300014441000844e900d0
:102898000804fb00c4c4de000900780022ff07001a
:1028a800ca82a80040002000e5fe0700ca82a900ed
:1028b800090078000080ea008180ea001fff070015
:1028c8006f0464000800780017ff0700ca82a80098
:1028d80040002000dafe0700ca82a900080078003c
:1028e8000080ea008180ea0014ff07004f04be0060
:1028f8000080fa00000006000000fa00881f780037
:10290800880020000000e000040032000004eb0012
:10291800e10f500001003a00a800200008007800ec
:1029280001ff0700ca82a80080022000c4fe070039
:10293800ca82a900080078000080ea008180ea00c5
:10294800fefe070080022000bdfe07004f0478004d
:102958000080fa00000006000000fa00e20f5000b4
:102968000a003a00cbc2bf00614160000281ea0060
:102978008381ea0061416100cbc2bf000004a1006d
:1029880002407000cbe2b70005003700e14060006c
:10299800cbc2bf000004a10001407000cbe2b70029
:1029a8000080fa00000006000000fa00889fbe00c0
:1029b8000001780081047800b0e78000000441003d
:1029c800fa9cec0096030700d0e7800018009800f6
:1029d800b0e78000800f540005003100d1e7800087
:1029e8008180e80080e58000750307000400370057
:1029f800d1e780008180e80090e58000700307003f
:102a08000900e00004003200d1e78000ec804000bb
:102a1800090078006a0307004f04be000080fa002e
:102a2800000006000000fa00881f7800a61ce200db
:102a38001a00320042a0a80030e580000000e00043
:102a480002003a00000478000200370060e58000c8
:102a5800300490006c0044007103070042a0a900f4
:102a68000880e8006e030700b8089000c0e78000ff
:102a7800808f500001003600c1e788008880e80098
:102a8800380990006a11b90080cc2100020040008a
:102a98003d030700a61ce200e6ff3a004f04780059
:102aa8000080fa00000006000000fa00881f780085
:102ab80059fa0700a1e780000100500090e788005c
:102ac8002e003700b1e780008100e800b1e78800f8
:102ad8000000e90090e788000100e00004003a00e7
:102ae80090e5800082e5800092e5880080e5880016
:102af80090e580001000e00028003a001f00370031
:102b080098009000b0e78000808f50001b003e00c6
:102b180042a0a8000880e8004103070028089000a8
:102b28000000e000020032006c0044003c03070093
:102b380042a0a900b8089000c0e78000808f50002c
:102b480001003600c1e788008880e8003809900055
:102b58006a11b90080cc2100020040000a03070076
:102b680090e580001000e000040032003000900082
:102b7800300490000800e000e1ff3a0090e7800090
:102b88000000e000cfff3a00b0e78000a0e788002f
:102b98004f0478000080fa00000006003000900022
:102ba800300490000800e000f4ff320018009000a4
:102bb800808f5000f1ff3900d5ff37000000fa0080
:102bc80098ff0700b8ff0700c4e780006a20b90033
:102bd80082cc2100800041001100e0001900320081
:102be800090037000201e8006a005000840f510014
:102bf8001c0032008301e900c3e7880080007800e8
:102c08001000e000f7ff3200110090001001900062
:102c18009200980064804000800f510002003a0042
:102c2800120190009200980011009000300090006e
:102c3800d0e7880010017800c00890000200010069
:102c4800080037000400e000060032006a20b900de
:102c5800e2cb210000004100840178000001eb0074
:102c6800e4ff37000080fa00000006000000fa00c8
:102c7800889fbe0088cc2100c9cd210008007800bb
:102c8800b30207006a044400888f5400fbff3a002f
:102c9800e0cb2100ae02070040cb2100ac020700c8
:102ca80060ca2100aa020700e0cb210090e5880055
:102cb80040cb210080e588004f04be000080fa0068
:102cc800000006000000fa00889fbe008a9fbe0030
:102cd8008c1f7800800578000104780002057800d0
:102ce800c0012000bc030700800478000080eb00ce
:102cf8000900e00024003200fa1ce20002003a0059
:102d0800d9e78800d9ff0700e10f54000300360017
:102d1800180020003c002000010037006406140061
:102d28000000eb00d00c9800b80c9800ca0c980072
:102d3800090578000b1d78000a0078008d0207004d
:102d48006c844400080078008a020700c9049800cf
:102d5800990c98000c0c7800b9089000c0e7800026
:102d6800808f500001003600c1e7880039099000c3
:102d78006a11b90080cc2100020040008a00780066
:102d880081020700100020004f0678004f05be00a2
:102d98004f04be000080fa00000006000000fa00a0
:102da800889fbe00900078000100e00002003a0011
:102db800810478000200370030009000b0049000d1
:102dc8006c844400080078009502070088007800a9
:102dd80060ca21006c020700b9089000d0e78000a3
:102de800300890000001eb00808f5000010039008e
:102df80012002000020078004f04be000080fa0094
:102e0800000006000000fa00045de2000b0032003a
:102e18000e5de20014003200da01070050e880007d
:102e280053f8070040e8800051f8070030e88000b8
:102e38004ff807000e7def000b003700d1010700a7
:102e48000e5de20008003a0050e8800014f8070020
:102e580040e8800012f8070030e8800010f807000a
:102e680010c0b3000efdb700cb010700c012200050
:102e780017f90700e4ff37000000fa0055010700c2
:102e8800d7f5070080e888000019200010f907002e
:102e9800faff37000600fa00a064280004000900c1
:102ea800305f78005e00b10010002000e1fd0700ef
:102eb800f06428004ffe070010e88000e10f500082
:102ec80003003a00606528004afe07000200370048
:102ed800e065280047fe070080e880008e00780043
:102ee800ca01070020002000d2fd07005066280014
:102ef80040fe07000e0078003efe07000019200083
:102f0800f3f80700e8ff37000000fa00889fbe00ca
:102f1800021de2000b00320013e1a900ca22a90039
:102f28001000200010e8880080e880004206200099
:102f38000280b90062d72f0000014100d20e88003c
:102f48001e00370013e1a800ca22a800e8e78000a5
:102f5800f9e780000200200003f823000800be0003
:102f6800c0f507000000e00002003c00204e2000f1
:102f78001100370002002000a34724000800be000b
:102f8800baf5070002002000a3472400ebf507006c
:102f980002002000031a240046f607000200200061
:102fa80003122400b1f5070002002c00834a240014
:102fb800e3f5070081f60700d00e8800001920000d
:102fc800c3f80700d2ff37000000fa009700070097
:102fd8008003eb000003eb00c5d021006400200053
:102fe8008601780092062000c166280060702100e2
:102ff80012fa07008003eb000003eb00a5d02100c4
:10300800540020008601780092062000616728009d
:103018000074210009fa07008003eb000003eb00ad
:1030280085d0210014002000860178009206200037
:10303800f1672800e074210000fa07008003eb0024
:103048000003eb0065d021004400200086017800d1
:1030580092062000b168280080782100f7f907005f
:103068004efa07000000eb000080fa00000006009e
:103078000000fa00c842a80068c0a8000080fa0052
:10308800000006000000fa0090022000303a880094
:10309800764040004467b60000ceb3004467b600ef
:1030a80012002000a10920008007200033742000ae
:1030b80080497800814978008249780071052000ac
:1030c800600420002374200080497800814978003a
:1030d8008249780043c7bf000047b200f04f500054
:1030e800fcff3a0042c7bf000058a300fdff3200b2
:1030f8000080fa00000006000000fa002143a80042
:10310800c1cfb300014078002163b60020c3bf00df
:103118007f4060000064a00020e3b7002043a800bf
:103128002343a800014078002363b60030ccb300e5
:103138002263b60025e3a900f0c3b30024e3b70077
:1031480030a3a8002ca3ef00c862a8002ca3a900f4
:1031580085a0a900aac0bf000044a1000046b30092
:10316800aae0b70095a0a80021e3a8000080fa0013
:10317800000006000000fa000a21ef0012c1bf009b
:103188000044a1000054a00012e1b70070382100eb
:103198007008880013e1a8000080fa00000006000b
:1031a8000000fa00f0c0b300c061b600c0cfb300a1
:1031b800c061b600c0c0b300c061b700c3e1a900d8
:1031c80000002800c221b600a0732000d00e88009d
:1031d800400d2300200e8800c941a800c8c1a800de
:1031e800c841a900ca01a900f0c3b300cc61b60068
:1031f800cd61b600ccc1bf0001ccb3000140600076
:10320800a040b300cce1b700cdc1bf0001406000d1
:103218004041b300cde1b700cea1a900ce81a800fe
:10322800c1e1a8000080fa00000006000000fa00d2
:103238002ca3ef000000eb0040168800c802a9008c
:10324800c822a900c842a800c862a800c8e2a8000d
:10325800c962a900cb42a900501688006ac0a9001b
:103268006ae0a90087ff070022fd070080ff07002a
:10327800f2010700caff07009fff0700bdff070014
:103288000080fa00000006000000fa00ca42a90007
:10329800c842a9000080fa00000006000000fa00f9
:1032a800c842a8000080fa00000006000000fa00ea
:1032b800c842a900614060004200dd00a12c200046
:1032c800914078000124a10080c0700001007800be
:1032d800cae2b7000080fa00000006000000fa0009
:1032e800cac2bf004200de00610060000080fa0030
:1032f800000006000000fa00e8ff0700e2ff0700f0
:10330800602220004efc0700e4ff07006004200054
:103318004bfc0700401f200049fc0700dfff0700a7
:103328000080fa00000006000000fa00889fbe0036
:10333800000478008004eb00d3ff07002000200081
:103348003ffc070061006400d8ff07000884d10033
:10335800c00320003afc0700d0ff0700200020002f
:1033680037fc07008904e800e88f5400f2ff3a00b0
:103378004f04be000080fa00000006000000fa00ba
:10338800889fbe000004eb0089002000beff0700f4
:10339800200020002afc0700c0ff07008000200052
:1033a80027fc07000884d100ccff07004700dd0098
:1033b800000474008007200021fc07008904e9004c
:1033c800f2ff3a00080078004f04be000080fa00bf
:1033d800000006000000fa00889fbe00c5ff070035
:1033e800c00c2000d0ff070040042000ceff0700db
:1033f800e2ff07000000e000fdff3200bdff07000c
:10340800c00c2000c8ff0700e00b2000c6ff070023
:10341800daff070080047800d8ff0700000478006e
:10342800d6ff0700d5ff0700d4ff0700d3ff07002a
:10343800d2ff0700d1ff07004840dd0000804400ac
:10344800cf80de0078f507000200200003d82300b3
:1034580086f407004f04be000080fa000000060052
:103468000000fa00010878008000eb0011009800c5
:103478002100980032009800e80040000069280008
:10348800626c2800b0187800800f5100fdff3a00e8
:10349800200280008008780034c0bf000080fb0054
:1034a800900098000000eb00a000980066804000a3
:1034b8000080fa00000006000000fa000000eb009f
:1034c800200888000008880080382100100888003b
:1034d800a5c0bf00f1c8b300014060000044a000cf
:1034e800a5e0b7008460a9009460a8000481a80042
:1034f80004a1a90005e1a80080e7800090077800f2
:103508004f00780090e888003400f9004400f90082
:103518004000f9003e00f9003c00f9003a00f900cb
:103528003800f9002c00f9002a00f9002800f900f9
:103538002600f9002400f9002200f9003200f90001
:103548003600f9004f0778004f06be004f05be0051
:103558004f04be004f03be004f02be004f01be0025
:103568004f00be004200f9000000060010002000d5
:103578000080fa00000006000000fa000080fa004f
:10358800000006000000fa0042a0a800123dec006e
:103598000080fa00000006000000fa00121ded008d
:1035a80090e8880001003a0042a0a9000080fa00d3
:1035b800000006003600f800809fbe00829fbe0013
:1035c800849fbe00869fbe003400f80000002000e3
:1035d800a00188000000fa008460a900bbf607007b
:1035e800361c020000000000000000000080fa0005
:1035f8003400f9004f03be004f02be004f01be0069
:103608004f00be003600f90000400600881f780011
:10361800801f78000001eb000200e6000000ea00cd
:103628000002eb00530020000004eb000e0008002d
:103638001900000000f0a700610272006f03620029
:1036480003b0e600630242004419dd00050f2000c4
:103658000503620002b0e6000403b0004411dd0077
:10366800c42add000503620002b0e6000430b000a1
:1036780007002300c42add00050362004c33de0086
:1036880003b0e600070242004100dd004f21de00e2
:103698004144dd00020474004122dd0000f0a7006f
:1036a800610272004f0078008002eb008001eb009d
:1036b80003c0e7000500370003a0e7000300370058
:1036c80002032000825878001d0037000003eb0039
:1036d800d30220000600e600835878006f016400da
:1036e8000610e700030037000203b0008258780094
:1036f800150020000003eb00030008000f00000085
:1037080002002f0082016200cc19de000618e700d3
:1037180004003700030178000203b00082587800e3
:10372800150020006128e10004003a000698e7002f
:103738000200370002032000825878004422dd008e
:103748008001eb00834878004f04780000000600f1
:103758000000fa00e4004000110098008088eb00a7
:1037680031009800410098000008eb000080fa0042
:10377800000006000000fa008000eb0041009800fd
:103788000080fa00000006000000fa009001900096
:10379800130190009200980010019000a200980078
:1037a80013019000210198009101980011009800e0
:1037b800c00098001008e8000080fa000000060029
:1037c8000000fa000002780091017800e18f4100c2
:1037d80002003a00400190000800370064014000f0
:1037e80012009000908f51000400390012019000df
:1037f80012009000908f5100fcff310012009000e1
:103808009000980021009800a200980011019800eb
:10381800c4009800140ae8000080fa0000000600be
:103828000000fa008000780010009000210190004c
:1038380022009800a1019000900198004101900099
:1038480012009000810f500001003a001301980007
:103858000000eb00c00098001209e9000080fa009f
:10386800000006004200f800801f780000022000d7
:1038780010028800811f7800829fbe00849fbe00ce
:10388800869fbe00889fbe008a9fbe008c9fbe0098
:103898008e1f78003600f8003200f8002200f80089
:1038a8002400f8002600f8002800f8002a00f80094
:1038b8002c00f8003800f8003a00f8003c00f80046
:1038c8003e00f8004000f8004400f8003400f8001a
:1038d80090e88000801f780080e780000f0878005b
:1038e8002a0a02000000000080e7800090077800a4
:1038f8004f00780090e888003400f9004400f9008f
:103908004000f9003e00f9003c00f9003a00f900d7
:103918003800f9002c00f9002a00f9002800f90005
:103928002600f9002400f9002200f9003200f9000d
:103938003600f9004f0778004f06be004f05be005d
:103948004f04be004f03be004f02be004f01be0031
:103958004f00be004200f900000006000000fa0017
:103968006ac0a9006ae0a900c822ef000080eb0045
:1039780050168800a0e888000080fa0000000600c1
:103988000000fa00881f7800120020000014dd00f3
:103998000100e00007003200fafe07000800780086
:1039a800141db700a0e8880050168800fafe07002a
:1039b80009003700f3fe0700080078000080ea00dd
:1039c8008180ea00a2e8800000016100a2e8880086
:1039d80052168800f0fe07004f0478000080fa00b5
:1039e800000006000000fa00881f7800110020007f
:1039f800000cdd00e3fe0700a2e88000020064007e
:103a080007003200080078000080ea008180ea00a0
:103a180000006100a0e88800501688000300370005
:103a280002007400a0e8880050168800dafe07003b
:103a38004f0478000080fa00000006000000fa0039
:103a4800c8e2a800cae2a8008400a9009400a8005f
:103a58008200a8000080fa0000000600801f78009d
:103a68000000fa0004ddbf000080fb000000e90050
:103a78004f00de0004fdb7008400a9000080fa00b2
:103a88004f007800004006003600f800809fbe0016
:103a9800829fbe00849fbe00869fbe00881f78005c
:103aa8000000fa000018800000e88800081880006c
:103ab8006140b900dcf307000800e00003003d00a6
:103ac80002002000037824001df30700323323008e
:103ad80033052400e5f207000200200003982300c4
:103ae800e2f20700e0e78800f1e7880085a0a90076
:103af8000080fa004f0478004f03be004f02be005a
:103b08004f01be004f00be003600f900004006001d
:020000040000fa
:103b18000e1d00000400000002000000000001006b
:103b280000000000061d0000080000000000000062
:103b3800dc1c00001600000002000000000000006d
:103b4800000000000000000000000000000000006d
:103b5800000000000000000000000000521c0000ef
:103b68005400000000000000121d000002000000c8
:103b780002000000ef0000005008000002140000de
:103b880000000000141d00000200000000000000fa
:103b9800f21c00000a000000020000000000000003
:103ba800000000000000000000000000a61c00004b
:103bb8003600000000000000fc1c00000a000000a5
:103bc80002000000000000000000000001000100e9
:083bd8000000000000000000e5
:020000040000fa
:103be0000000fa00881f7800000478000008a30095
:103bf000020032000000a1000084e80066f4070023
:103c00008242800082004400f03f2100808f5000fb
:103c100006003e00810f5100040031002085200085
:103c20000004410081428800010037000004eb00dd
:103c300065f50700080078004f0478000080fa005e
:103c4000000006000000fa000080fa0000000600f4
:103c50000000fa005028ef000080fa000000060083
:103c60000000fa0000402100814280000100500065
:083c70000080fa0000000600cc
:020000040000fa
:043c78000000fe004a
:00000001FF
