:020000040000fa
:080000000002040000000000f2
:020000040000fa
:10040000cfd12100007f24000001880000000000ff
:100410000c000700e0be21000100200011000700d1
:10042000000020000000e000020032000000020096
:1004300000000000d0160200000000000040da00ba
:100440000000fe004440a900200820000000e00059
:100450000300320000002000a00188004440a800f2
:100460000000060091018800800078000000eb0089
:1004700015003700e280400032a0b4009101ba00bc
:10048000e280400032a0b4009102ba00e280400055
:1004900032a0b4000002eb00472bde00f507b200eb
:1004a000602ce10004003a000059eb008301e900f0
:1004b000fdff3e00040037006128e100010032002a
:1004c0000082eb00040007001101ba000200e00006
:1004d000e8ff3a00000006003159ba008301e90044
:1004e0000c0032002159ba008301e90008003200f3
:1004f0000400e00003003a00e280400032a0b400b3
:10050000f5ff370011d9ba008301e900faff3a007c
:100510008100e800e180400032a0b4000000060045
:1005200074160400000000008216040000000000a1
:10053000bc16040000000000f015040000000000dc
:10054000bc0a0400000000008001eb00020037003c
:1005500061f079008301e800828f5100fcff3a00ce
:100560000000060000037800800178000002eb0024
:10057000010037008059780084025100820f520038
:100580000900320064c078000402e8000004e000c2
:10059000f8ff3a00830078008058eb0005804100a6
:1005a000808f5000fcff3a00060078000000060033
:1005b0008001eb0002003700817178008301e800c0
:1005c000828f5100fcff3a00000006008000780096
:1005d000010037000000e8001004e000fdff3a00d1
:1005e00001005000000006000001be007e00070070
:1005f0000470a70003f0a1006509b10016003200e5
:100600000d0035006828e10006003500f0ff2f00de
:10061000f1ff27000300e00013003b000100280069
:100620000000050000004000818048008502e900cc
:10063000fcff3a0008003700f88f420002003c003f
:100640008000eb00000005008100d1000080d30095
:100650008502e800fcff3a000300e00002003b00d6
:1006600060001000e080180000000600889fbe00b7
:100670008a9fbe00010578000100e00004003500fb
:1006800008003c000000e0002000320005003700b8
:1006900060001000e080180002003b0001f02c0018
:1006a0001a0037000004be006011b8006b0920007a
:1006b0000982cf00020039000882cf000441b00057
:1006c000694252000e00320008003b008281710036
:1006d000610164008904d1000884d3008b05e8001f
:1006e0000442e800f9ff3a0005003700080444001e
:1006f00089844c008b05e9000442e900fbff3a00c5
:100700004e0007000af0a70001f0a0004f05be0050
:100710004f04be0000000600889fbe008a9fbe00f6
:100720008c1f78006b0007007200330003866c009a
:100730006450e100240032006420e1002700320010
:100740006150e100220032006120e100210032000e
:100750008b854200eb07b1000134b800003ab800c5
:100760000804420089844a00013ab8000030b80009
:100770008880400009014a00040033000000400066
:1007800081804800020149008b05e900c909dd00ac
:10079000830170000100320013002000c814de0045
:1007a0004814dd004709de001200b200c808de0070
:1007b000088470002100070001f0a1000cf0a700e0
:1007c00001f0a000540037006120e1005600320023
:1007d0000801be000200be00f7ff37006150e100d3
:1007e000fcff3a0050003700c70ade00f107b200f4
:1007f000f50fb20008003200e1cf420002003200e3
:100800000170a00024000500810f7000010032007b
:100810000408050044000500810f700002003a0042
:10082000140005008502e9000000400081c0480076
:10083000fcff3b000170a0002400050081002000a7
:10084000618055000b003d000b00200061fe2f0071
:100850000100e1001d00340082817100610164002b
:100860008904d1000884d3000000e800faff3a00b0
:10087000710020006100640003007000020060004d
:100880000900320061044400e0844c000988a5009e
:10089000050032008b05e8006808e10002003a001c
:1008a0008904d1000884d300f20f20000258e1002f
:1008b00005003d00c75ddd00f907b20089807500c5
:1008c00008007800000006000bf827008b00780075
:1008d000000005000004be00c3ff07000003be00c7
:1008e0000405be000200be00bfff0700844f750074
:1008f000000006000200be006450e1000500360062
:100900006420e100020036000968a30001003a00fb
:100910000800be000160a0004f0678004f05be0031
:100920004f04be0000000600f0ff2f00f1ff27007b
:04093000f9ff370094
:020000040000fa
:0200000401f009
:04000c00f8ff0000f9
:020000040000fa
:0200000401f009
:040010007fff00006e
:020000040000fa
:0200000401f009
:040014007fff00006a
:020000040000fa
:10000800dc1c0000dc1c0000dc1c0000dc1c000008
:10001800dc1c0000dc1c0000dc1c0000dc1c0000f8
:10002800a81c0000dc1c0000dc1c0000aa19000051
:10003800dc1c0000dc1c0000dc1c0000dc1c0000d8
:10004800dc1c0000dc1c0000dc1c0000dc1c0000c8
:10005800dc1c0000e0170000dc1c0000dc1c0000b9
:10006800dc1c0000dc1c0000dc1c0000dc1c0000a8
:10007800dc1c0000dc1c0000dc1c0000dc1c000098
:10008800dc1c0000dc1c0000dc1c0000dc1c000088
:10009800dc1c0000dc1c0000dc1c0000dc1c000078
:1000a800dc1c0000dc1c0000dc1c0000dc1c000068
:1000b800dc1c0000dc1c0000dc1c0000dc1c000058
:1000c800dc1c0000dc1c0000dc1c0000dc1c000048
:1000d800dc1c0000dc1c0000dc1c0000dc1c000038
:1000e800dc1c0000dc1c0000dc1c0000dc1c000028
:1000f800dc1c0000dc1c0000dc1c0000dc1c000018
:10010800dc1c0000dc1c0000dc1c0000dc1c000007
:10011800dc1c0000dc1c0000dc1c0000dc1c0000f7
:10012800dc1c0000dc1c0000dc1c0000dc1c0000e7
:10013800dc1c0000dc1c0000dc1c0000dc1c0000d7
:10014800dc1c0000dc1c0000dc1c0000dc1c0000c7
:10015800dc1c0000dc1c0000dc1c0000dc1c0000b7
:10016800dc1c0000dc1c0000dc1c0000dc1c0000a7
:10017800dc1c0000dc1c0000dc1c0000dc1c000097
:10018800dc1c0000dc1c0000dc1c0000dc1c000087
:10019800dc1c0000dc1c0000dc1c0000dc1c000077
:1001a800dc1c0000dc1c0000dc1c0000dc1c000067
:1001b800dc1c0000dc1c0000dc1c0000dc1c000057
:1001c800dc1c0000dc1c0000dc1c0000dc1c000047
:1001d800dc1c0000dc1c0000dc1c0000dc1c000037
:1001e800dc1c0000dc1c0000dc1c0000dc1c000027
:0801f800dc1c0000dc1c00000f
:020000040000fa
:10020800dc1c0000dc1c0000dc1c0000dc1c000006
:10021800dc1c0000dc1c0000dc1c0000dc1c0000f6
:10022800a81c0000dc1c0000dc1c0000aa1900004f
:10023800dc1c0000dc1c0000dc1c0000dc1c0000d6
:10024800dc1c0000dc1c0000dc1c0000dc1c0000c6
:10025800dc1c0000e0170000dc1c0000dc1c0000b7
:10026800dc1c0000dc1c0000dc1c0000dc1c0000a6
:10027800dc1c0000dc1c0000dc1c0000dc1c000096
:10028800dc1c0000dc1c0000dc1c0000dc1c000086
:10029800dc1c0000dc1c0000dc1c0000dc1c000076
:1002a800dc1c0000dc1c0000dc1c0000dc1c000066
:1002b800dc1c0000dc1c0000dc1c0000dc1c000056
:1002c800dc1c0000dc1c0000dc1c0000dc1c000046
:1002d800dc1c0000dc1c0000dc1c0000dc1c000036
:1002e800dc1c0000dc1c0000dc1c0000dc1c000026
:1002f800dc1c0000dc1c0000dc1c0000dc1c000016
:10030800dc1c0000dc1c0000dc1c0000dc1c000005
:10031800dc1c0000dc1c0000dc1c0000dc1c0000f5
:10032800dc1c0000dc1c0000dc1c0000dc1c0000e5
:10033800dc1c0000dc1c0000dc1c0000dc1c0000d5
:10034800dc1c0000dc1c0000dc1c0000dc1c0000c5
:10035800dc1c0000dc1c0000dc1c0000dc1c0000b5
:10036800dc1c0000dc1c0000dc1c0000dc1c0000a5
:10037800dc1c0000dc1c0000dc1c0000dc1c000095
:10038800dc1c0000dc1c0000dc1c0000dc1c000085
:10039800dc1c0000dc1c0000dc1c0000dc1c000075
:1003a800dc1c0000dc1c0000dc1c0000dc1c000065
:1003b800dc1c0000dc1c0000dc1c0000dc1c000055
:1003c800dc1c0000dc1c0000dc1c0000dc1c000045
:1003d800dc1c0000dc1c0000dc1c0000dc1c000035
:1003e800dc1c0000dc1c0000dc1c0000dc1c000025
:0803f800dc1c0000dc1c00000d
:020000040000fa
:10093400546500006d7000005265000061640000a1
:100944000044000069730000706c000061790000cd
:10095400496e0000666f0000004d00006f640000e7
:10096400650000002020000020200000204d000031
:100974006f640000203a0000200000004155000090
:10098400544f00004d410000540000004d41000050
:100994004e550000414c000000540000656d0000fd
:1009a400703a0000200000005374000061720000df
:1009b40074530000746f00007000000011110000f7
:1009c4002222000033330000444400005555000047
:1009d4006666000077770000888800009999000017
:1009e400aaaa0000bbbb0000cccc0000dddd0000e7
:1009f400eeee0000cecd0000acab00000202000021
:100a040003030000040400000505000006060000be
:100a140007070000080800000a0900001010000081
:100a24001011000012120000494400004c4500005f
:040a340000000000be
:020000040000fa
:100a38000000fa00889fbe008a1f780080047800b2
:100a4800360a0700e0e78000890f500002003a00ec
:100a58008004eb00020037000900e00002003a00c1
:100a6800e8e7800001003700090478000885e800fd
:100a78000a007800d00a0700280890000000e0006b
:100a8800020032006c004400cb0a07008a0078009c
:100a9800c0c52100a20a0700fa3cec00e63cec00c5
:100aa800230a0700f01ce200050032000900e000fc
:100ab80003003a00021b02000000000000000000d2
:100ac8004f0578004f04be000080fa0000000600c1
:100ad8000000fa00ee3cec000080fa00000006007e
:100ae8000000fa00889fbe008a1f78000005780081
:100af80081047800e38f500001003600390020009f
:100b0800060a0700e0e780008a0f500002003a005a
:100b18000005eb00020037000a00e00002003a007e
:100b2800e8e78000010037000a047800b808900060
:100b3800818f540025003200030036000a00e000cf
:100b480003003a00040037000a00e00002003a00ff
:100b58001a002000010037000005eb00390c98004e
:100b680064801400600498006a09b90080c82100f4
:100b780002004000d8009000808f50000e003a001c
:100b88008884e800090078008b0a0700b8089000fc
:100b980090e78000808f50000100360091e78800c0
:100ba800380990006a11b90080c82100020040008d
:100bb800890078005a0a0700e10f550003003a003f
:100bc800021b02000000000000000000d809070016
:100bd8004f0578004f04be000080fa0000000600b0
:100be8000000fa00889fbe008a1f78008004780001
:100bf800ca090700e0e78000890f500002003a00a8
:100c08008004eb00020037000900e00002003a000f
:100c1800e8e7800001003700090478000885e8004b
:100c28000a007800640a0700280890000000e00025
:100c3800020032006c0044005f0a07008a00780056
:100c480020c52100360a0700b90907000900e0009d
:100c580003003a00021b0200000000000000000030
:100c68004f0578004f04be000080fa00000006001f
:100c78000000fa0000017800d000900020c5210093
:100c8800808f500007003a00a208900060c621003b
:100c9800808f500003003200100020000100e000a7
:100ca800010032000000eb000080fa00000006009e
:100cb8000000fa00889fbe00000478000000e000f1
:100cc8001f003200e0e78000800f54001c00320053
:100cd8009209070008007800e5ff0700e10f5000bf
:100ce80016003a008884e80009007800320a0700f4
:100cf800b808900090e78000808f5000010036000f
:100d080091e78800380990006a11b90080c821006d
:100d18000200400089007800010a0700e0e780002f
:100d2800b808900030089000808f50000300390008
:100d3800021b020000000000000000007c09070000
:100d48004f04be000080fa00000006000000fa0010
:100d5800889fbe008a1f780000047800c4ff07003f
:100d68000005eb00e10f50001d003a0071e780001c
:100d78000100e00016003a00e0e780000105780075
:100d8800b808900030089000808f500001003900aa
:100d98001a0020008884e80009007800060a070085
:100da800b808900090e78000808f5000010036005e
:100db80091e78800380990006a11b90080c82100bd
:100dc8000200400089007800d509070004003700b8
:100dd800ec00440060c62100d10907000005eb00c3
:100de8000a0078004f0578004f04be000080fa0022
:100df800000006000000fa0042a0a800f03cef0046
:100e0800430907000080fa00000006000000fa000d
:100e1800881f7800ee1ce2002b003a00f63cec003c
:100e2800f61ce20005003a0090e3800081e38000b0
:100e380091e3880080e38800e83cec0090e38000c0
:100e48001000e00022003a002a00370098009000c5
:100e5800b0e78000808f500026003e000880e80040
:100e6800d5090700280890000000e00002003200c1
:100e78006c004400d0090700b808900090e7800093
:100e8800808f50000100360091e788008880e800d4
:100e9800380990006a11b90080c82100020040009a
:100ea8009f09070090e380001000e0001100320065
:100eb80090e3800030009000300490000800e000cb
:100ec800e2ff3a000b003700ec3cec000900370069
:100ed80090e3800030009000300490000800e000ab
:100ee8000400320098009000b0e78000808f500026
:100ef800daff36004f0478000080fa000000060090
:100f08000000fa00889fbe0004090700ee3ced00cf
:100f180070e780000000e00033003a00f81ce200af
:100f28003100320080047800150037006c0044005e
:100f3800a10907000880e8009f090700b808900089
:100f480090e78000808f50000100360091e788000c
:100f58008880e800380990006a11b90080c821002b
:100f6800020040006e090700b8089000e0e7800022
:100f780030089000808f50000100390019002000cf
:100f8800661ce2000500320060e38000300090003b
:100f9800000478000000e000e4ff3a00ec1ce200e6
:100fa80013003a000500370098ff0700ec3ced00fd
:100fb800ec1ce20006003200fbff3700e18f540012
:100fc8000300320050e78000e10f500006003a00ad
:100fd800ea3cef00021b02000000000000000000d5
:100fe80018002000050037000004eb00030037005c
:100ff800ec1ce200f6ff3200ebff3700cc080700dc
:10100800080078004f04be000080fa0000000600c7
:101018000000fa00889fbe00800478000000e0000d
:1010280016003200aafe0700b8e7800008844400d2
:10103800fc9cec0060090700e0e7800018009800bd
:10104800b0e78000800f540005003100e1e7800020
:1010580080e380008180e8003f0907000400370032
:10106800e1e7800090e380008180e8003a0907000a
:10107800a3ff07000000e00003003a00021b020083
:1010880000000000000000004f04be000080fa00cd
:10109800000006000000fa00889fbe008004780067
:1010a800010478008afe070099007800088440004f
:1010b800b0e78000808f500003003600888f500012
:1010c8000600360002003700888f500005003e00f9
:1010d800b0e78000800f540002003e000000eb00e3
:1010e8000100370010002000880c78000000e000a4
:1010f80010003200fc9cec002f090700e0e780009c
:1011080018009800b0e78000800f540005003100f7
:10111800e1e7800080e380008180e8000e09070095
:1011280004003700e1e7800090e380008180e80058
:101138000909070072ff07000000e00003003a00f9
:10114800021b020000000000000000004f04be0067
:101158000080fa00000006000000fa00881f7800ee
:101168006e080700b8e780007108070008007800db
:101178004f0478000080fa00000006000000fa0022
:10118800c0e780000080fa00000006000000fa00b6
:10119800ee1ce200150032001000200050e7880025
:1011a80019003700f23ced001000370090e780008e
:1011b8006a00b90082c82100800041001100900037
:1011c800100190009200980064804000800f510048
:1011d80002003a001201900092009800110090005d
:1011e80030009000e0e788000700370090e78000b3
:1011f8006a00b90082c82100620078000000e0009f
:10120800e8ff3200e9ff37000080fa00000006001e
:101218000000fa00881f780001047800e1e78000e8
:10122800ec804000cc080700fc9cec00e2080700ba
:10123800e10f440005003a00e1e780008180e80002
:1012480020c52100b608070010003700b0e780006d
:1012580000004400e1e7800090009800b1e78000ba
:10126800810f500005003100e1e7800080e3800035
:101278008180e800b808070004003700e1e7800033
:1012880090e380008180e800b30807004f047800ed
:101298000080fa00000006000000fa00881f7800ad
:1012a80080007800100078000000e00002003a009a
:1012b80000047800020037003100900030049000ec
:1012c8006c004400bc080700ee1ce2000e003a0067
:1012d8000880e800b8080700b808900090e7800088
:1012e800808f50000100360091e788008880e80070
:1012f800380990006a11b90080c821000200400036
:101308008708070003003700ec00440060c621008e
:101318008308070038089000e1e78000b1089000d2
:101328000001eb00810f500001003900120020007d
:10133800020078004f0478000080fa0000000600e0
:101348000000fa0041e7800001087800b1e780005a
:10135800110098000080fa00000006000000fa0062
:10136800889fbe008a1f7800000478000105780075
:10137800ea0707001a0178008004eb00e10f41003a
:101388001400320040e78000980f1000040032007b
:10139800b1e7800018009000810f50000c00360063
:1013a8009800900001007800f61cb500800f5100ed
:1013b8000700360001007800f61cb500000d51004a
:1013c80008007800deff07008004eb00010037000a
:1013d80019002000d6070700090078004f0578009b
:1013e8004f04be000080fa00000006000000fa006a
:1013f8001000200050e788000080fa000000060076
:101408000000fa00889fbe008a1f780080047800d8
:10141800020478007a004000420020004ffc0700d8
:101428000040eb00d05c9800e30f54000300360046
:10143800380020001a00200001003700640514005d
:10144800b80c98000980e800300807006c84440054
:10145800080078002d080700c90498000a0c7800d5
:10146800990c98004f0578004f04be000080fa00e0
:10147800000006000000fa00889fbe0088c821000e
:1014880009cb210008007800170807006a04440007
:10149800888f5400fbff3a00e0c7210012080700bc
:1014a80040c721001008070060c621000e08070089
:1014b800c0c521000c08070020c521000a08070044
:1014c800e0c7210090e3880040c7210080e388003e
:1014d8004f04be000080fa00000006000000fa0079
:1014e800881f780000047800400890000109070070
:1014f80008007800ff0807004f0478000080fa0011
:10150800000006000000fa00881f7800fa1ce200bc
:10151800140032006efd0700e8e2800078fe070044
:101528000800e0000f0032007c070700e0e28000be
:101538000000e00002003a000004780002003700d2
:1015480010e38000300490000880e8001a080700c3
:10155800f83ced00fa3ced0075070700080078003c
:10156800deff07004f0478000080fa000000060044
:101578000000fa00e3ff070040e48000e10f50009c
:10158800fcff3600021b0200000000000000000003
:10159800f8ff37000000fa00889fbe008a1f780015
:1015a800000578000104780000022000b808070050
:1015b800800478000000e000100032000800e0001d
:1015c80003003a000a004500b1080700000478004b
:1015d800c80c98000800e00004003a0009007800f0
:1015e800c408070088047800040037000a01450091
:1015f800510a200008007800ebfb0700090078007a
:101608004f0578004f04be000080fa000000060075
:101618000600fa00889fbe008a9fbe008c9fbe000d
:10162800000f78000106780002057800130798007b
:1016380084067800250798008600780087057800da
:1016480002007800d3ff0700800478000080eb00d8
:101658000900e00041003200490c90000a004500f2
:10166800000044000080e900f00c98000a027800ad
:101678008b0178000d0178008c0078000900780053
:101688005fff07001e0190009e00780008007800a8
:10169800d9060700800c780020070700f83cec000a
:1016a800c0e78000e10f500003003a00e9e7880036
:1016b80070ff070007003700f01ce20005003a0041
:1016c800e0e7800030089000808f56000100390064
:1016d800e9e78800b9089000a0e78000808f5000f3
:1016e80001003600a1e78800e63cec00b90890004c
:1016f80090e78000808f50000100360091e7880055
:101708008980e800390990006a11b90080c8210071
:101718000200400082070700050707002e0090001e
:101728000000e0000100320009087800f01ce20027
:1017380009003200e0e78000300890008d0f50006b
:1017480005003100021b020000000000000000003c
:101758001000200001003700100020004f06be00d6
:101768004f05be004f04be000080fa0000000600ce
:101778000000fa008003eb000003eb00860278000b
:101788000602780086017800920620006151280040
:10179800c0ab20009eff0700e10f500004003a0094
:1017a80042a0a80080e78800f63cef00a8060700e2
:1017b8000080fa00000006000000fa00889fbe00c2
:1017c8008a9fbe0080047800010578000000e000d0
:1017d80024003200600220002d0807000004780071
:1017e8000000e0001f0032000ac8b9008005780038
:1017f8000000e8002608070000017800000c7800c7
:101808000000e000130032000b00400010049800b4
:101818000000eb00600c9800220498000900e90021
:1018280000d0b9000000410030049800790c9800fd
:101838000a1498000080eb001014980020149800f7
:1018480068004400280707007200440026070700c4
:101858000500370008007800260807000004eb00a0
:10186800010037000004eb00080078004f05be00b7
:101878004f04be000080fa00000006000000fa00d5
:10188800889fbe0000047800a4060700e8089000be
:101898008004eb0078089000808f500001003a0027
:1018a80019002000a2060700090078004f04be00b6
:1018b8000080fa00000006000000fa00881f780087
:1018c8000004780095060700680c90009806070049
:1018d800080078004f0478000080fa000000060035
:1018e8000000fa00600890000080fa00000006007e
:1018f8000000fa00881f78000004780010007800c3
:10190800fc07070008007800fa0707004f04780072
:101918000080fa00000006000000fa00881f780026
:101928000004780002007800081190000200e0002e
:10193800190032000000e0000c003a002800900076
:10194800fffa07002800900088109000010040006e
:101958002004980098009000810f50000e00390074
:1019680018007800200498000b0037003800900019
:10197800f3fa07003800900088109000010050002a
:1019880030049800980f50000300310018009000b0
:101998000100500030049800680890000000e8003a
:1019a800600c98004f0478000080fa0000000600e0
:1019b8000000fa00889fbe00000478000102780049
:1019c8008204780003017800e00890007008900015
:1019d8008001eb00808f50001600310084007800f1
:1019e80008007800ccff070028109000e10f4000a5
:1019f8000b003a00180890000000e0000c003200cc
:101a08007200440024fe07000000e00008003200d5
:101a180010002000800c7800800178000500370055
:101a28000000e8002014980013002000010037008f
:101a380013002000030078004f04be000080fa0065
:101a4800000006000000fa0000017800810178001b
:101a58001000e0000e00320030009000821090006c
:101a6800010040003001980092009000810f500062
:101a78000200390012007800300198006600410029
:101a8800900078000211900003007800acfa07007b
:101a98000080fa00000006000000fa00889fbe00df
:101aa8000004780082047800600890000000e000dc
:101ab8001700320008007800e2ff0700680890006d
:101ac8000000e900600c980018109000e10f400039
:101ad8000a003a00480090000000e0000b003200c5
:101ae80068004400ecfd07000000e0000700320039
:101af80010002000800c7800050037000000e80086
:101b08001014980010002000010037001000200079
:101b18004f04be000080fa00000006000000fa0032
:101b2800881f780000047800fc0507002810900042
:101b38000000e00029003c000d0037001808900064
:101b48000000e0000a00320072004400d2fd0700e5
:101b58000000e0000100320024fe07002810900079
:101b68000000e900201498004240a900f3ff3c005f
:101b78000080eb0020149800ed050700e70507003a
:101b8800181090000000e00018003c000d0037001d
:101b9800480090000000e0000a003200680044009d
:101ba800bdfd07000000e000010032000ffe070045
:101bb800181090000000e900101498004240a90095
:101bc800f3ff3c000080eb0010149800d8050700d4
:101bd8004f0478000080fa00000006001808900002
:101be8000000e000e2ff3200d7ff37004800900015
:101bf8000000e000f3ff3200e8ff37000600fa00bb
:101c0800889fbe008a9fbe008c1f780080047800e1
:101c18008105780022079800030678000005eb008c
:101c2800be050700690890000000e0001f003200b0
:101c3800390490008b0078000900780081ff0700c4
:101c48000c00e0000b003a00690890000000e90071
:101c5800e00c9800490090000000e00010003200fd
:101c6800688044008cfd0700e10f50000c003a002a
:101c780008003700b8049800190890000000e00038
:101c8800070032007280440083fd07000000e00076
:101c980003003200021b02000000000000000000e8
:101ca800a305070010002000370037002e0490001d
:101cb8000800e00003003a009d05070008007800ce
:101cc800310037000a00e00003003a000e007800f7
:101cd8009bfd07001a002000950507007cfb070004
:101ce8008e05070019109000e10f400002003a002d
:101cf8000000eb009014980029109000e10f4000bc
:101d080002003a000000eb00a014980088050700c4
:101d1800e40047000e00780090fd07000000e00096
:101d280015003a007d050700690c90008005070042
:101d38000800e0000c003a00ae00900072804400f9
:101d480033fd07000900780074ff07006cfc0700ea
:101d58000000e000b2ff3a00021b02000000000091
:101d680000000000aeff3700090078006bff070095
:101d780063fc0700aaff37000900780067ff070027
:101d88005ffc07000000eb004f0678004f05be001f
:101d98004f04be000080fa00000006000600fa00aa
:101da800889fbe008a9fbe008c1f78008004780040
:101db8000106780022079800830578000005eb00eb
:101dc80056050700e908900079089000808f5000b8
:101dd800110031000b0178008c00780009007800b0
:101de800cdfe0700190890000000e000070032004f
:101df8007280440028fd0700e10f500003003a00fc
:101e0800021b020000000000000000004805070057
:101e180010002000360037002e0490000800e00073
:101e280003003a0042050700080078003000370038
:101e38000a00e00003003a000e00780040fd0700a9
:101e48001a0020003a05070021fb070033050700a8
:101e580019109000e10f400002003a000000eb006a
:101e68009014980029109000e10f400002003a00f9
:101e78000000eb00a01498002d050700e4004700bf
:101e88000e00780035fd07000000e00014003a005d
:101e98000900780079fe07000000e0000c0032001d
:101ea800ae00900068804400d9fc07000900780063
:101eb8001aff070012fc07000000e000c0ff3a000c
:101ec800021b02000000000000000000bcff3700f9
:101ed8000900780011ff070009fc0700b8ff370068
:101ee800090078000dff070005fc07000000eb0063
:101ef8004f0678004f05be004f04be000080fa0070
:101f0800000006000000fa00e00890000100ea0066
:101f1800010070004f00de00610010000080fa0030
:101f2800000006000000fa00e00890000001eb0045
:101f380070089000808f500001003a0012002000c5
:101f4800020078000080fa00000006000000fa0095
:101f5800889fbe008a1f7800000478000105780079
:101f68008204780042a0a80044fe07000000e000b8
:101f78000b0032000900e00006003200e8004400cf
:101f880009007800fd01070042a0a900c0ff2f004a
:101f98001a00370042a0a9000000eb001700370024
:101fa80042a0a9000000000042a0a800e808900094
:101fb800780890000001eb00808f50000d00310080
:101fc8000001eb008a0078000800780052fe070044
:101fd800180890000000e00005003200720044007c
:101fe800e3020700b2ff2f000000e00001003a0002
:101ff8001200200042a0a900020078004f057800d6
:102008004f04be000080fa00000006000000fa003d
:10201800881f7800000478008101780042a0a80099
:10202800600890000000e0000b003a000200e000a9
:1020380006003200f200440002007800cf010700d9
:1020480042a0a900c0ff2f002700370042a0a90026
:102058000000eb002400370042a0a90000000000a7
:1020680042a0a800680890000000e00002003a00c2
:10207800800078001a00370038009000881090001f
:10208800010040003004980098009000810f500033
:1020980002003900180078003004980068089000a1
:1020a8000000e900600c9800660044009000780089
:1020b800081190000300780021f9070048009000fb
:1020c8000000e0000500320068004400a802070094
:1020d800b1ff2f000000e00001003a0011002000cd
:1020e80042a0a900010078004f0478000080fa009f
:1020f800000006000000fa00889fbe000004780077
:102108008101780082047800e0089000700890004f
:10211800808f50000f0031000001eb008300780031
:1021280008007800fcfd07000900e00009003a00fb
:10213800180890000000e000080032007200440017
:102148008b020700110020000000e00004003a00a4
:102158000200370089007800010037008000eb009a
:10216800010078004f04be000080fa00000006005d
:102178000000fa00889fbe00000478008101780002
:1021880082047800600890000000e0001e00320021
:10219800380090008810900001004000300498003a
:1021a80098009000810f5000020039001800780054
:1021b80030049800680890000000e900600c98005e
:1021c8006600440090007800081190000300780031
:1021d800dbf807001900e0000a003a004800900008
:1021e8000000e000070032006800440060020700b9
:1021f8000000e0000300320010002000800c78008e
:1022080001003700100020004f04be000080fa00d3
:10221800000006000000fa000000e000270034007b
:102228008000eb000000000000000000000000003b
:102238000000000000000000000000000000000096
:102248000000000000000000000000000000000086
:102258000000000000000000000000000000000076
:102268000000000000000000000000000000000066
:102278000000000000000000000000000000000056
:102288000000000000000000000000000000000046
:102298000000000000000000000000000000000036
:1022a8000000000000000000000000000000000026
:1022b8008100e800810f5000daff3a000080fa0040
:1022c800000006000000fa00889fbe008004780025
:1022d8000000e000060034000004eb00803e20000f
:1022e800ccff07000804e800888f5400fbff3a0081
:1022f8004f04be000080fa00000006000000fa004b
:102308004c00dd00ca22b7000080fa000000060079
:102318000000fa004c00dd00f1ff20000100700011
:10232800ca22b6000080fa00000006000000fa0089
:102338000000eb00f1ff0700ca82a800800220001d
:10234800b4ff0700ca82a9000080eb00f0ff070075
:1023580010002000e9ff0700ca82a8002000200022
:10236800d8ff0700ca82a900e0ff2f00e8ff070096
:102378000080fa00000006000000fa00889fbe00f6
:102388008004fb0044ccde0008007800dbff070077
:10239800cac2a800100020009eff0700ca82a80039
:1023a800800220009bff0700ca82a900080078006d
:1023b8000080ea008180ea00d5ff07006f8464008e
:1023c80008007800cdff07001000200091ff0700eb
:1023d800ca82a800800220008eff0700ca82a900d6
:1023e800cac2a900080078000080ea008180ea00db
:1023f800c7ff07008002200086ff07004f04be00c9
:102408000080fa00000006000000fa00889fbe0065
:10241800c1cfb30009fc2f00e20f500011003200b9
:1024280003003c00e10f500009003a000b003700a0
:1024380091cfb30049f92f00e30f50000900320093
:10244800d1cfb30049fd2f00e40f50000500320042
:102458008040eb008004eb000200370081cfb3001e
:1024680009f82f000104fb0008007800a3ff07000b
:10247800ca82a8004001200066ff0700ca82a9009e
:10248800080078000080ea008180ea00a0ff0700c9
:102498006f8464000800780098ff0700ca82a800cb
:1024a800400120005bff0700ca82a90008007800ed
:1024b8000080ea008180ea0095ff07004f04be0013
:1024c8000080fa00000006000000fa0080022000e8
:1024d8007cff07002000200088ff0700ca82a800b0
:1024e800800220004bff0700ca82a900d0ff2f00fe
:1024f80087ff07002000200080ff0700ca82a8008d
:102508008002200043ff0700ca82a900d0ff2f00e5
:102518007fff07008000200078ff0700ca82a8001c
:10252800800220003bff0700ca82a90070ff2f002d
:1025380077ff07000000eb0070ff0700ca82a800c1
:102548008002200033ff0700ca82a9000080eb0048
:102558006fff0700e000200068ff0700ca82a8009c
:10256800800220002bff0700ca82a90010ff2f005d
:1025780067ff07006dff07000000eb005fff070023
:10258800ca82a8008002200022ff0700ca82a90090
:102598000080eb005eff07006000200057ff070087
:1025a800ca82a800800220001aff0700ca82a90078
:1025b80090ff2f0056ff07002000200041ff070072
:1025c8000080fa00000006000000fa00889fbe00a4
:1025d8008a9fbe0080057800000578008004eb0023
:1025e8000300370068c07d0063ff07008904e80026
:1025f800090478000a007800f2f70700890f5000f4
:10260800f8ff3e004f05be004f04be000080fa00f0
:10261800000006000000fa00889fbe0002ccb3004c
:10262800e20f50000d00320003003c00e10f5000a3
:1026380007003a000800370042c9b300e30f500012
:102648000600320042cdb300e40f50000300320010
:102658000041eb000100370002c8b300014441000b
:102668000844e9000804fb00c4c4de00090078003f
:1026780022ff0700ca82a80040002000e5fe0700ec
:10268800ca82a900090078000080ea008180ea0077
:102698001fff07006f0464000800780017ff070099
:1026a800ca82a80040002000dafe0700ca82a900fa
:1026b800080078000080ea008180ea0014ff070023
:1026c8004f04be000080fa00000006000000fa0077
:1026d800881f7800880020000000e0000400320015
:1026e8000004eb00e10f500001003a00a8002000b0
:1026f8000800780001ff0700ca82a80080022000b5
:10270800c4fe0700ca82a900080078000080ea0019
:102718008180ea00fefe070080022000bdfe07005f
:102728004f0478000080fa00000006000000fa005c
:10273800e20f50000a003a00cbc2bf0061416000be
:102748000281ea008381ea0061416100cbc2bf00d7
:102758000004a10002407000cbe2b700050037007a
:10276800e1406000cbc2bf000004a100014070003e
:10277800cbe2b7000080fa00000006000000fa0073
:10278800889fbe00000178008104780010e880006e
:1027980000044100069dec008703070030e8800034
:1027a8001800980010e88000800f540005003100e0
:1027b80031e880008180e800d0e5800066030700ea
:1027c8000400370031e880008180e800e0e58000ff
:1027d800610307000900e0000400320031e88000ce
:1027e800ec804000090078005b0307004f04be003e
:1027f8000080fa00000006000000fa00881f780038
:10280800b01ce2001a00320042a0a80080e5800057
:102818000000e00002003a000004780002003700df
:10282800b0e58000300490006c00440062030700ab
:1028380042a0a9000880e8005f030700b8089000dc
:1028480020e88000808f50000100360021e88800d1
:102858008880e800380990006a11b90020cd21006d
:10286800020040002e030700b01ce200e6ff3a0019
:102878004f0478000080fa00000006000000fa000b
:10288800881f780034fa070001e880000100500032
:10289800f0e788002e00370011e880008100e8008a
:1028a80011e888000000e900f0e788000100e00076
:1028b80004003a00e0e58000d2e58000e2e5880007
:1028c800d0e58800e0e580001000e00028003a002c
:1028d8001f0037009800900010e88000808f50009b
:1028e8001b003e0042a0a8000880e8003203070051
:1028f800280890000000e000020032006c0044004c
:102908002d03070042a0a900b808900020e8800025
:10291800808f50000100360021e888008880e80098
:10292800380990006a11b90020cd2100020040004a
:10293800fb020700e0e580001000e0000400320020
:1029480030009000300490000800e000e1ff3a00f9
:10295800f0e780000000e000cfff3a0010e88000b8
:1029680000e888004f0478000080fa0000000600a4
:1029780030009000300490000800e000f4ff3200be
:1029880018009000808f5000f1ff3900d5ff370004
:102998000000fa0098ff0700b8ff070024e880004d
:1029a8006a20b90022cd2100800041001100e0001a
:1029b80019003200090037000201e8006a005000df
:1029c800840f51001c0032008301e90023e88800cd
:1029d800800078001000e000f7ff3200110090003e
:1029e800100190009200980064804000800f510010
:1029f80002003a0012019000920098001100900025
:102a08003000900030e8880010017800c00890007d
:102a180002000100080037000400e0000600320050
:102a28006a20b90082cc21000000410084017800ae
:102a38000001eb00e4ff37000080fa000000060008
:102a48000000fa00889fbe0028cd210069ce210031
:102a580008007800a40207006a044400888f540024
:102a6800fbff3a0080cc21009f020700e0cb210049
:102a78009d02070000cb21009b02070080cc2100ab
:102a8800e0e58800e0cb2100d0e588004f04be00d7
:102a98000080fa00000006000000fa00889fbe00cf
:102aa8008a9fbe008c1f780080057800010478009a
:102ab80002057800c0012000750307008004780033
:102ac8000080eb000900e00024003200061de2004f
:102ad80002003a0039e88800d9ff0700e10f5400e6
:102ae80003003600180020003c00200001003700d9
:102af800640614000000eb00d00c9800b80c980095
:102b0800ca0c9800090578000b1d78000a007800a7
:102b18007e0207006c844400080078007b020700ee
:102b2800c9049800990c98000c0c7800b90890001a
:102b380020e88000808f50000100360021e88800de
:102b4800390990006a11b90020cd21000200400027
:102b58008a00780072020700100020004f067800f3
:102b68004f05be004f04be000080fa0000000600ba
:102b78000000fa00889fbe00900078000100e00085
:102b880002003a008104780002003700300090000b
:102b9800b00490006c8444000800780086020700a6
:102ba8008800780000cb21005d020700b90890007a
:102bb80030e88000300890000001eb00808f500062
:102bc8000100390012002000020078004f04be0006
:102bd8000080fa00000006000000fa001a5de2001a
:102be80021003200cb62a900cc010700105de20091
:102bf800370032008003eb000003eb00c5d0210052
:102c0800540020008601780092062000a14928007f
:102c1800406721007efa07008003eb000003eb0009
:102c2800a5d021001400200086017800920620001b
:102c3800314a28002068210075fa07008003eb005c
:102c48000003eb0085d021004400200086017800b5
:102c580092062000f14a2800c06b21006cfa070098
:102c6800107def001a003700ac010700105de2008c
:102c78000c003a0060e880006df7070050e880001b
:102c88006bf7070040e8800069f707000000eb00d9
:102c980060e8880050e8880040e8880010c0b30069
:102ca80010fdb700cbc2bf004300de0061416000e9
:102cb8000281ea008381ea00614161004311dd007d
:102cc800cbc2bf000034a10002407000cbe2b700c5
:102cd80097010700c0122000cdf80700bfff37009a
:102ce8000000fa00210107003df60700a0e888006f
:102cf80000192000c6f80700faff37000600fa009e
:102d0800404b280004000900305f78005e00b100e5
:102d18000000eb00bcfd0700904b28002afe0700ce
:102d280090e88000e10f500003003a00004c2800b2
:102d380025fe070002003700804c280022fe07000d
:102d4800a0e880008e00780096010700100020009f
:102d5800adfd0700f04c28001bfe07000e007800b0
:102d680019fe070000192000a9f80700e8ff37003e
:102d78000000fa0090e88000e10f500002003a00dd
:102d8800cb62a90001003700cb62a800001920001f
:102d98009ff80700f7ff37000000fa008d000700d2
:102da8008003eb000003eb00e5d021006400200065
:102db8008601780092062000614d2800005f2100fe
:102dc80013fa07008003eb000003eb00c5d02100d5
:102dd800540020008601780092062000a1492800ae
:102de800406721000afa07008003eb000003eb00ac
:102df800a5d021001400200086017800920620004a
:102e0800314a28002068210001fa07008003eb00fe
:102e18000003eb0085d021004400200086017800e3
:102e280092062000f14a2800c06b2100f8f907003b
:102e38004ffa07000000eb000080fa0000000600cf
:102e48000000fa00c842a80068c0a8000080fa0084
:102e5800000006000000fa0090022000303a8800c6
:102e6800764040004467b60000ceb3004467b60021
:102e780012002000a10920008007200033742000e0
:102e880080497800814978008249780071052000de
:102e9800600420002374200080497800814978006c
:102ea8008249780043c7bf000047b200f04f500086
:102eb800fcff3a0042c7bf000058a300fdff3200e4
:102ec8000080fa00000006000000fa002143a80074
:102ed800c1cfb300014078002163b60020c3bf0012
:102ee8007f4060000064a00020e3b7002043a800f2
:102ef8002343a800014078002363b60030ccb30018
:102f08002263b60025e3a900f0c3b30024e3b700a9
:102f180030a3a8002ca3ef002c83a90085a0a9004a
:102f2800aac0bf000044a1000046b300aae0b70051
:102f380095a0a80021e3a8000080fa000000060080
:102f48000000fa000a21ef0000c3b3001261b700c5
:102f580090d023007008880013e1a8000080fa00d0
:102f6800000006000000fa00f0c0b300c061b6001f
:102f7800c0cfb300c061b600c3e1a90000002800bb
:102f8800c221b600f0492200200e880040752000ba
:102f9800d00e8800c941a800c8c1a800c841a9002e
:102fa800ca01a800c0c0b300c061b700c1e1a80051
:102fb8000080fa0000000600801f78000000fa0078
:102fc8000018800085a0a9000080fa004f00780052
:102fd800004006000000fa00881f78002ca3ef00cc
:102fe8006ac0a9006ae0a9000004eb00481688003e
:102ff8005816880097ff070033fd070090ff070069
:1030080049020700d7ff0700afff0700ccff070002
:10301800581688004f0478000080fa000000060067
:103028000000fa00ca42a900c842a9000080fa00bc
:10303800000006000000fa00c842a8000080fa005c
:10304800000006000000fa00c842a90061406000c4
:103058004200dd00a12c2000914078000124a1004d
:1030680080c0700001007800cae2b7000080fa0052
:10307800000006000000fa00cac2bf004200de00dd
:10308800610060000080fa00000006000000fa00fd
:10309800e8ff0700e2ff0700602220005dfc070050
:1030a800e4ff0700600420005afc0700401f2000ce
:1030b80058fc0700dfff07000080fa000000060048
:1030c8000000fa00889fbe00000478008004eb002e
:1030d800d3ff0700200020004efc070061006400b9
:1030e800d8ff07000884d100c003200049fc07006e
:1030f800d0ff07002000200046fc07008904e800f4
:10310800e88f5400f2ff3a004f04be000080fa0036
:10311800000006000000fa00889fbe000004eb00d3
:1031280089002000beff07002000200039fc0700ae
:10313800c0ff07008000200036fc07000884d1008b
:10314800ccff07004700dd00000474008007200062
:1031580030fc07008904e900f2ff3a000800780013
:103168004f04be000080fa00000006000000fa00cc
:10317800889fbe00c5ff0700c00c2000d0ff0700d5
:1031880040042000ceff0700e2ff07000000e00037
:10319800fdff3200bdff0700c00c2000c8ff07007c
:1031a800e00b2000c6ff0700daff07008004780064
:1031b800d8ff070000047800d6ff0700d5ff0700f6
:1031c800d4ff0700d3ff0700d2ff0700d1ff070095
:1031d8004840dd0000804400cf80de0021f5070074
:1031e8000200200003d8230049f507004f04be0061
:1031f8000080fa00000006000000fa0001087800cc
:103208008000eb001100980021009800320098001f
:10321800e8004000004e280062512800b0187800ed
:10322800800f5100fdff3a002002800080087800de
:1032380034c0bf000080fb00900098000000eb0045
:10324800a0009800668040000080fa000000060098
:103258000000fa000000eb00200888000008880041
:103268008038210010088800a5c0bf00f1c8b3004d
:10327800014060000044a000a5e0b7008460a900f8
:103288009460a8000481a80004a1a90005e1a80091
:10329800e0e78000900778004f007800b0e88800e9
:1032a8003400f9004400f9004000f9003e00f9003c
:1032b8003c00f9003a00f9003800f9002c00f90048
:1032c8002a00f9002800f9002600f9002400f90076
:1032d8002200f9003200f9003600f9004f077800a3
:1032e8004f06be004f05be004f04be004f03be0090
:1032f8004f02be004f01be004f00be004200f90061
:1033080000000600100020000080fa0000000600ff
:103318000000fa000080fa00000006000000fa0031
:1033280042a0a800163dec000080fa00000006004c
:103338000000fa00161ded00b0e8880001003a0010
:1033480042a0a9000080fa00000006003600f8003c
:10335800809fbe00829fbe00849fbe00869fbe00e5
:103368003400f80000002000a00188000000fa00e6
:103378008460a900a5f60700021b020000000000f7
:10338800000000000080fa003400f9004f03be007e
:103398004f02be004f01be004f00be003600f900cc
:1033a80000400600881f7800801f78000001eb00ad
:1033b8000200e6000000ea000002eb0053002000d3
:1033c8000004eb000e0008001900000000f0a70040
:1033d800610272006f03620003b0e60063024200fc
:1033e8004419dd00050f20000503620002b0e60065
:1033f8000403b0004411dd00c42add0005036200a7
:1034080002b0e6000430b00007002300c42add0043
:10341800050362004c33de0003b0e60007024200f9
:103428004100dd004f21de004144dd00020474004c
:103438004122dd0000f0a700610272004f00780011
:103448008002eb008001eb0003c0e70005003700b5
:1034580003a0e70003003700020320008258780029
:103468001d0037000003eb00d30220000600e60031
:10347800835878006f0164000610e70003003700e6
:103488000203b00082587800150020000003eb000a
:10349800030008000f00000002002f0082016200f4
:1034a800cc19de000618e700040037000301780095
:1034b8000203b00082587800150020006128e1005e
:1034c80004003a000698e7000200370002032000d3
:1034d800825878004422dd008001eb0083487800a0
:1034e8004f047800000006000000fa00e4004000e5
:1034f800110098008088eb00310098004100980086
:103508000008eb000080fa00000006000000fa0046
:103518008000eb00410098000080fa0000000600df
:103528000000fa00900190001301900092009800aa
:1035380010019000a200980013019000210198004a
:103548009101980011009800c00098001008e80048
:103558000080fa00000006000000fa00000278006f
:1035680091017800e18f410002003a00400190008b
:10357800080037006401400012009000908f51004d
:10358800040039001201900012009000908f510041
:10359800fcff310012009000900098002100980074
:1035a800a200980011019800c4009800140ae800cd
:1035b8000080fa00000006000000fa008000780091
:1035c800100090002101900022009800a1019000b5
:1035d800900198004101900012009000810f500066
:1035e80001003a00130198000000eb00c0009800a9
:1035f8001209e9000080fa00000006004200f80005
:10360800801f78000002200010028800811f7800c7
:10361800829fbe00849fbe00869fbe00889fbe001a
:103628008a9fbe008c9fbe008e1f78003600f8006f
:103638003200f8002200f8002400f8002600f80004
:103648002800f8002a00f8002c00f8003800f800dc
:103658003a00f8003c00f8003e00f8004000f8008e
:103668004400f8003400f800b0e88000801f7800bb
:10367800e0e780000f087800ca0802000000000098
:10368800e0e78000900778004f007800b0e88800f5
:103698003400f9004400f9004000f9003e00f90048
:1036a8003c00f9003a00f9003800f9002c00f90054
:1036b8002a00f9002800f9002600f9002400f90082
:1036c8002200f9003200f9003600f9004f077800af
:1036d8004f06be004f05be004f04be004f03be009c
:1036e8004f02be004f01be004f00be004200f9006d
:1036f800000006000000fa006ac0a9006ae0a900fc
:10370800c822ef000080eb0050168800c0e888004f
:103718000080fa00000006000000fa00881f780008
:10372800120020000014dd000100e0000700320054
:10373800fafe070008007800181db700c0e88800e6
:1037480050168800fafe070009003700f3fe07004c
:10375800080078000080ea008180ea00c2e8800062
:1037680000016100c2e8880052168800f0fe0700d8
:103778004f0478000080fa00000006000000fa00fc
:10378800881f780011002000000cdd00e3fe070010
:10379800c2e88000020064000700320008007800d8
:1037a8000080ea008180ea0000006100c0e888002b
:1037b800501688000300370002007400c0e8880033
:1037c80050168800dafe07004f0478000080fa00df
:0437d80000000600e7
:020000040000fa
:1037dc00101d0000060000000200000000000100a7
:1037ec0000010000081d000008000000000000009f
:1037fc00e61c0000180000000200000000000000a1
:10380c0000000000000000000000000000000000ac
:10381c00000000000000000000000000521c00002e
:10382c005e00000000000000161d000002000000f9
:10383c0002000000ef00000050080000021400001d
:10384c0000000000181d0000020000000000000035
:10385c00fe1c00000a000000020000000000000036
:10386c00000000000000000000000000b01c000080
:10387c0036000000000000001a1d000002000000cd
:0c388c000200000001000000000000002d
:020000040000fa
:103898000000fa00881f7800000478000008a300e0
:1038a800020032000000a1000084e80088f407004c
:1038b8008242800082004400f03f2100808f500047
:1038c80006003e00810f51000400310020852000d1
:1038d8000004410081428800010037000004eb0029
:1038e80087f50700080078004f0478000080fa0088
:1038f800000006000000fa000080fa000000060040
:103908000000fa005028ef000080fa0000000600ce
:103918000000fa00004021008142800001005000b0
:103928000080fa00000006000000fa00c8e2a800c3
:10393800cae2a8008400a9009400a8008200a80098
:103948000080fa0000000600809fbe00821f7800f9
:103958000000fa001addbf000080fb000000e9004b
:103968004f00de001afdb700b22c2000124178008b
:103978000281fb004710de000080ea008180ea0037
:103988004700dd00b22c2000124178000274a1002b
:103998000041710002007800cbe2b7008400a90062
:1039a8000080fa004f0178004f00be00004006007a
:020000040000fa
:0439b8000000fe000d
:00000001FF
